{
  "contractName": "CrediumToken",
  "abi": [
    {
      "constant": true,
      "inputs": [],
      "name": "name",
      "outputs": [
        {
          "name": "",
          "type": "string"
        }
      ],
      "payable": false,
      "stateMutability": "view",
      "type": "function"
    },
    {
      "constant": true,
      "inputs": [],
      "name": "totalSupply",
      "outputs": [
        {
          "name": "",
          "type": "uint256"
        }
      ],
      "payable": false,
      "stateMutability": "view",
      "type": "function"
    },
    {
      "constant": true,
      "inputs": [],
      "name": "decimals",
      "outputs": [
        {
          "name": "",
          "type": "uint8"
        }
      ],
      "payable": false,
      "stateMutability": "view",
      "type": "function"
    },
    {
      "constant": false,
      "inputs": [
        {
          "name": "_token",
          "type": "address"
        },
        {
          "name": "_to",
          "type": "address"
        },
        {
          "name": "_amount",
          "type": "uint256"
        }
      ],
      "name": "withdrawTokens",
      "outputs": [],
      "payable": false,
      "stateMutability": "nonpayable",
      "type": "function"
    },
    {
      "constant": true,
      "inputs": [
        {
          "name": "",
          "type": "address"
        }
      ],
      "name": "balanceOf",
      "outputs": [
        {
          "name": "",
          "type": "uint256"
        }
      ],
      "payable": false,
      "stateMutability": "view",
      "type": "function"
    },
    {
      "constant": false,
      "inputs": [],
      "name": "acceptOwnership",
      "outputs": [],
      "payable": false,
      "stateMutability": "nonpayable",
      "type": "function"
    },
    {
      "constant": true,
      "inputs": [],
      "name": "owner",
      "outputs": [
        {
          "name": "",
          "type": "address"
        }
      ],
      "payable": false,
      "stateMutability": "view",
      "type": "function"
    },
    {
      "constant": true,
      "inputs": [],
      "name": "symbol",
      "outputs": [
        {
          "name": "",
          "type": "string"
        }
      ],
      "payable": false,
      "stateMutability": "view",
      "type": "function"
    },
    {
      "constant": true,
      "inputs": [],
      "name": "transfersEnabled",
      "outputs": [
        {
          "name": "",
          "type": "bool"
        }
      ],
      "payable": false,
      "stateMutability": "view",
      "type": "function"
    },
    {
      "constant": true,
      "inputs": [],
      "name": "newOwner",
      "outputs": [
        {
          "name": "",
          "type": "address"
        }
      ],
      "payable": false,
      "stateMutability": "view",
      "type": "function"
    },
    {
      "constant": true,
      "inputs": [
        {
          "name": "",
          "type": "address"
        },
        {
          "name": "",
          "type": "address"
        }
      ],
      "name": "allowance",
      "outputs": [
        {
          "name": "",
          "type": "uint256"
        }
      ],
      "payable": false,
      "stateMutability": "view",
      "type": "function"
    },
    {
      "constant": false,
      "inputs": [
        {
          "name": "_newOwner",
          "type": "address"
        }
      ],
      "name": "transferOwnership",
      "outputs": [],
      "payable": false,
      "stateMutability": "nonpayable",
      "type": "function"
    },
    {
      "inputs": [
        {
          "name": "_name",
          "type": "string"
        },
        {
          "name": "_symbol",
          "type": "string"
        },
        {
          "name": "_decimals",
          "type": "uint8"
        }
      ],
      "payable": false,
      "stateMutability": "nonpayable",
      "type": "constructor"
    },
    {
      "anonymous": false,
      "inputs": [
        {
          "indexed": true,
          "name": "_from",
          "type": "address"
        },
        {
          "indexed": true,
          "name": "_to",
          "type": "address"
        },
        {
          "indexed": false,
          "name": "_value",
          "type": "uint256"
        }
      ],
      "name": "Transfer",
      "type": "event"
    },
    {
      "anonymous": false,
      "inputs": [
        {
          "indexed": true,
          "name": "_owner",
          "type": "address"
        },
        {
          "indexed": true,
          "name": "_spender",
          "type": "address"
        },
        {
          "indexed": false,
          "name": "_value",
          "type": "uint256"
        }
      ],
      "name": "Approval",
      "type": "event"
    },
    {
      "anonymous": false,
      "inputs": [
        {
          "indexed": false,
          "name": "_token",
          "type": "address"
        }
      ],
      "name": "NewSmartToken",
      "type": "event"
    },
    {
      "anonymous": false,
      "inputs": [
        {
          "indexed": false,
          "name": "_amount",
          "type": "uint256"
        }
      ],
      "name": "Issuance",
      "type": "event"
    },
    {
      "anonymous": false,
      "inputs": [
        {
          "indexed": false,
          "name": "_amount",
          "type": "uint256"
        }
      ],
      "name": "Destruction",
      "type": "event"
    },
    {
      "anonymous": false,
      "inputs": [
        {
          "indexed": false,
          "name": "_prevOwner",
          "type": "address"
        },
        {
          "indexed": false,
          "name": "_newOwner",
          "type": "address"
        }
      ],
      "name": "OwnerUpdate",
      "type": "event"
    },
    {
      "constant": false,
      "inputs": [
        {
          "name": "_disable",
          "type": "bool"
        }
      ],
      "name": "disableTransfers",
      "outputs": [],
      "payable": false,
      "stateMutability": "nonpayable",
      "type": "function"
    },
    {
      "constant": false,
      "inputs": [
        {
          "name": "_to",
          "type": "address"
        },
        {
          "name": "_amount",
          "type": "uint256"
        }
      ],
      "name": "issue",
      "outputs": [],
      "payable": false,
      "stateMutability": "nonpayable",
      "type": "function"
    },
    {
      "constant": false,
      "inputs": [
        {
          "name": "_from",
          "type": "address"
        },
        {
          "name": "_amount",
          "type": "uint256"
        }
      ],
      "name": "destroy",
      "outputs": [],
      "payable": false,
      "stateMutability": "nonpayable",
      "type": "function"
    },
    {
      "constant": false,
      "inputs": [
        {
          "name": "_to",
          "type": "address"
        },
        {
          "name": "_value",
          "type": "uint256"
        }
      ],
      "name": "transfer",
      "outputs": [
        {
          "name": "success",
          "type": "bool"
        }
      ],
      "payable": false,
      "stateMutability": "nonpayable",
      "type": "function"
    },
    {
      "constant": false,
      "inputs": [
        {
          "name": "_from",
          "type": "address"
        },
        {
          "name": "_to",
          "type": "address"
        },
        {
          "name": "_value",
          "type": "uint256"
        }
      ],
      "name": "transferFrom",
      "outputs": [
        {
          "name": "success",
          "type": "bool"
        }
      ],
      "payable": false,
      "stateMutability": "nonpayable",
      "type": "function"
    },
    {
      "constant": false,
      "inputs": [
        {
          "name": "_spender",
          "type": "address"
        },
        {
          "name": "_value",
          "type": "uint256"
        }
      ],
      "name": "approve",
      "outputs": [
        {
          "name": "success",
          "type": "bool"
        }
      ],
      "payable": false,
      "stateMutability": "nonpayable",
      "type": "function"
    }
  ],
  "bytecode": "0x60606040526020604051908101604052806000815250600290805190602001906200002c929190620001e9565b5060206040519081016040528060008152506003908051906020019062000055929190620001e9565b506000600460006101000a81548160ff021916908360ff16021790555060006005556001600660006101000a81548160ff02191690831515021790555034156200009e57600080fd5b604051620019cb380380620019cb83398101604052808051820191906020018051820191906020018051906020019091905050336000806101000a81548173ffffffffffffffffffffffffffffffffffffffff021916908373ffffffffffffffffffffffffffffffffffffffff1602179055506000835111801562000124575060008251115b15156200013057600080fd5b826002908051906020019062000148929190620001e9565b50816003908051906020019062000161929190620001e9565b5080600460006101000a81548160ff021916908360ff1602179055507ff4cd1f8571e8d9c97ffcb81558807ab73f9803d54de5da6a0420593c82a4a9f030604051808273ffffffffffffffffffffffffffffffffffffffff1673ffffffffffffffffffffffffffffffffffffffff16815260200191505060405180910390a150505062000298565b828054600181600116156101000203166002900490600052602060002090601f016020900481019282601f106200022c57805160ff19168380011785556200025d565b828001600101855582156200025d579182015b828111156200025c5782518255916020019190600101906200023f565b5b5090506200026c919062000270565b5090565b6200029591905b808211156200029157600081600090555060010162000277565b5090565b90565b61172380620002a86000396000f3006060604052600436106100fc576000357c0100000000000000000000000000000000000000000000000000000000900463ffffffff16806306fdde0314610101578063095ea7b31461018f5780631608f18f146101e957806318160ddd1461020e57806323b872dd14610237578063313ce567146102b05780635e35359e146102df57806370a082311461034057806379ba50971461038d578063867904b4146103a25780638da5cb5b146103e457806395d89b4114610439578063a24835d1146104c7578063a9059cbb14610509578063bef97c8714610563578063d4ee1d9014610590578063dd62ed3e146105e5578063f2fde38b14610651575b600080fd5b341561010c57600080fd5b61011461068a565b6040518080602001828103825283818151815260200191508051906020019080838360005b83811015610154578082015181840152602081019050610139565b50505050905090810190601f1680156101815780820380516001836020036101000a031916815260200191505b509250505060405180910390f35b341561019a57600080fd5b6101cf600480803573ffffffffffffffffffffffffffffffffffffffff16906020019091908035906020019091905050610728565b604051808215151515815260200191505060405180910390f35b34156101f457600080fd5b61020c600480803515159060200190919050506108d8565b005b341561021957600080fd5b61022161094e565b6040518082815260200191505060405180910390f35b341561024257600080fd5b610296600480803573ffffffffffffffffffffffffffffffffffffffff1690602001909190803573ffffffffffffffffffffffffffffffffffffffff16906020019091908035906020019091905050610954565b604051808215151515815260200191505060405180910390f35b34156102bb57600080fd5b6102c3610add565b604051808260ff1660ff16815260200191505060405180910390f35b34156102ea57600080fd5b61033e600480803573ffffffffffffffffffffffffffffffffffffffff1690602001909190803573ffffffffffffffffffffffffffffffffffffffff16906020019091908035906020019091905050610af0565b005b341561034b57600080fd5b610377600480803573ffffffffffffffffffffffffffffffffffffffff16906020019091905050610ca8565b6040518082815260200191505060405180910390f35b341561039857600080fd5b6103a0610cc0565b005b34156103ad57600080fd5b6103e2600480803573ffffffffffffffffffffffffffffffffffffffff16906020019091908035906020019091905050610e9c565b005b34156103ef57600080fd5b6103f7611097565b604051808273ffffffffffffffffffffffffffffffffffffffff1673ffffffffffffffffffffffffffffffffffffffff16815260200191505060405180910390f35b341561044457600080fd5b61044c6110bc565b6040518080602001828103825283818151815260200191508051906020019080838360005b8381101561048c578082015181840152602081019050610471565b50505050905090810190601f1680156104b95780820380516001836020036101000a031916815260200191505b509250505060405180910390f35b34156104d257600080fd5b610507600480803573ffffffffffffffffffffffffffffffffffffffff1690602001909190803590602001909190505061115a565b005b341561051457600080fd5b610549600480803573ffffffffffffffffffffffffffffffffffffffff16906020019091908035906020019091905050611329565b604051808215151515815260200191505060405180910390f35b341561056e57600080fd5b610576611383565b604051808215151515815260200191505060405180910390f35b341561059b57600080fd5b6105a3611396565b604051808273ffffffffffffffffffffffffffffffffffffffff1673ffffffffffffffffffffffffffffffffffffffff16815260200191505060405180910390f35b34156105f057600080fd5b61063b600480803573ffffffffffffffffffffffffffffffffffffffff1690602001909190803573ffffffffffffffffffffffffffffffffffffffff169060200190919050506113bc565b6040518082815260200191505060405180910390f35b341561065c57600080fd5b610688600480803573ffffffffffffffffffffffffffffffffffffffff169060200190919050506113e1565b005b60028054600181600116156101000203166002900480601f0160208091040260200160405190810160405280929190818152602001828054600181600116156101000203166002900480156107205780601f106106f557610100808354040283529160200191610720565b820191906000526020600020905b81548152906001019060200180831161070357829003601f168201915b505050505081565b60008260008173ffffffffffffffffffffffffffffffffffffffff161415151561075157600080fd5b60008314806107dc57506000600860003373ffffffffffffffffffffffffffffffffffffffff1673ffffffffffffffffffffffffffffffffffffffff16815260200190815260200160002060008673ffffffffffffffffffffffffffffffffffffffff1673ffffffffffffffffffffffffffffffffffffffff16815260200190815260200160002054145b15156107e757600080fd5b82600860003373ffffffffffffffffffffffffffffffffffffffff1673ffffffffffffffffffffffffffffffffffffffff16815260200190815260200160002060008673ffffffffffffffffffffffffffffffffffffffff1673ffffffffffffffffffffffffffffffffffffffff168152602001908152602001600020819055508373ffffffffffffffffffffffffffffffffffffffff163373ffffffffffffffffffffffffffffffffffffffff167f8c5be1e5ebec7d5bd14f71427d1e84f3dd0314c0f7b2291e5b200ac8c7c3b925856040518082815260200191505060405180910390a3600191505092915050565b6000809054906101000a900473ffffffffffffffffffffffffffffffffffffffff1673ffffffffffffffffffffffffffffffffffffffff163373ffffffffffffffffffffffffffffffffffffffff1614151561093057fe5b8015600660006101000a81548160ff02191690831515021790555050565b60055481565b6000600660009054906101000a900460ff16151561097157600080fd5b8360008173ffffffffffffffffffffffffffffffffffffffff161415151561099857600080fd5b8360008173ffffffffffffffffffffffffffffffffffffffff16141515156109bf57600080fd5b610a45600860008873ffffffffffffffffffffffffffffffffffffffff1673ffffffffffffffffffffffffffffffffffffffff16815260200190815260200160002060003373ffffffffffffffffffffffffffffffffffffffff1673ffffffffffffffffffffffffffffffffffffffff168152602001908152602001600020548561153e565b600860008873ffffffffffffffffffffffffffffffffffffffff1673ffffffffffffffffffffffffffffffffffffffff16815260200190815260200160002060003373ffffffffffffffffffffffffffffffffffffffff1673ffffffffffffffffffffffffffffffffffffffff16815260200190815260200160002081905550610ad0868686611557565b6001925050509392505050565b600460009054906101000a900460ff1681565b6000809054906101000a900473ffffffffffffffffffffffffffffffffffffffff1673ffffffffffffffffffffffffffffffffffffffff163373ffffffffffffffffffffffffffffffffffffffff16141515610b4857fe5b8260008173ffffffffffffffffffffffffffffffffffffffff1614151515610b6f57600080fd5b8260008173ffffffffffffffffffffffffffffffffffffffff1614151515610b9657600080fd5b833073ffffffffffffffffffffffffffffffffffffffff168173ffffffffffffffffffffffffffffffffffffffff1614151515610bd257600080fd5b8573ffffffffffffffffffffffffffffffffffffffff1663a9059cbb86866000604051602001526040518363ffffffff167c0100000000000000000000000000000000000000000000000000000000028152600401808373ffffffffffffffffffffffffffffffffffffffff1673ffffffffffffffffffffffffffffffffffffffff16815260200182815260200192505050602060405180830381600087803b1515610c7d57600080fd5b6102c65a03f11515610c8e57600080fd5b505050604051805190501515610ca057fe5b505050505050565b60076020528060005260406000206000915090505481565b600160009054906101000a900473ffffffffffffffffffffffffffffffffffffffff1673ffffffffffffffffffffffffffffffffffffffff163373ffffffffffffffffffffffffffffffffffffffff16141515610d1c57600080fd5b7f343765429aea5a34b3ff6a3785a98a5abb2597aca87bfbb58632c173d585373a6000809054906101000a900473ffffffffffffffffffffffffffffffffffffffff16600160009054906101000a900473ffffffffffffffffffffffffffffffffffffffff16604051808373ffffffffffffffffffffffffffffffffffffffff1673ffffffffffffffffffffffffffffffffffffffff1681526020018273ffffffffffffffffffffffffffffffffffffffff1673ffffffffffffffffffffffffffffffffffffffff1681526020019250505060405180910390a1600160009054906101000a900473ffffffffffffffffffffffffffffffffffffffff166000806101000a81548173ffffffffffffffffffffffffffffffffffffffff021916908373ffffffffffffffffffffffffffffffffffffffff1602179055506000600160006101000a81548173ffffffffffffffffffffffffffffffffffffffff021916908373ffffffffffffffffffffffffffffffffffffffff160217905550565b6000809054906101000a900473ffffffffffffffffffffffffffffffffffffffff1673ffffffffffffffffffffffffffffffffffffffff163373ffffffffffffffffffffffffffffffffffffffff16141515610ef457fe5b8160008173ffffffffffffffffffffffffffffffffffffffff1614151515610f1b57600080fd5b823073ffffffffffffffffffffffffffffffffffffffff168173ffffffffffffffffffffffffffffffffffffffff1614151515610f5757600080fd5b610f63600554846116d9565b600581905550610fb2600760008673ffffffffffffffffffffffffffffffffffffffff1673ffffffffffffffffffffffffffffffffffffffff16815260200190815260200160002054846116d9565b600760008673ffffffffffffffffffffffffffffffffffffffff1673ffffffffffffffffffffffffffffffffffffffff168152602001908152602001600020819055507f9386c90217c323f58030f9dadcbc938f807a940f4ff41cd4cead9562f5da7dc3836040518082815260200191505060405180910390a18373ffffffffffffffffffffffffffffffffffffffff163073ffffffffffffffffffffffffffffffffffffffff167fddf252ad1be2c89b69c2b068fc378daa952ba7f163c4a11628f55a4df523b3ef856040518082815260200191505060405180910390a350505050565b6000809054906101000a900473ffffffffffffffffffffffffffffffffffffffff1681565b60038054600181600116156101000203166002900480601f0160208091040260200160405190810160405280929190818152602001828054600181600116156101000203166002900480156111525780601f1061112757610100808354040283529160200191611152565b820191906000526020600020905b81548152906001019060200180831161113557829003601f168201915b505050505081565b8173ffffffffffffffffffffffffffffffffffffffff163373ffffffffffffffffffffffffffffffffffffffff1614806111e057506000809054906101000a900473ffffffffffffffffffffffffffffffffffffffff1673ffffffffffffffffffffffffffffffffffffffff163373ffffffffffffffffffffffffffffffffffffffff16145b15156111eb57600080fd5b611234600760008473ffffffffffffffffffffffffffffffffffffffff1673ffffffffffffffffffffffffffffffffffffffff168152602001908152602001600020548261153e565b600760008473ffffffffffffffffffffffffffffffffffffffff1673ffffffffffffffffffffffffffffffffffffffff168152602001908152602001600020819055506112836005548261153e565b6005819055503073ffffffffffffffffffffffffffffffffffffffff168273ffffffffffffffffffffffffffffffffffffffff167fddf252ad1be2c89b69c2b068fc378daa952ba7f163c4a11628f55a4df523b3ef836040518082815260200191505060405180910390a37f9a1b418bc061a5d80270261562e6986a35d995f8051145f277be16103abd3453816040518082815260200191505060405180910390a15050565b6000600660009054906101000a900460ff16151561134657600080fd5b8260008173ffffffffffffffffffffffffffffffffffffffff161415151561136d57600080fd5b611378338585611557565b600191505092915050565b600660009054906101000a900460ff1681565b600160009054906101000a900473ffffffffffffffffffffffffffffffffffffffff1681565b6008602052816000526040600020602052806000526040600020600091509150505481565b6000809054906101000a900473ffffffffffffffffffffffffffffffffffffffff1673ffffffffffffffffffffffffffffffffffffffff163373ffffffffffffffffffffffffffffffffffffffff1614151561143957fe5b8060008173ffffffffffffffffffffffffffffffffffffffff161415151561146057600080fd5b813073ffffffffffffffffffffffffffffffffffffffff168173ffffffffffffffffffffffffffffffffffffffff161415151561149c57600080fd5b6000809054906101000a900473ffffffffffffffffffffffffffffffffffffffff1673ffffffffffffffffffffffffffffffffffffffff168373ffffffffffffffffffffffffffffffffffffffff16141515156114f857600080fd5b82600160006101000a81548173ffffffffffffffffffffffffffffffffffffffff021916908373ffffffffffffffffffffffffffffffffffffffff160217905550505050565b600081831015151561154c57fe5b818303905092915050565b6115a0600760008573ffffffffffffffffffffffffffffffffffffffff1673ffffffffffffffffffffffffffffffffffffffff168152602001908152602001600020548261153e565b600760008573ffffffffffffffffffffffffffffffffffffffff1673ffffffffffffffffffffffffffffffffffffffff1681526020019081526020016000208190555061162c600760008473ffffffffffffffffffffffffffffffffffffffff1673ffffffffffffffffffffffffffffffffffffffff16815260200190815260200160002054826116d9565b600760008473ffffffffffffffffffffffffffffffffffffffff1673ffffffffffffffffffffffffffffffffffffffff168152602001908152602001600020819055508173ffffffffffffffffffffffffffffffffffffffff168373ffffffffffffffffffffffffffffffffffffffff167fddf252ad1be2c89b69c2b068fc378daa952ba7f163c4a11628f55a4df523b3ef836040518082815260200191505060405180910390a3505050565b60008082840190508381101515156116ed57fe5b80915050929150505600a165627a7a72305820484a75674c0866e110259c075f2ea2197489e2f30647a6789ffde548f7fddfdf0029",
  "source": "pragma solidity ^0.4.11;\nimport \"./interfaces/IERC20Token.sol\";\nimport \"./util/TokenHolder.sol\";\nimport \"./util/Owned.sol\";\nimport \"./interfaces/ISmartToken.sol\";\n\n/**\n *  Implementation of the Bancor Smart Token v0.3\n *\n *  'Owned' is specified here for readability reasons\n */\ncontract CrediumToken is ISmartToken, Owned, TokenHolder {\n\n    string public name = \"\";\n    string public symbol = \"\";\n    uint8 public decimals = 0;\n    uint256 public totalSupply = 0;\n    bool public transfersEnabled = true;\n\n    mapping (address => uint256) public balanceOf;\n    mapping (address => mapping (address => uint256)) public allowance;\n\n    event Transfer(address indexed _from, address indexed _to, uint256 _value);\n    event Approval(address indexed _owner, address indexed _spender, uint256 _value);\n    event NewSmartToken(address _token);\n    event Issuance(uint256 _amount);\n    event Destruction(uint256 _amount);\n\n    /**\n     *   Constructor function\n     *\n     *   @param _name       token name\n     *   @param _symbol     token short symbol, minimum 1 character\n     *   @param _decimals   for display purposes only\n     */\n    function CrediumToken(string _name, string _symbol, uint8 _decimals) public {\n        require(bytes(_name).length > 0 && bytes(_symbol).length > 0); // validate input\n        name = _name;\n        symbol = _symbol;\n        decimals = _decimals;\n        NewSmartToken(address(this));\n    }\n\n    modifier transfersAllowed {\n        require(transfersEnabled);\n        _;\n    }\n\n    /**\n     *  Disable/Enable token transfers\n     *\n     *  @param _disable    true to disable transfers, false to enable them\n     */\n    function disableTransfers(bool _disable) public ownerOnly {\n        transfersEnabled = !_disable;\n    }\n\n    /**\n     *   Issue new tokens\n     *\n     *   Increases the token supply and sends the new tokens to an account\n     *   can only be called by the contract owner\n     *\n     *   @param _to         account to receive the new amount\n     *   @param _amount     amount to increase the supply by\n     */\n    function issue(address _to, uint256 _amount)\n        public\n        ownerOnly\n        validAddress(_to)\n        notThis(_to)\n    {\n        totalSupply = safeAdd(totalSupply, _amount);\n        balanceOf[_to] = safeAdd(balanceOf[_to], _amount);\n\n        Issuance(_amount);\n        Transfer(this, _to, _amount);\n    }\n\n    /**\n     *   Destroy tokens\n     *   Destroys tokens from any account or by any holder to destroy tokens from his/her own account\n     *\n     *   @param _from       account to remove the amount from\n     *   @param _amount     amount to decrease the supply by\n     */\n    function destroy(address _from, uint256 _amount) public {\n        require(msg.sender == _from || msg.sender == owner); // validate input\n\n        balanceOf[_from] = safeSub(balanceOf[_from], _amount);\n        totalSupply = safeSub(totalSupply, _amount);\n\n        Transfer(_from, this, _amount);\n        Destruction(_amount);\n    }\n\n    /**\n     * Transfer tokens\n     *\n     * Send `_value` tokens to `_to` from your account\n     *\n     * @param _to The address of the recipient\n     * @param _value the amount to send\n     */\n    function transfer(address _to, uint256 _value) public\n        transfersAllowed\n        validAddress(_to)\n        returns (bool success)\n    {\n        _transfer(msg.sender, _to, _value);\n        return true;\n    }\n\n    /**\n     * Transfer tokens from other address\n     *\n     * Send `_value` tokens to `_to` in behalf of `_from`\n     *\n     * @param _from The address of the sender\n     * @param _to The address of the recipient\n     * @param _value the amount to send\n     */\n    function transferFrom(address _from, address _to, uint256 _value) public\n        transfersAllowed\n        validAddress(_from)\n        validAddress(_to)\n        returns (bool success)\n    {\n        allowance[_from][msg.sender] = safeSub(allowance[_from][msg.sender], _value);\n        _transfer(_from, _to, _value);\n        return true;\n    }\n\n    /**\n     * Internal transfer, only can be called by this contract\n     */\n    function _transfer(address _from, address _to, uint256 _value) internal {\n        balanceOf[_from] = safeSub(balanceOf[_from], _value);\n        balanceOf[_to] = safeAdd(balanceOf[_to], _value);\n        Transfer(_from, _to, _value);\n    }\n\n    /**\n     * Set allowance for other address\n     *\n     * Allows `_spender` to spend no more than `_value` tokens on your behalf\n     *\n     * also, to minimize the risk of the approve/transferFrom attack vector\n     * (see https://docs.google.com/document/d/1YLPtQxZu1UAvO9cZ1O2RPXBbT0mooh4DYKjA_jp-RLM/), approve has to be called twice\n     * in 2 separate transactions - once to change the allowance to 0 and secondly to change it to the new allowance value\n     *\n     * @param _spender The address authorized to spend\n     * @param _value the max amount they can spend\n     *\n     * @return true if the approval was successful, false if it wasn't\n     */\n    function approve(address _spender, uint256 _value) public\n        validAddress(_spender)\n        returns (bool success)\n    {\n        // if the allowance isn't 0, it can only be updated to 0 to prevent an allowance change immediately after withdrawal\n        require(_value == 0 || allowance[msg.sender][_spender] == 0);\n\n        allowance[msg.sender][_spender] = _value;\n        Approval(msg.sender, _spender, _value);\n        return true;\n    }\n}\n",
  "sourcePath": "/home/taras/Workspace/vscode/CDM-Token-Contracts/solidity/contracts/CrediumToken.sol",
  "compiler": {
    "name": "solc",
    "version": "0.4.19+commit.c4cbbb05.Emscripten.clang"
  },
  "schemaVersion": "1.0.1",
  "updatedAt": "2018-02-15T18:24:09.158Z"
}