{
  "contractName": "CrediumToken",
  "abi": [
    {
      "constant": true,
      "inputs": [],
      "name": "name",
      "outputs": [
        {
          "name": "",
          "type": "string"
        }
      ],
      "payable": false,
      "stateMutability": "view",
      "type": "function"
    },
    {
      "constant": true,
      "inputs": [],
      "name": "totalSupply",
      "outputs": [
        {
          "name": "",
          "type": "uint256"
        }
      ],
      "payable": false,
      "stateMutability": "view",
      "type": "function"
    },
    {
      "constant": true,
      "inputs": [],
      "name": "decimals",
      "outputs": [
        {
          "name": "",
          "type": "uint8"
        }
      ],
      "payable": false,
      "stateMutability": "view",
      "type": "function"
    },
    {
      "constant": true,
      "inputs": [],
      "name": "version",
      "outputs": [
        {
          "name": "",
          "type": "string"
        }
      ],
      "payable": false,
      "stateMutability": "view",
      "type": "function"
    },
    {
      "constant": false,
      "inputs": [
        {
          "name": "_token",
          "type": "address"
        },
        {
          "name": "_to",
          "type": "address"
        },
        {
          "name": "_amount",
          "type": "uint256"
        }
      ],
      "name": "withdrawTokens",
      "outputs": [],
      "payable": false,
      "stateMutability": "nonpayable",
      "type": "function"
    },
    {
      "constant": true,
      "inputs": [
        {
          "name": "",
          "type": "address"
        }
      ],
      "name": "balanceOf",
      "outputs": [
        {
          "name": "",
          "type": "uint256"
        }
      ],
      "payable": false,
      "stateMutability": "view",
      "type": "function"
    },
    {
      "constant": false,
      "inputs": [],
      "name": "acceptOwnership",
      "outputs": [],
      "payable": false,
      "stateMutability": "nonpayable",
      "type": "function"
    },
    {
      "constant": true,
      "inputs": [],
      "name": "owner",
      "outputs": [
        {
          "name": "",
          "type": "address"
        }
      ],
      "payable": false,
      "stateMutability": "view",
      "type": "function"
    },
    {
      "constant": true,
      "inputs": [],
      "name": "symbol",
      "outputs": [
        {
          "name": "",
          "type": "string"
        }
      ],
      "payable": false,
      "stateMutability": "view",
      "type": "function"
    },
    {
      "constant": true,
      "inputs": [],
      "name": "transfersEnabled",
      "outputs": [
        {
          "name": "",
          "type": "bool"
        }
      ],
      "payable": false,
      "stateMutability": "view",
      "type": "function"
    },
    {
      "constant": true,
      "inputs": [],
      "name": "newOwner",
      "outputs": [
        {
          "name": "",
          "type": "address"
        }
      ],
      "payable": false,
      "stateMutability": "view",
      "type": "function"
    },
    {
      "constant": true,
      "inputs": [
        {
          "name": "",
          "type": "address"
        },
        {
          "name": "",
          "type": "address"
        }
      ],
      "name": "allowance",
      "outputs": [
        {
          "name": "",
          "type": "uint256"
        }
      ],
      "payable": false,
      "stateMutability": "view",
      "type": "function"
    },
    {
      "constant": false,
      "inputs": [
        {
          "name": "_newOwner",
          "type": "address"
        }
      ],
      "name": "transferOwnership",
      "outputs": [],
      "payable": false,
      "stateMutability": "nonpayable",
      "type": "function"
    },
    {
      "inputs": [
        {
          "name": "_name",
          "type": "string"
        },
        {
          "name": "_symbol",
          "type": "string"
        },
        {
          "name": "_decimals",
          "type": "uint8"
        }
      ],
      "payable": false,
      "stateMutability": "nonpayable",
      "type": "constructor"
    },
    {
      "anonymous": false,
      "inputs": [
        {
          "indexed": true,
          "name": "_from",
          "type": "address"
        },
        {
          "indexed": true,
          "name": "_to",
          "type": "address"
        },
        {
          "indexed": false,
          "name": "_value",
          "type": "uint256"
        }
      ],
      "name": "Transfer",
      "type": "event"
    },
    {
      "anonymous": false,
      "inputs": [
        {
          "indexed": true,
          "name": "_owner",
          "type": "address"
        },
        {
          "indexed": true,
          "name": "_spender",
          "type": "address"
        },
        {
          "indexed": false,
          "name": "_value",
          "type": "uint256"
        }
      ],
      "name": "Approval",
      "type": "event"
    },
    {
      "anonymous": false,
      "inputs": [
        {
          "indexed": false,
          "name": "_token",
          "type": "address"
        }
      ],
      "name": "NewSmartToken",
      "type": "event"
    },
    {
      "anonymous": false,
      "inputs": [
        {
          "indexed": false,
          "name": "_amount",
          "type": "uint256"
        }
      ],
      "name": "Issuance",
      "type": "event"
    },
    {
      "anonymous": false,
      "inputs": [
        {
          "indexed": false,
          "name": "_amount",
          "type": "uint256"
        }
      ],
      "name": "Destruction",
      "type": "event"
    },
    {
      "anonymous": false,
      "inputs": [
        {
          "indexed": false,
          "name": "_prevOwner",
          "type": "address"
        },
        {
          "indexed": false,
          "name": "_newOwner",
          "type": "address"
        }
      ],
      "name": "OwnerUpdate",
      "type": "event"
    },
    {
      "constant": false,
      "inputs": [
        {
          "name": "_disable",
          "type": "bool"
        }
      ],
      "name": "disableTransfers",
      "outputs": [],
      "payable": false,
      "stateMutability": "nonpayable",
      "type": "function"
    },
    {
      "constant": false,
      "inputs": [
        {
          "name": "_to",
          "type": "address"
        },
        {
          "name": "_amount",
          "type": "uint256"
        }
      ],
      "name": "issue",
      "outputs": [],
      "payable": false,
      "stateMutability": "nonpayable",
      "type": "function"
    },
    {
      "constant": false,
      "inputs": [
        {
          "name": "_from",
          "type": "address"
        },
        {
          "name": "_amount",
          "type": "uint256"
        }
      ],
      "name": "destroy",
      "outputs": [],
      "payable": false,
      "stateMutability": "nonpayable",
      "type": "function"
    },
    {
      "constant": false,
      "inputs": [
        {
          "name": "_to",
          "type": "address"
        },
        {
          "name": "_value",
          "type": "uint256"
        }
      ],
      "name": "transfer",
      "outputs": [
        {
          "name": "success",
          "type": "bool"
        }
      ],
      "payable": false,
      "stateMutability": "nonpayable",
      "type": "function"
    },
    {
      "constant": false,
      "inputs": [
        {
          "name": "_from",
          "type": "address"
        },
        {
          "name": "_to",
          "type": "address"
        },
        {
          "name": "_value",
          "type": "uint256"
        }
      ],
      "name": "transferFrom",
      "outputs": [
        {
          "name": "success",
          "type": "bool"
        }
      ],
      "payable": false,
      "stateMutability": "nonpayable",
      "type": "function"
    },
    {
      "constant": false,
      "inputs": [
        {
          "name": "_spender",
          "type": "address"
        },
        {
          "name": "_value",
          "type": "uint256"
        }
      ],
      "name": "approve",
      "outputs": [
        {
          "name": "success",
          "type": "bool"
        }
      ],
      "payable": false,
      "stateMutability": "nonpayable",
      "type": "function"
    }
  ],
  "bytecode": "0x60606040526040805190810160405280600381526020017f302e330000000000000000000000000000000000000000000000000000000000815250600290805190602001906200005192919062000237565b506020604051908101604052806000815250600390805190602001906200007a92919062000237565b50602060405190810160405280600081525060049080519060200190620000a392919062000237565b506000600560006101000a81548160ff021916908360ff16021790555060006006556001600760006101000a81548160ff0219169083151502179055503415620000ec57600080fd5b60405162001c1738038062001c1783398101604052808051820191906020018051820191906020018051906020019091905050336000806101000a81548173ffffffffffffffffffffffffffffffffffffffff021916908373ffffffffffffffffffffffffffffffffffffffff1602179055506000835111801562000172575060008251115b15156200017e57600080fd5b82600390805190602001906200019692919062000237565b508160049080519060200190620001af92919062000237565b5080600560006101000a81548160ff021916908360ff1602179055507ff4cd1f8571e8d9c97ffcb81558807ab73f9803d54de5da6a0420593c82a4a9f030604051808273ffffffffffffffffffffffffffffffffffffffff1673ffffffffffffffffffffffffffffffffffffffff16815260200191505060405180910390a1505050620002e6565b828054600181600116156101000203166002900490600052602060002090601f016020900481019282601f106200027a57805160ff1916838001178555620002ab565b82800160010185558215620002ab579182015b82811115620002aa5782518255916020019190600101906200028d565b5b509050620002ba9190620002be565b5090565b620002e391905b80821115620002df576000816000905550600101620002c5565b5090565b90565b61192180620002f66000396000f300606060405260043610610107576000357c0100000000000000000000000000000000000000000000000000000000900463ffffffff16806306fdde031461010c578063095ea7b31461019a5780631608f18f146101f457806318160ddd1461021957806323b872dd14610242578063313ce567146102bb57806354fd4d50146102ea5780635e35359e1461037857806370a08231146103d957806379ba509714610426578063867904b41461043b5780638da5cb5b1461047d57806395d89b41146104d2578063a24835d114610560578063a9059cbb146105a2578063bef97c87146105fc578063d4ee1d9014610629578063dd62ed3e1461067e578063f2fde38b146106ea575b600080fd5b341561011757600080fd5b61011f610723565b6040518080602001828103825283818151815260200191508051906020019080838360005b8381101561015f578082015181840152602081019050610144565b50505050905090810190601f16801561018c5780820380516001836020036101000a031916815260200191505b509250505060405180910390f35b34156101a557600080fd5b6101da600480803573ffffffffffffffffffffffffffffffffffffffff169060200190919080359060200190919050506107c1565b604051808215151515815260200191505060405180910390f35b34156101ff57600080fd5b61021760048080351515906020019091905050610971565b005b341561022457600080fd5b61022c6109e7565b6040518082815260200191505060405180910390f35b341561024d57600080fd5b6102a1600480803573ffffffffffffffffffffffffffffffffffffffff1690602001909190803573ffffffffffffffffffffffffffffffffffffffff169060200190919080359060200190919050506109ed565b604051808215151515815260200191505060405180910390f35b34156102c657600080fd5b6102ce610ccd565b604051808260ff1660ff16815260200191505060405180910390f35b34156102f557600080fd5b6102fd610ce0565b6040518080602001828103825283818151815260200191508051906020019080838360005b8381101561033d578082015181840152602081019050610322565b50505050905090810190601f16801561036a5780820380516001836020036101000a031916815260200191505b509250505060405180910390f35b341561038357600080fd5b6103d7600480803573ffffffffffffffffffffffffffffffffffffffff1690602001909190803573ffffffffffffffffffffffffffffffffffffffff16906020019091908035906020019091905050610d7e565b005b34156103e457600080fd5b610410600480803573ffffffffffffffffffffffffffffffffffffffff16906020019091905050610f36565b6040518082815260200191505060405180910390f35b341561043157600080fd5b610439610f4e565b005b341561044657600080fd5b61047b600480803573ffffffffffffffffffffffffffffffffffffffff1690602001909190803590602001909190505061112a565b005b341561048857600080fd5b610490611325565b604051808273ffffffffffffffffffffffffffffffffffffffff1673ffffffffffffffffffffffffffffffffffffffff16815260200191505060405180910390f35b34156104dd57600080fd5b6104e561134a565b6040518080602001828103825283818151815260200191508051906020019080838360005b8381101561052557808201518184015260208101905061050a565b50505050905090810190601f1680156105525780820380516001836020036101000a031916815260200191505b509250505060405180910390f35b341561056b57600080fd5b6105a0600480803573ffffffffffffffffffffffffffffffffffffffff169060200190919080359060200190919050506113e8565b005b34156105ad57600080fd5b6105e2600480803573ffffffffffffffffffffffffffffffffffffffff169060200190919080359060200190919050506115b7565b604051808215151515815260200191505060405180910390f35b341561060757600080fd5b61060f611768565b604051808215151515815260200191505060405180910390f35b341561063457600080fd5b61063c61177b565b604051808273ffffffffffffffffffffffffffffffffffffffff1673ffffffffffffffffffffffffffffffffffffffff16815260200191505060405180910390f35b341561068957600080fd5b6106d4600480803573ffffffffffffffffffffffffffffffffffffffff1690602001909190803573ffffffffffffffffffffffffffffffffffffffff169060200190919050506117a1565b6040518082815260200191505060405180910390f35b34156106f557600080fd5b610721600480803573ffffffffffffffffffffffffffffffffffffffff169060200190919050506117c6565b005b60038054600181600116156101000203166002900480601f0160208091040260200160405190810160405280929190818152602001828054600181600116156101000203166002900480156107b95780601f1061078e576101008083540402835291602001916107b9565b820191906000526020600020905b81548152906001019060200180831161079c57829003601f168201915b505050505081565b60008260008173ffffffffffffffffffffffffffffffffffffffff16141515156107ea57600080fd5b600083148061087557506000600960003373ffffffffffffffffffffffffffffffffffffffff1673ffffffffffffffffffffffffffffffffffffffff16815260200190815260200160002060008673ffffffffffffffffffffffffffffffffffffffff1673ffffffffffffffffffffffffffffffffffffffff16815260200190815260200160002054145b151561088057600080fd5b82600960003373ffffffffffffffffffffffffffffffffffffffff1673ffffffffffffffffffffffffffffffffffffffff16815260200190815260200160002060008673ffffffffffffffffffffffffffffffffffffffff1673ffffffffffffffffffffffffffffffffffffffff168152602001908152602001600020819055508373ffffffffffffffffffffffffffffffffffffffff163373ffffffffffffffffffffffffffffffffffffffff167f8c5be1e5ebec7d5bd14f71427d1e84f3dd0314c0f7b2291e5b200ac8c7c3b925856040518082815260200191505060405180910390a3600191505092915050565b6000809054906101000a900473ffffffffffffffffffffffffffffffffffffffff1673ffffffffffffffffffffffffffffffffffffffff163373ffffffffffffffffffffffffffffffffffffffff161415156109c957fe5b8015600760006101000a81548160ff02191690831515021790555050565b60065481565b60008360008173ffffffffffffffffffffffffffffffffffffffff1614151515610a1657600080fd5b8360008173ffffffffffffffffffffffffffffffffffffffff1614151515610a3d57600080fd5b610ac3600960008873ffffffffffffffffffffffffffffffffffffffff1673ffffffffffffffffffffffffffffffffffffffff16815260200190815260200160002060003373ffffffffffffffffffffffffffffffffffffffff1673ffffffffffffffffffffffffffffffffffffffff16815260200190815260200160002054856118be565b600960008873ffffffffffffffffffffffffffffffffffffffff1673ffffffffffffffffffffffffffffffffffffffff16815260200190815260200160002060003373ffffffffffffffffffffffffffffffffffffffff1673ffffffffffffffffffffffffffffffffffffffff16815260200190815260200160002081905550610b8c600860008873ffffffffffffffffffffffffffffffffffffffff1673ffffffffffffffffffffffffffffffffffffffff16815260200190815260200160002054856118be565b600860008873ffffffffffffffffffffffffffffffffffffffff1673ffffffffffffffffffffffffffffffffffffffff16815260200190815260200160002081905550610c18600860008773ffffffffffffffffffffffffffffffffffffffff1673ffffffffffffffffffffffffffffffffffffffff16815260200190815260200160002054856118d7565b600860008773ffffffffffffffffffffffffffffffffffffffff1673ffffffffffffffffffffffffffffffffffffffff168152602001908152602001600020819055508473ffffffffffffffffffffffffffffffffffffffff168673ffffffffffffffffffffffffffffffffffffffff167fddf252ad1be2c89b69c2b068fc378daa952ba7f163c4a11628f55a4df523b3ef866040518082815260200191505060405180910390a36001925050509392505050565b600560009054906101000a900460ff1681565b60028054600181600116156101000203166002900480601f016020809104026020016040519081016040528092919081815260200182805460018160011615610100020316600290048015610d765780601f10610d4b57610100808354040283529160200191610d76565b820191906000526020600020905b815481529060010190602001808311610d5957829003601f168201915b505050505081565b6000809054906101000a900473ffffffffffffffffffffffffffffffffffffffff1673ffffffffffffffffffffffffffffffffffffffff163373ffffffffffffffffffffffffffffffffffffffff16141515610dd657fe5b8260008173ffffffffffffffffffffffffffffffffffffffff1614151515610dfd57600080fd5b8260008173ffffffffffffffffffffffffffffffffffffffff1614151515610e2457600080fd5b833073ffffffffffffffffffffffffffffffffffffffff168173ffffffffffffffffffffffffffffffffffffffff1614151515610e6057600080fd5b8573ffffffffffffffffffffffffffffffffffffffff1663a9059cbb86866000604051602001526040518363ffffffff167c0100000000000000000000000000000000000000000000000000000000028152600401808373ffffffffffffffffffffffffffffffffffffffff1673ffffffffffffffffffffffffffffffffffffffff16815260200182815260200192505050602060405180830381600087803b1515610f0b57600080fd5b6102c65a03f11515610f1c57600080fd5b505050604051805190501515610f2e57fe5b505050505050565b60086020528060005260406000206000915090505481565b600160009054906101000a900473ffffffffffffffffffffffffffffffffffffffff1673ffffffffffffffffffffffffffffffffffffffff163373ffffffffffffffffffffffffffffffffffffffff16141515610faa57600080fd5b7f343765429aea5a34b3ff6a3785a98a5abb2597aca87bfbb58632c173d585373a6000809054906101000a900473ffffffffffffffffffffffffffffffffffffffff16600160009054906101000a900473ffffffffffffffffffffffffffffffffffffffff16604051808373ffffffffffffffffffffffffffffffffffffffff1673ffffffffffffffffffffffffffffffffffffffff1681526020018273ffffffffffffffffffffffffffffffffffffffff1673ffffffffffffffffffffffffffffffffffffffff1681526020019250505060405180910390a1600160009054906101000a900473ffffffffffffffffffffffffffffffffffffffff166000806101000a81548173ffffffffffffffffffffffffffffffffffffffff021916908373ffffffffffffffffffffffffffffffffffffffff1602179055506000600160006101000a81548173ffffffffffffffffffffffffffffffffffffffff021916908373ffffffffffffffffffffffffffffffffffffffff160217905550565b6000809054906101000a900473ffffffffffffffffffffffffffffffffffffffff1673ffffffffffffffffffffffffffffffffffffffff163373ffffffffffffffffffffffffffffffffffffffff1614151561118257fe5b8160008173ffffffffffffffffffffffffffffffffffffffff16141515156111a957600080fd5b823073ffffffffffffffffffffffffffffffffffffffff168173ffffffffffffffffffffffffffffffffffffffff16141515156111e557600080fd5b6111f1600654846118d7565b600681905550611240600860008673ffffffffffffffffffffffffffffffffffffffff1673ffffffffffffffffffffffffffffffffffffffff16815260200190815260200160002054846118d7565b600860008673ffffffffffffffffffffffffffffffffffffffff1673ffffffffffffffffffffffffffffffffffffffff168152602001908152602001600020819055507f9386c90217c323f58030f9dadcbc938f807a940f4ff41cd4cead9562f5da7dc3836040518082815260200191505060405180910390a18373ffffffffffffffffffffffffffffffffffffffff163073ffffffffffffffffffffffffffffffffffffffff167fddf252ad1be2c89b69c2b068fc378daa952ba7f163c4a11628f55a4df523b3ef856040518082815260200191505060405180910390a350505050565b6000809054906101000a900473ffffffffffffffffffffffffffffffffffffffff1681565b60048054600181600116156101000203166002900480601f0160208091040260200160405190810160405280929190818152602001828054600181600116156101000203166002900480156113e05780601f106113b5576101008083540402835291602001916113e0565b820191906000526020600020905b8154815290600101906020018083116113c357829003601f168201915b505050505081565b8173ffffffffffffffffffffffffffffffffffffffff163373ffffffffffffffffffffffffffffffffffffffff16148061146e57506000809054906101000a900473ffffffffffffffffffffffffffffffffffffffff1673ffffffffffffffffffffffffffffffffffffffff163373ffffffffffffffffffffffffffffffffffffffff16145b151561147957600080fd5b6114c2600860008473ffffffffffffffffffffffffffffffffffffffff1673ffffffffffffffffffffffffffffffffffffffff16815260200190815260200160002054826118be565b600860008473ffffffffffffffffffffffffffffffffffffffff1673ffffffffffffffffffffffffffffffffffffffff16815260200190815260200160002081905550611511600654826118be565b6006819055503073ffffffffffffffffffffffffffffffffffffffff168273ffffffffffffffffffffffffffffffffffffffff167fddf252ad1be2c89b69c2b068fc378daa952ba7f163c4a11628f55a4df523b3ef836040518082815260200191505060405180910390a37f9a1b418bc061a5d80270261562e6986a35d995f8051145f277be16103abd3453816040518082815260200191505060405180910390a15050565b60008260008173ffffffffffffffffffffffffffffffffffffffff16141515156115e057600080fd5b611629600860003373ffffffffffffffffffffffffffffffffffffffff1673ffffffffffffffffffffffffffffffffffffffff16815260200190815260200160002054846118be565b600860003373ffffffffffffffffffffffffffffffffffffffff1673ffffffffffffffffffffffffffffffffffffffff168152602001908152602001600020819055506116b5600860008673ffffffffffffffffffffffffffffffffffffffff1673ffffffffffffffffffffffffffffffffffffffff16815260200190815260200160002054846118d7565b600860008673ffffffffffffffffffffffffffffffffffffffff1673ffffffffffffffffffffffffffffffffffffffff168152602001908152602001600020819055508373ffffffffffffffffffffffffffffffffffffffff163373ffffffffffffffffffffffffffffffffffffffff167fddf252ad1be2c89b69c2b068fc378daa952ba7f163c4a11628f55a4df523b3ef856040518082815260200191505060405180910390a3600191505092915050565b600760009054906101000a900460ff1681565b600160009054906101000a900473ffffffffffffffffffffffffffffffffffffffff1681565b6009602052816000526040600020602052806000526040600020600091509150505481565b6000809054906101000a900473ffffffffffffffffffffffffffffffffffffffff1673ffffffffffffffffffffffffffffffffffffffff163373ffffffffffffffffffffffffffffffffffffffff1614151561181e57fe5b6000809054906101000a900473ffffffffffffffffffffffffffffffffffffffff1673ffffffffffffffffffffffffffffffffffffffff168173ffffffffffffffffffffffffffffffffffffffff161415151561187a57600080fd5b80600160006101000a81548173ffffffffffffffffffffffffffffffffffffffff021916908373ffffffffffffffffffffffffffffffffffffffff16021790555050565b60008183101515156118cc57fe5b818303905092915050565b60008082840190508381101515156118eb57fe5b80915050929150505600a165627a7a72305820fc14860b588ba25ffaf894938524570e5db93fbfb9e35f5eb481804f283905ab0029",
  "source": "pragma solidity ^0.4.11;\nimport \"./interfaces/IERC20Token.sol\";\nimport \"./util/TokenHolder.sol\";\nimport \"./util/Owned.sol\";\nimport \"./interfaces/ISmartToken.sol\";\n\n/*\n *  Implementation of the Bancor Smart Token v0.3\n *\n *  'Owned' is specified here for readability reasons\n */\ncontract CrediumToken is ISmartToken, Owned, TokenHolder {\n    string public version = \"0.3\";\n\n    string public name = \"\";\n    string public symbol = \"\";\n    uint8 public decimals = 0;\n    uint256 public totalSupply = 0;\n    bool public transfersEnabled = true;\n\n    mapping (address => uint256) public balanceOf;\n    mapping (address => mapping (address => uint256)) public allowance;\n\n    event Transfer(address indexed _from, address indexed _to, uint256 _value);\n    event Approval(address indexed _owner, address indexed _spender, uint256 _value);\n    event NewSmartToken(address _token);\n    event Issuance(uint256 _amount);\n    event Destruction(uint256 _amount);\n\n    /**\n     *   Constructor function\n     *\n     *   @param _name       token name\n     *   @param _symbol     token short symbol, minimum 1 character\n     *   @param _decimals   for display purposes only\n     */\n    function CrediumToken(string _name, string _symbol, uint8 _decimals) public {\n        require(bytes(_name).length > 0 && bytes(_symbol).length > 0); // validate input\n        name = _name;\n        symbol = _symbol;\n        decimals = _decimals;\n        NewSmartToken(address(this));\n    }\n\n    // allows execution only when transfers aren't disabled\n    modifier transfersAllowed {\n        assert(transfersEnabled);\n        _;\n    }\n\n    /**\n     *  Disable/Enable token transfers\n     *\n     *  @param _disable    true to disable transfers, false to enable them\n     */\n    function disableTransfers(bool _disable) public ownerOnly {\n        transfersEnabled = !_disable;\n    }\n\n    /**\n     *   Issue new tokens\n     *\n     *   Increases the token supply and sends the new tokens to an account\n     *   can only be called by the contract owner\n     *\n     *   @param _to         account to receive the new amount\n     *   @param _amount     amount to increase the supply by\n     */\n    function issue(address _to, uint256 _amount)\n        public\n        ownerOnly\n        validAddress(_to)\n        notThis(_to)\n    {\n        totalSupply = safeAdd(totalSupply, _amount);\n        balanceOf[_to] = safeAdd(balanceOf[_to], _amount);\n\n        Issuance(_amount);\n        Transfer(this, _to, _amount);\n    }\n\n    /**\n     *   Destroy tokens\n     *   Destroys tokens from any account or by any holder to destroy tokens from his/her own account\n     *\n     *   @param _from       account to remove the amount from\n     *   @param _amount     amount to decrease the supply by\n     */\n    function destroy(address _from, uint256 _amount) public {\n        require(msg.sender == _from || msg.sender == owner); // validate input\n\n        balanceOf[_from] = safeSub(balanceOf[_from], _amount);\n        totalSupply = safeSub(totalSupply, _amount);\n\n        Transfer(_from, this, _amount);\n        Destruction(_amount);\n    }\n\n    /**\n     * Transfer tokens\n     *\n     * Send `_value` tokens to `_to` from your account\n     *\n     * @param _to The address of the recipient\n     * @param _value the amount to send\n     */\n    function transfer(address _to, uint256 _value)\n        public\n        validAddress(_to)\n        returns (bool success)\n    {\n        balanceOf[msg.sender] = safeSub(balanceOf[msg.sender], _value);\n        balanceOf[_to] = safeAdd(balanceOf[_to], _value);\n        Transfer(msg.sender, _to, _value);\n        return true;\n    }\n\n    /**\n     * Transfer tokens from other address\n     *\n     * Send `_value` tokens to `_to` in behalf of `_from`\n     *\n     * @param _from The address of the sender\n     * @param _to The address of the recipient\n     * @param _value the amount to send\n     */\n    function transferFrom(address _from, address _to, uint256 _value)\n        public\n        validAddress(_from)\n        validAddress(_to)\n        returns (bool success)\n    {\n        allowance[_from][msg.sender] = safeSub(allowance[_from][msg.sender], _value);\n        balanceOf[_from] = safeSub(balanceOf[_from], _value);\n        balanceOf[_to] = safeAdd(balanceOf[_to], _value);\n        Transfer(_from, _to, _value);\n        return true;\n    }\n\n    /**\n     * Set allowance for other address\n     *\n     * Allows `_spender` to spend no more than `_value` tokens on your behalf\n     *\n     * also, to minimize the risk of the approve/transferFrom attack vector\n     * (see https://docs.google.com/document/d/1YLPtQxZu1UAvO9cZ1O2RPXBbT0mooh4DYKjA_jp-RLM/), approve has to be called twice\n     * in 2 separate transactions - once to change the allowance to 0 and secondly to change it to the new allowance value\n     *\n     * @param _spender The address authorized to spend\n     * @param _value the max amount they can spend\n     *\n     * @return true if the approval was successful, false if it wasn't\n     */\n    function approve(address _spender, uint256 _value)\n        public\n        validAddress(_spender)\n        returns (bool success)\n    {\n        // if the allowance isn't 0, it can only be updated to 0 to prevent an allowance change immediately after withdrawal\n        require(_value == 0 || allowance[msg.sender][_spender] == 0);\n\n        allowance[msg.sender][_spender] = _value;\n        Approval(msg.sender, _spender, _value);\n        return true;\n    }\n}\n",
  "sourcePath": "/home/taras/Workspace/vscode/cdm-token/solidity/contracts/CrediumToken.sol",
  "compiler": {
    "name": "solc",
    "version": "0.4.19+commit.c4cbbb05.Emscripten.clang"
  },
  "schemaVersion": "1.0.1",
  "updatedAt": "2018-02-02T11:37:40.356Z"
}