{
  "contractName": "CrowdsaleContract",
  "abi": [
    {
      "constant": true,
      "inputs": [],
      "name": "TOKEN_PRICE_D",
      "outputs": [
        {
          "name": "",
          "type": "uint256"
        }
      ],
      "payable": false,
      "stateMutability": "view",
      "type": "function"
    },
    {
      "constant": true,
      "inputs": [],
      "name": "crowdsaleEndTime",
      "outputs": [
        {
          "name": "",
          "type": "uint256"
        }
      ],
      "payable": false,
      "stateMutability": "view",
      "type": "function"
    },
    {
      "constant": true,
      "inputs": [],
      "name": "beneficiary",
      "outputs": [
        {
          "name": "",
          "type": "address"
        }
      ],
      "payable": false,
      "stateMutability": "view",
      "type": "function"
    },
    {
      "constant": true,
      "inputs": [],
      "name": "TOKEN_PRICE_N",
      "outputs": [
        {
          "name": "",
          "type": "uint256"
        }
      ],
      "payable": false,
      "stateMutability": "view",
      "type": "function"
    },
    {
      "constant": true,
      "inputs": [],
      "name": "TOTAL_ETHER_CAP",
      "outputs": [
        {
          "name": "",
          "type": "uint256"
        }
      ],
      "payable": false,
      "stateMutability": "view",
      "type": "function"
    },
    {
      "constant": false,
      "inputs": [],
      "name": "acceptOwnership",
      "outputs": [],
      "payable": false,
      "stateMutability": "nonpayable",
      "type": "function"
    },
    {
      "constant": true,
      "inputs": [],
      "name": "owner",
      "outputs": [
        {
          "name": "",
          "type": "address"
        }
      ],
      "payable": false,
      "stateMutability": "view",
      "type": "function"
    },
    {
      "constant": true,
      "inputs": [],
      "name": "CROWDSALE_DURATION",
      "outputs": [
        {
          "name": "",
          "type": "uint256"
        }
      ],
      "payable": false,
      "stateMutability": "view",
      "type": "function"
    },
    {
      "constant": true,
      "inputs": [],
      "name": "totalEtherContributed",
      "outputs": [
        {
          "name": "",
          "type": "uint256"
        }
      ],
      "payable": false,
      "stateMutability": "view",
      "type": "function"
    },
    {
      "constant": true,
      "inputs": [],
      "name": "newOwner",
      "outputs": [
        {
          "name": "",
          "type": "address"
        }
      ],
      "payable": false,
      "stateMutability": "view",
      "type": "function"
    },
    {
      "constant": true,
      "inputs": [],
      "name": "crowdsaleStartTime",
      "outputs": [
        {
          "name": "",
          "type": "uint256"
        }
      ],
      "payable": false,
      "stateMutability": "view",
      "type": "function"
    },
    {
      "constant": true,
      "inputs": [],
      "name": "MAX_GAS_PRICE",
      "outputs": [
        {
          "name": "",
          "type": "uint256"
        }
      ],
      "payable": false,
      "stateMutability": "view",
      "type": "function"
    },
    {
      "constant": false,
      "inputs": [
        {
          "name": "_newOwner",
          "type": "address"
        }
      ],
      "name": "transferOwnership",
      "outputs": [],
      "payable": false,
      "stateMutability": "nonpayable",
      "type": "function"
    },
    {
      "constant": true,
      "inputs": [],
      "name": "token",
      "outputs": [
        {
          "name": "",
          "type": "address"
        }
      ],
      "payable": false,
      "stateMutability": "view",
      "type": "function"
    },
    {
      "inputs": [
        {
          "name": "_token",
          "type": "address"
        },
        {
          "name": "_crowdsaleStartTime",
          "type": "uint256"
        },
        {
          "name": "_beneficiary",
          "type": "address"
        }
      ],
      "payable": false,
      "stateMutability": "nonpayable",
      "type": "constructor"
    },
    {
      "payable": true,
      "stateMutability": "payable",
      "type": "fallback"
    },
    {
      "anonymous": false,
      "inputs": [
        {
          "indexed": true,
          "name": "_contributor",
          "type": "address"
        },
        {
          "indexed": false,
          "name": "contributedAmount",
          "type": "uint256"
        },
        {
          "indexed": false,
          "name": "tokenAmount",
          "type": "uint256"
        }
      ],
      "name": "ContributionEvent",
      "type": "event"
    },
    {
      "anonymous": false,
      "inputs": [
        {
          "indexed": false,
          "name": "_prevOwner",
          "type": "address"
        },
        {
          "indexed": false,
          "name": "_newOwner",
          "type": "address"
        }
      ],
      "name": "OwnerUpdate",
      "type": "event"
    },
    {
      "constant": false,
      "inputs": [],
      "name": "receiveETH",
      "outputs": [
        {
          "name": "",
          "type": "uint256"
        }
      ],
      "payable": true,
      "stateMutability": "payable",
      "type": "function"
    },
    {
      "constant": true,
      "inputs": [
        {
          "name": "_contribution",
          "type": "uint256"
        }
      ],
      "name": "calculateOutcome",
      "outputs": [
        {
          "name": "",
          "type": "uint256"
        }
      ],
      "payable": false,
      "stateMutability": "pure",
      "type": "function"
    },
    {
      "constant": false,
      "inputs": [
        {
          "name": "_newOwner",
          "type": "address"
        }
      ],
      "name": "transferTokenOwnership",
      "outputs": [],
      "payable": false,
      "stateMutability": "nonpayable",
      "type": "function"
    },
    {
      "constant": false,
      "inputs": [],
      "name": "acceptTokenOwnership",
      "outputs": [],
      "payable": false,
      "stateMutability": "nonpayable",
      "type": "function"
    }
  ],
  "bytecode": "0x60606040526000600255600060035560006004556000600560006101000a81548173ffffffffffffffffffffffffffffffffffffffff021916908373ffffffffffffffffffffffffffffffffffffffff160217905550341561006057600080fd5b6040516060806110d383398101604052808051906020019091908051906020019091908051906020019091905050336000806101000a81548173ffffffffffffffffffffffffffffffffffffffff021916908373ffffffffffffffffffffffffffffffffffffffff1602179055508180421015156100dd57600080fd5b8360008173ffffffffffffffffffffffffffffffffffffffff161415151561010457600080fd5b8260008173ffffffffffffffffffffffffffffffffffffffff161415151561012b57600080fd5b6101478661020e64010000000002610e3a176401000000009004565b151561015257600080fd5b8460028190555061017b6002546212750061022764010000000002610e1c176401000000009004565b60038190555083600560006101000a81548173ffffffffffffffffffffffffffffffffffffffff021916908373ffffffffffffffffffffffffffffffffffffffff16021790555085600660006101000a81548173ffffffffffffffffffffffffffffffffffffffff021916908373ffffffffffffffffffffffffffffffffffffffff160217905550505050505050610245565b600080823b905060008163ffffffff1611915050919050565b600080828401905083811015151561023b57fe5b8091505092915050565b610e7f806102546000396000f3006060604052600436106100fc576000357c0100000000000000000000000000000000000000000000000000000000900463ffffffff1680630d2806ad146101075780631d545d091461013057806321e6b53d1461015957806338a5e0161461019257806338af3eed146101a75780633ecfd51e146101fc57806345cfad3e1461021a5780636a72a4d71461024357806379ba50971461026c5780638da5cb5b14610281578063ad3c0b9d146102d6578063b591fc69146102ff578063d4ee1d9014610328578063e2fc421d1461037d578063e3bbb4f1146103a6578063ec4ddce3146103cf578063f2fde38b14610406578063fc0c546a1461043f575b610104610494565b50005b341561011257600080fd5b61011a6104a3565b6040518082815260200191505060405180910390f35b341561013b57600080fd5b6101436104a8565b6040518082815260200191505060405180910390f35b341561016457600080fd5b610190600480803573ffffffffffffffffffffffffffffffffffffffff169060200190919050506104ae565b005b341561019d57600080fd5b6101a56105d9565b005b34156101b257600080fd5b6101ba6106cc565b604051808273ffffffffffffffffffffffffffffffffffffffff1673ffffffffffffffffffffffffffffffffffffffff16815260200191505060405180910390f35b610204610494565b6040518082815260200191505060405180910390f35b341561022557600080fd5b61022d6106f2565b6040518082815260200191505060405180910390f35b341561024e57600080fd5b6102566106f7565b6040518082815260200191505060405180910390f35b341561027757600080fd5b61027f610705565b005b341561028c57600080fd5b6102946108e1565b604051808273ffffffffffffffffffffffffffffffffffffffff1673ffffffffffffffffffffffffffffffffffffffff16815260200191505060405180910390f35b34156102e157600080fd5b6102e9610906565b6040518082815260200191505060405180910390f35b341561030a57600080fd5b61031261090d565b6040518082815260200191505060405180910390f35b341561033357600080fd5b61033b610913565b604051808273ffffffffffffffffffffffffffffffffffffffff1673ffffffffffffffffffffffffffffffffffffffff16815260200191505060405180910390f35b341561038857600080fd5b610390610939565b6040518082815260200191505060405180910390f35b34156103b157600080fd5b6103b961093f565b6040518082815260200191505060405180910390f35b34156103da57600080fd5b6103f06004808035906020019091905050610948565b6040518082815260200191505060405180910390f35b341561041157600080fd5b61043d600480803573ffffffffffffffffffffffffffffffffffffffff16906020019091905050610968565b005b341561044a57600080fd5b610452610ac5565b604051808273ffffffffffffffffffffffffffffffffffffffff1673ffffffffffffffffffffffffffffffffffffffff16815260200191505060405180910390f35b600061049e610aeb565b905090565b606481565b60035481565b6000809054906101000a900473ffffffffffffffffffffffffffffffffffffffff1673ffffffffffffffffffffffffffffffffffffffff163373ffffffffffffffffffffffffffffffffffffffff1614151561050657fe5b600660009054906101000a900473ffffffffffffffffffffffffffffffffffffffff1673ffffffffffffffffffffffffffffffffffffffff1663f2fde38b826040518263ffffffff167c0100000000000000000000000000000000000000000000000000000000028152600401808273ffffffffffffffffffffffffffffffffffffffff1673ffffffffffffffffffffffffffffffffffffffff168152602001915050600060405180830381600087803b15156105c257600080fd5b6102c65a03f115156105d357600080fd5b50505050565b6000809054906101000a900473ffffffffffffffffffffffffffffffffffffffff1673ffffffffffffffffffffffffffffffffffffffff163373ffffffffffffffffffffffffffffffffffffffff1614151561063157fe5b600660009054906101000a900473ffffffffffffffffffffffffffffffffffffffff1673ffffffffffffffffffffffffffffffffffffffff166379ba50976040518163ffffffff167c0100000000000000000000000000000000000000000000000000000000028152600401600060405180830381600087803b15156106b657600080fd5b6102c65a03f115156106c757600080fd5b505050565b600560009054906101000a900473ffffffffffffffffffffffffffffffffffffffff1681565b600181565b69d3c21bcecceda100000081565b600160009054906101000a900473ffffffffffffffffffffffffffffffffffffffff1673ffffffffffffffffffffffffffffffffffffffff163373ffffffffffffffffffffffffffffffffffffffff1614151561076157600080fd5b7f343765429aea5a34b3ff6a3785a98a5abb2597aca87bfbb58632c173d585373a6000809054906101000a900473ffffffffffffffffffffffffffffffffffffffff16600160009054906101000a900473ffffffffffffffffffffffffffffffffffffffff16604051808373ffffffffffffffffffffffffffffffffffffffff1673ffffffffffffffffffffffffffffffffffffffff1681526020018273ffffffffffffffffffffffffffffffffffffffff1673ffffffffffffffffffffffffffffffffffffffff1681526020019250505060405180910390a1600160009054906101000a900473ffffffffffffffffffffffffffffffffffffffff166000806101000a81548173ffffffffffffffffffffffffffffffffffffffff021916908373ffffffffffffffffffffffffffffffffffffffff1602179055506000600160006101000a81548173ffffffffffffffffffffffffffffffffffffffff021916908373ffffffffffffffffffffffffffffffffffffffff160217905550565b6000809054906101000a900473ffffffffffffffffffffffffffffffffffffffff1681565b6212750081565b60045481565b600160009054906101000a900473ffffffffffffffffffffffffffffffffffffffff1681565b60025481565b640ba43b740081565b60006001610957836064610de9565b81151561096057fe5b049050919050565b6000809054906101000a900473ffffffffffffffffffffffffffffffffffffffff1673ffffffffffffffffffffffffffffffffffffffff163373ffffffffffffffffffffffffffffffffffffffff161415156109c057fe5b8060008173ffffffffffffffffffffffffffffffffffffffff16141515156109e757600080fd5b813073ffffffffffffffffffffffffffffffffffffffff168173ffffffffffffffffffffffffffffffffffffffff1614151515610a2357600080fd5b6000809054906101000a900473ffffffffffffffffffffffffffffffffffffffff1673ffffffffffffffffffffffffffffffffffffffff168373ffffffffffffffffffffffffffffffffffffffff1614151515610a7f57600080fd5b82600160006101000a81548173ffffffffffffffffffffffffffffffffffffffff021916908373ffffffffffffffffffffffffffffffffffffffff160217905550505050565b600660009054906101000a900473ffffffffffffffffffffffffffffffffffffffff1681565b600080640ba43b74003a11151515610aff57fe5b6002544210158015610b12575060035442105b1515610b1a57fe5b69d3c21bcecceda1000000610b3160045434610e1c565b11151515610b3b57fe5b610b4434610948565b9050600560009054906101000a900473ffffffffffffffffffffffffffffffffffffffff1673ffffffffffffffffffffffffffffffffffffffff166108fc349081150290604051600060405180830381858888f193505050501515610ba857600080fd5b610bb460045434610e1c565b600481905550600660009054906101000a900473ffffffffffffffffffffffffffffffffffffffff1673ffffffffffffffffffffffffffffffffffffffff1663867904b433836040518363ffffffff167c0100000000000000000000000000000000000000000000000000000000028152600401808373ffffffffffffffffffffffffffffffffffffffff1673ffffffffffffffffffffffffffffffffffffffff16815260200182815260200192505050600060405180830381600087803b1515610c7e57600080fd5b6102c65a03f11515610c8f57600080fd5b505050600660009054906101000a900473ffffffffffffffffffffffffffffffffffffffff1673ffffffffffffffffffffffffffffffffffffffff1663867904b4600560009054906101000a900473ffffffffffffffffffffffffffffffffffffffff16836040518363ffffffff167c0100000000000000000000000000000000000000000000000000000000028152600401808373ffffffffffffffffffffffffffffffffffffffff1673ffffffffffffffffffffffffffffffffffffffff16815260200182815260200192505050600060405180830381600087803b1515610d7857600080fd5b6102c65a03f11515610d8957600080fd5b5050503373ffffffffffffffffffffffffffffffffffffffff167fb975907a1b40ddf25784959946563732fd064d1deb3b4a003ef5d88690c4ee723483604051808381526020018281526020019250505060405180910390a28091505090565b60008082840290506000841480610e0a5750828482811515610e0757fe5b04145b1515610e1257fe5b8091505092915050565b6000808284019050838110151515610e3057fe5b8091505092915050565b600080823b905060008163ffffffff16119150509190505600a165627a7a723058203387d65ecb5dd11b34ce1f6378b96603f5e585f264ab7db13b401e4de562b59f0029",
  "source": "pragma solidity ^0.4.11;\n\nimport \"./util/Utils.sol\";\nimport \"./util/Owned.sol\";\nimport \"./interfaces/ISmartToken.sol\";\n\ncontract CrowdsaleContract is Utils, Owned {\n\n    uint256 public constant CROWDSALE_DURATION = 14 days;       // crowdsale duration\n    uint256 public constant TOKEN_PRICE_N = 1;                  // price numerator\n    uint256 public constant TOKEN_PRICE_D = 100;                // price denominator\n    uint256 public constant MAX_GAS_PRICE = 50000000000 wei;    // maximum gas price for contribution transactions\n    uint256 public constant TOTAL_ETHER_CAP = 1000000 ether;    // ether contribution cap\n\n    uint256 public crowdsaleStartTime = 0;                      // crowdsale start timestamp\n    uint256 public crowdsaleEndTime = 0;                        // crowdsale end timestamp\n    uint256 public totalEtherContributed = 0;                   // ether contributed so far\n    address public beneficiary = 0x0;                           // address to receive all ether contributions\n\n    ISmartToken public token;\n\n    event ContributionEvent(address indexed _contributor, uint256 contributedAmount, uint256 tokenAmount);\n\n    function CrowdsaleContract(ISmartToken _token, uint256 _crowdsaleStartTime, address _beneficiary) public \n        notNow(_crowdsaleStartTime)\n        validAddress(_token)\n        validAddress(_beneficiary)\n    {\n        require(isContract(_token));\n        crowdsaleStartTime = _crowdsaleStartTime;\n        crowdsaleEndTime = safeAdd(crowdsaleStartTime, CROWDSALE_DURATION);\n        beneficiary = _beneficiary;\n        token = _token;\n    }\n\n    function () public payable {\n        receiveETH();\n    }\n\n    function receiveETH() public payable returns(uint256) {\n        return processTransaction();\n    }\n\n    function processTransaction() private\n        returns(uint256)\n    {\n        assert(tx.gasprice <= MAX_GAS_PRICE);\n        assert(now >= crowdsaleStartTime && now < crowdsaleEndTime);\n        assert(safeAdd(totalEtherContributed, msg.value) <= TOTAL_ETHER_CAP);\n\n        uint256 tokenAmount = calculateOutcome(msg.value);\n\n        beneficiary.transfer(msg.value);\n        totalEtherContributed = safeAdd(totalEtherContributed, msg.value);\n        token.issue(msg.sender, tokenAmount);\n        token.issue(beneficiary, tokenAmount);\n\n        ContributionEvent(msg.sender, msg.value, tokenAmount);\n        return tokenAmount;\n    }\n    \n\n    function calculateOutcome(uint256 _contribution) public pure returns (uint256) {\n        return safeMul(_contribution, TOKEN_PRICE_D) / TOKEN_PRICE_N;\n    }\n\n    function transferTokenOwnership(address _newOwner) public ownerOnly {\n        token.transferOwnership(_newOwner);\n    }\n\n    function acceptTokenOwnership() public ownerOnly {\n        token.acceptOwnership();\n    }\n\n    function isContract(address _addr) private view returns (bool) {\n        uint32 size;\n        assembly {\n            size := extcodesize(_addr)\n        }\n        return (size > 0);\n    }\n\n}",
  "sourcePath": "/home/therasymchuk/Workspace/github/CDM-Token-Contracts/solidity/contracts/CrowdsaleContract.sol",
  "compiler": {
    "name": "solc",
    "version": "0.4.19+commit.c4cbbb05.Emscripten.clang"
  },
  "schemaVersion": "1.0.1",
  "updatedAt": "2018-02-20T13:50:23.648Z"
}