{
  "contractName": "CrowdsaleContract",
  "abi": [
    {
      "constant": true,
      "inputs": [],
      "name": "TOKEN_PRICE_D",
      "outputs": [
        {
          "name": "",
          "type": "uint256"
        }
      ],
      "payable": false,
      "stateMutability": "view",
      "type": "function"
    },
    {
      "constant": true,
      "inputs": [],
      "name": "crowdsaleEndTime",
      "outputs": [
        {
          "name": "",
          "type": "uint256"
        }
      ],
      "payable": false,
      "stateMutability": "view",
      "type": "function"
    },
    {
      "constant": true,
      "inputs": [],
      "name": "totalEtherCap",
      "outputs": [
        {
          "name": "",
          "type": "uint256"
        }
      ],
      "payable": false,
      "stateMutability": "view",
      "type": "function"
    },
    {
      "constant": true,
      "inputs": [],
      "name": "beneficiary",
      "outputs": [
        {
          "name": "",
          "type": "address"
        }
      ],
      "payable": false,
      "stateMutability": "view",
      "type": "function"
    },
    {
      "constant": true,
      "inputs": [],
      "name": "TOKEN_PRICE_N",
      "outputs": [
        {
          "name": "",
          "type": "uint256"
        }
      ],
      "payable": false,
      "stateMutability": "view",
      "type": "function"
    },
    {
      "constant": false,
      "inputs": [],
      "name": "acceptOwnership",
      "outputs": [],
      "payable": false,
      "stateMutability": "nonpayable",
      "type": "function"
    },
    {
      "constant": true,
      "inputs": [],
      "name": "owner",
      "outputs": [
        {
          "name": "",
          "type": "address"
        }
      ],
      "payable": false,
      "stateMutability": "view",
      "type": "function"
    },
    {
      "constant": true,
      "inputs": [],
      "name": "CROWDSALE_DURATION",
      "outputs": [
        {
          "name": "",
          "type": "uint256"
        }
      ],
      "payable": false,
      "stateMutability": "view",
      "type": "function"
    },
    {
      "constant": true,
      "inputs": [],
      "name": "totalEtherContributed",
      "outputs": [
        {
          "name": "",
          "type": "uint256"
        }
      ],
      "payable": false,
      "stateMutability": "view",
      "type": "function"
    },
    {
      "constant": true,
      "inputs": [],
      "name": "newOwner",
      "outputs": [
        {
          "name": "",
          "type": "address"
        }
      ],
      "payable": false,
      "stateMutability": "view",
      "type": "function"
    },
    {
      "constant": true,
      "inputs": [],
      "name": "crowdsaleStartTime",
      "outputs": [
        {
          "name": "",
          "type": "uint256"
        }
      ],
      "payable": false,
      "stateMutability": "view",
      "type": "function"
    },
    {
      "constant": true,
      "inputs": [],
      "name": "MAX_GAS_PRICE",
      "outputs": [
        {
          "name": "",
          "type": "uint256"
        }
      ],
      "payable": false,
      "stateMutability": "view",
      "type": "function"
    },
    {
      "constant": false,
      "inputs": [
        {
          "name": "_newOwner",
          "type": "address"
        }
      ],
      "name": "transferOwnership",
      "outputs": [],
      "payable": false,
      "stateMutability": "nonpayable",
      "type": "function"
    },
    {
      "constant": true,
      "inputs": [],
      "name": "token",
      "outputs": [
        {
          "name": "",
          "type": "address"
        }
      ],
      "payable": false,
      "stateMutability": "view",
      "type": "function"
    },
    {
      "inputs": [
        {
          "name": "_token",
          "type": "address"
        },
        {
          "name": "_crowdsaleStartTime",
          "type": "uint256"
        },
        {
          "name": "_beneficiary",
          "type": "address"
        }
      ],
      "payable": false,
      "stateMutability": "nonpayable",
      "type": "constructor"
    },
    {
      "payable": true,
      "stateMutability": "payable",
      "type": "fallback"
    },
    {
      "anonymous": false,
      "inputs": [
        {
          "indexed": true,
          "name": "_contributor",
          "type": "address"
        },
        {
          "indexed": false,
          "name": "contributedAmount",
          "type": "uint256"
        },
        {
          "indexed": false,
          "name": "tokenAmount",
          "type": "uint256"
        }
      ],
      "name": "ContributionEvent",
      "type": "event"
    },
    {
      "anonymous": false,
      "inputs": [
        {
          "indexed": false,
          "name": "_prevOwner",
          "type": "address"
        },
        {
          "indexed": false,
          "name": "_newOwner",
          "type": "address"
        }
      ],
      "name": "OwnerUpdate",
      "type": "event"
    },
    {
      "constant": true,
      "inputs": [
        {
          "name": "_contribution",
          "type": "uint256"
        }
      ],
      "name": "calculateOutcome",
      "outputs": [
        {
          "name": "",
          "type": "uint256"
        }
      ],
      "payable": false,
      "stateMutability": "pure",
      "type": "function"
    },
    {
      "constant": false,
      "inputs": [
        {
          "name": "_newOwner",
          "type": "address"
        }
      ],
      "name": "transferTokenOwnership",
      "outputs": [],
      "payable": false,
      "stateMutability": "nonpayable",
      "type": "function"
    },
    {
      "constant": false,
      "inputs": [],
      "name": "acceptTokenOwnership",
      "outputs": [],
      "payable": false,
      "stateMutability": "nonpayable",
      "type": "function"
    }
  ],
  "bytecode": "0x60606040526000600255600060035569d3c21bcecceda100000060045560006005556000600660006101000a81548173ffffffffffffffffffffffffffffffffffffffff021916908373ffffffffffffffffffffffffffffffffffffffff160217905550341561006e57600080fd5b60405160608061101883398101604052808051906020019091908051906020019091908051906020019091905050336000806101000a81548173ffffffffffffffffffffffffffffffffffffffff021916908373ffffffffffffffffffffffffffffffffffffffff1602179055508180421015156100eb57600080fd5b8360008173ffffffffffffffffffffffffffffffffffffffff161415151561011257600080fd5b8260008173ffffffffffffffffffffffffffffffffffffffff161415151561013957600080fd5b833073ffffffffffffffffffffffffffffffffffffffff168173ffffffffffffffffffffffffffffffffffffffff161415151561017557600080fd5b8560028190555061019e6002546212750061023264010000000002610d3c176401000000009004565b60038190555084600660006101000a81548173ffffffffffffffffffffffffffffffffffffffff021916908373ffffffffffffffffffffffffffffffffffffffff16021790555086600760006101000a81548173ffffffffffffffffffffffffffffffffffffffff021916908373ffffffffffffffffffffffffffffffffffffffff16021790555050505050505050610250565b600080828401905083811015151561024657fe5b8091505092915050565b610db98061025f6000396000f3006060604052600436106100f1576000357c0100000000000000000000000000000000000000000000000000000000900463ffffffff1680630d2806ad146100fc5780631d545d091461012557806321e6b53d1461014e57806334971dd61461018757806338a5e016146101b057806338af3eed146101c557806345cfad3e1461021a57806379ba5097146102435780638da5cb5b14610258578063ad3c0b9d146102ad578063b591fc69146102d6578063d4ee1d90146102ff578063e2fc421d14610354578063e3bbb4f11461037d578063ec4ddce3146103a6578063f2fde38b146103dd578063fc0c546a14610416575b6100f961046b565b50005b341561010757600080fd5b61010f610761565b6040518082815260200191505060405180910390f35b341561013057600080fd5b610138610766565b6040518082815260200191505060405180910390f35b341561015957600080fd5b610185600480803573ffffffffffffffffffffffffffffffffffffffff1690602001909190505061076c565b005b341561019257600080fd5b61019a610897565b6040518082815260200191505060405180910390f35b34156101bb57600080fd5b6101c361089d565b005b34156101d057600080fd5b6101d8610990565b604051808273ffffffffffffffffffffffffffffffffffffffff1673ffffffffffffffffffffffffffffffffffffffff16815260200191505060405180910390f35b341561022557600080fd5b61022d6109b6565b6040518082815260200191505060405180910390f35b341561024e57600080fd5b6102566109bb565b005b341561026357600080fd5b61026b610b97565b604051808273ffffffffffffffffffffffffffffffffffffffff1673ffffffffffffffffffffffffffffffffffffffff16815260200191505060405180910390f35b34156102b857600080fd5b6102c0610bbc565b6040518082815260200191505060405180910390f35b34156102e157600080fd5b6102e9610bc3565b6040518082815260200191505060405180910390f35b341561030a57600080fd5b610312610bc9565b604051808273ffffffffffffffffffffffffffffffffffffffff1673ffffffffffffffffffffffffffffffffffffffff16815260200191505060405180910390f35b341561035f57600080fd5b610367610bef565b6040518082815260200191505060405180910390f35b341561038857600080fd5b610390610bf5565b6040518082815260200191505060405180910390f35b34156103b157600080fd5b6103c76004808035906020019091905050610bfe565b6040518082815260200191505060405180910390f35b34156103e857600080fd5b610414600480803573ffffffffffffffffffffffffffffffffffffffff16906020019091905050610c1e565b005b341561042157600080fd5b610429610d16565b604051808273ffffffffffffffffffffffffffffffffffffffff1673ffffffffffffffffffffffffffffffffffffffff16815260200191505060405180910390f35b600080640ba43b74003a1115151561047f57fe5b6002544210158015610492575060035442105b151561049a57fe5b6004546104a960055434610d3c565b111515156104b357fe5b6104bc34610bfe565b9050600660009054906101000a900473ffffffffffffffffffffffffffffffffffffffff1673ffffffffffffffffffffffffffffffffffffffff166108fc349081150290604051600060405180830381858888f19350505050151561052057600080fd5b61052c60055434610d3c565b600581905550600760009054906101000a900473ffffffffffffffffffffffffffffffffffffffff1673ffffffffffffffffffffffffffffffffffffffff1663867904b433836040518363ffffffff167c0100000000000000000000000000000000000000000000000000000000028152600401808373ffffffffffffffffffffffffffffffffffffffff1673ffffffffffffffffffffffffffffffffffffffff16815260200182815260200192505050600060405180830381600087803b15156105f657600080fd5b6102c65a03f1151561060757600080fd5b505050600760009054906101000a900473ffffffffffffffffffffffffffffffffffffffff1673ffffffffffffffffffffffffffffffffffffffff1663867904b4600660009054906101000a900473ffffffffffffffffffffffffffffffffffffffff16836040518363ffffffff167c0100000000000000000000000000000000000000000000000000000000028152600401808373ffffffffffffffffffffffffffffffffffffffff1673ffffffffffffffffffffffffffffffffffffffff16815260200182815260200192505050600060405180830381600087803b15156106f057600080fd5b6102c65a03f1151561070157600080fd5b5050503373ffffffffffffffffffffffffffffffffffffffff167fb975907a1b40ddf25784959946563732fd064d1deb3b4a003ef5d88690c4ee723483604051808381526020018281526020019250505060405180910390a28091505090565b606481565b60035481565b6000809054906101000a900473ffffffffffffffffffffffffffffffffffffffff1673ffffffffffffffffffffffffffffffffffffffff163373ffffffffffffffffffffffffffffffffffffffff161415156107c457fe5b600760009054906101000a900473ffffffffffffffffffffffffffffffffffffffff1673ffffffffffffffffffffffffffffffffffffffff1663f2fde38b826040518263ffffffff167c0100000000000000000000000000000000000000000000000000000000028152600401808273ffffffffffffffffffffffffffffffffffffffff1673ffffffffffffffffffffffffffffffffffffffff168152602001915050600060405180830381600087803b151561088057600080fd5b6102c65a03f1151561089157600080fd5b50505050565b60045481565b6000809054906101000a900473ffffffffffffffffffffffffffffffffffffffff1673ffffffffffffffffffffffffffffffffffffffff163373ffffffffffffffffffffffffffffffffffffffff161415156108f557fe5b600760009054906101000a900473ffffffffffffffffffffffffffffffffffffffff1673ffffffffffffffffffffffffffffffffffffffff166379ba50976040518163ffffffff167c0100000000000000000000000000000000000000000000000000000000028152600401600060405180830381600087803b151561097a57600080fd5b6102c65a03f1151561098b57600080fd5b505050565b600660009054906101000a900473ffffffffffffffffffffffffffffffffffffffff1681565b600181565b600160009054906101000a900473ffffffffffffffffffffffffffffffffffffffff1673ffffffffffffffffffffffffffffffffffffffff163373ffffffffffffffffffffffffffffffffffffffff16141515610a1757600080fd5b7f343765429aea5a34b3ff6a3785a98a5abb2597aca87bfbb58632c173d585373a6000809054906101000a900473ffffffffffffffffffffffffffffffffffffffff16600160009054906101000a900473ffffffffffffffffffffffffffffffffffffffff16604051808373ffffffffffffffffffffffffffffffffffffffff1673ffffffffffffffffffffffffffffffffffffffff1681526020018273ffffffffffffffffffffffffffffffffffffffff1673ffffffffffffffffffffffffffffffffffffffff1681526020019250505060405180910390a1600160009054906101000a900473ffffffffffffffffffffffffffffffffffffffff166000806101000a81548173ffffffffffffffffffffffffffffffffffffffff021916908373ffffffffffffffffffffffffffffffffffffffff1602179055506000600160006101000a81548173ffffffffffffffffffffffffffffffffffffffff021916908373ffffffffffffffffffffffffffffffffffffffff160217905550565b6000809054906101000a900473ffffffffffffffffffffffffffffffffffffffff1681565b6212750081565b60055481565b600160009054906101000a900473ffffffffffffffffffffffffffffffffffffffff1681565b60025481565b640ba43b740081565b60006001610c0d836064610d5a565b811515610c1657fe5b049050919050565b6000809054906101000a900473ffffffffffffffffffffffffffffffffffffffff1673ffffffffffffffffffffffffffffffffffffffff163373ffffffffffffffffffffffffffffffffffffffff16141515610c7657fe5b6000809054906101000a900473ffffffffffffffffffffffffffffffffffffffff1673ffffffffffffffffffffffffffffffffffffffff168173ffffffffffffffffffffffffffffffffffffffff1614151515610cd257600080fd5b80600160006101000a81548173ffffffffffffffffffffffffffffffffffffffff021916908373ffffffffffffffffffffffffffffffffffffffff16021790555050565b600760009054906101000a900473ffffffffffffffffffffffffffffffffffffffff1681565b6000808284019050838110151515610d5057fe5b8091505092915050565b60008082840290506000841480610d7b5750828482811515610d7857fe5b04145b1515610d8357fe5b80915050929150505600a165627a7a723058200e8b323df422f0ace614add35e49031a1169207e3c0203c78f747f60ba5a8bbb0029",
  "source": "pragma solidity ^0.4.11;\n\nimport \"./util/Utils.sol\";\nimport \"./util/Owned.sol\";\nimport \"./interfaces/ISmartToken.sol\";\n\ncontract CrowdsaleContract is Utils, Owned {\n\n    uint256 public constant CROWDSALE_DURATION = 14 days;       // crowdsale duration\n    uint256 public constant TOKEN_PRICE_N = 1;                  // initial price in wei (numerator)\n    uint256 public constant TOKEN_PRICE_D = 100;                // initial price in wei (denominator)\n    uint256 public constant MAX_GAS_PRICE = 50000000000 wei;    // maximum gas price for contribution transactions\n\n    uint256 public crowdsaleStartTime = 0;                  // crowdsale start time (in seconds)\n    uint256 public crowdsaleEndTime = 0;                    // crowdsale end time (in seconds)\n    uint256 public totalEtherCap = 1000000 ether;           // current ether contribution cap, initialized with a temp value as a safety mechanism until the real cap is revealed\n    uint256 public totalEtherContributed = 0;               // ether contributed so far\n    address public beneficiary = 0x0;                       // address to receive all ether contributions\n\n    ISmartToken public token;\n\n    event ContributionEvent(address indexed _contributor, uint256 contributedAmount, uint256 tokenAmount);\n\n    function CrowdsaleContract(ISmartToken _token, uint256 _crowdsaleStartTime, address _beneficiary) public \n        notNow(_crowdsaleStartTime)\n        validAddress(_token)\n        validAddress(_beneficiary)\n        notThis(_beneficiary)\n    {\n        crowdsaleStartTime = _crowdsaleStartTime;\n        crowdsaleEndTime = safeAdd(crowdsaleStartTime, CROWDSALE_DURATION);\n        beneficiary = _beneficiary;\n        token = _token;\n    }\n\n    function () public payable {\n        receiveETH();\n    }\n\n    function receiveETH() private\n        returns(uint256)\n    {\n        assert(tx.gasprice <= MAX_GAS_PRICE);\n        assert(now >= crowdsaleStartTime && now < crowdsaleEndTime);\n        assert(safeAdd(totalEtherContributed, msg.value) <= totalEtherCap);\n\n        uint256 tokenAmount = calculateOutcome(msg.value);\n\n        beneficiary.transfer(msg.value); // transfer the ether to the beneficiary account\n        totalEtherContributed = safeAdd(totalEtherContributed, msg.value); // update the total contribution amount\n        token.issue(msg.sender, tokenAmount); // issue new funds to the contributor in the smart token\n        token.issue(beneficiary, tokenAmount); // issue tokens to the beneficiary\n\n        ContributionEvent(msg.sender, msg.value, tokenAmount);\n        return tokenAmount;\n    }\n\n    function calculateOutcome(uint256 _contribution) public pure returns (uint256) {\n        return safeMul(_contribution, TOKEN_PRICE_D) / TOKEN_PRICE_N;\n    }\n\n    function transferTokenOwnership(address _newOwner) public ownerOnly {\n        token.transferOwnership(_newOwner);\n    }\n\n    function acceptTokenOwnership() public ownerOnly {\n        token.acceptOwnership();\n    }\n\n}",
  "sourcePath": "/home/taras/Workspace/vscode/cdm-token/solidity/contracts/CrowdsaleContract.sol",
  "compiler": {
    "name": "solc",
    "version": "0.4.19+commit.c4cbbb05.Emscripten.clang"
  },
  "schemaVersion": "1.0.1",
  "updatedAt": "2018-02-02T11:37:40.363Z"
}