{
  "contractName": "CrowdsaleContract",
  "abi": [
    {
      "constant": true,
      "inputs": [],
      "name": "TOKEN_PRICE_D",
      "outputs": [
        {
          "name": "",
          "type": "uint256"
        }
      ],
      "payable": false,
      "stateMutability": "view",
      "type": "function"
    },
    {
      "constant": true,
      "inputs": [],
      "name": "crowdsaleEndTime",
      "outputs": [
        {
          "name": "",
          "type": "uint256"
        }
      ],
      "payable": false,
      "stateMutability": "view",
      "type": "function"
    },
    {
      "constant": false,
      "inputs": [
        {
          "name": "_newOwner",
          "type": "address"
        }
      ],
      "name": "transferTokenOwnership",
      "outputs": [],
      "payable": false,
      "stateMutability": "nonpayable",
      "type": "function"
    },
    {
      "constant": false,
      "inputs": [],
      "name": "acceptTokenOwnership",
      "outputs": [],
      "payable": false,
      "stateMutability": "nonpayable",
      "type": "function"
    },
    {
      "constant": true,
      "inputs": [],
      "name": "beneficiary",
      "outputs": [
        {
          "name": "",
          "type": "address"
        }
      ],
      "payable": false,
      "stateMutability": "view",
      "type": "function"
    },
    {
      "constant": true,
      "inputs": [],
      "name": "TOKEN_PRICE_N",
      "outputs": [
        {
          "name": "",
          "type": "uint256"
        }
      ],
      "payable": false,
      "stateMutability": "view",
      "type": "function"
    },
    {
      "constant": true,
      "inputs": [],
      "name": "TOTAL_ETHER_CAP",
      "outputs": [
        {
          "name": "",
          "type": "uint256"
        }
      ],
      "payable": false,
      "stateMutability": "view",
      "type": "function"
    },
    {
      "constant": false,
      "inputs": [],
      "name": "acceptOwnership",
      "outputs": [],
      "payable": false,
      "stateMutability": "nonpayable",
      "type": "function"
    },
    {
      "constant": true,
      "inputs": [],
      "name": "owner",
      "outputs": [
        {
          "name": "",
          "type": "address"
        }
      ],
      "payable": false,
      "stateMutability": "view",
      "type": "function"
    },
    {
      "constant": true,
      "inputs": [],
      "name": "CROWDSALE_DURATION",
      "outputs": [
        {
          "name": "",
          "type": "uint256"
        }
      ],
      "payable": false,
      "stateMutability": "view",
      "type": "function"
    },
    {
      "constant": true,
      "inputs": [],
      "name": "totalEtherContributed",
      "outputs": [
        {
          "name": "",
          "type": "uint256"
        }
      ],
      "payable": false,
      "stateMutability": "view",
      "type": "function"
    },
    {
      "constant": true,
      "inputs": [],
      "name": "newOwner",
      "outputs": [
        {
          "name": "",
          "type": "address"
        }
      ],
      "payable": false,
      "stateMutability": "view",
      "type": "function"
    },
    {
      "constant": true,
      "inputs": [],
      "name": "crowdsaleStartTime",
      "outputs": [
        {
          "name": "",
          "type": "uint256"
        }
      ],
      "payable": false,
      "stateMutability": "view",
      "type": "function"
    },
    {
      "constant": true,
      "inputs": [],
      "name": "MAX_GAS_PRICE",
      "outputs": [
        {
          "name": "",
          "type": "uint256"
        }
      ],
      "payable": false,
      "stateMutability": "view",
      "type": "function"
    },
    {
      "constant": true,
      "inputs": [
        {
          "name": "_contribution",
          "type": "uint256"
        }
      ],
      "name": "calculateOutcome",
      "outputs": [
        {
          "name": "",
          "type": "uint256"
        }
      ],
      "payable": false,
      "stateMutability": "pure",
      "type": "function"
    },
    {
      "constant": false,
      "inputs": [
        {
          "name": "_newOwner",
          "type": "address"
        }
      ],
      "name": "transferOwnership",
      "outputs": [],
      "payable": false,
      "stateMutability": "nonpayable",
      "type": "function"
    },
    {
      "constant": true,
      "inputs": [],
      "name": "token",
      "outputs": [
        {
          "name": "",
          "type": "address"
        }
      ],
      "payable": false,
      "stateMutability": "view",
      "type": "function"
    },
    {
      "inputs": [
        {
          "name": "_token",
          "type": "address"
        },
        {
          "name": "_crowdsaleStartTime",
          "type": "uint256"
        },
        {
          "name": "_beneficiary",
          "type": "address"
        }
      ],
      "payable": false,
      "stateMutability": "nonpayable",
      "type": "constructor"
    },
    {
      "payable": true,
      "stateMutability": "payable",
      "type": "fallback"
    },
    {
      "anonymous": false,
      "inputs": [
        {
          "indexed": true,
          "name": "_contributor",
          "type": "address"
        },
        {
          "indexed": false,
          "name": "contributedAmount",
          "type": "uint256"
        },
        {
          "indexed": false,
          "name": "tokenAmount",
          "type": "uint256"
        }
      ],
      "name": "ContributionEvent",
      "type": "event"
    },
    {
      "anonymous": false,
      "inputs": [
        {
          "indexed": false,
          "name": "_prevOwner",
          "type": "address"
        },
        {
          "indexed": false,
          "name": "_newOwner",
          "type": "address"
        }
      ],
      "name": "OwnerUpdate",
      "type": "event"
    }
  ],
  "bytecode": "0x60606040526000600255600060035560006004556000600560006101000a81548173ffffffffffffffffffffffffffffffffffffffff021916908373ffffffffffffffffffffffffffffffffffffffff160217905550341561006057600080fd5b60405160608061107f83398101604052808051906020019091908051906020019091908051906020019091905050336000806101000a81548173ffffffffffffffffffffffffffffffffffffffff021916908373ffffffffffffffffffffffffffffffffffffffff1602179055508180421015156100dd57600080fd5b8360008173ffffffffffffffffffffffffffffffffffffffff161415151561010457600080fd5b8260008173ffffffffffffffffffffffffffffffffffffffff161415151561012b57600080fd5b833073ffffffffffffffffffffffffffffffffffffffff168173ffffffffffffffffffffffffffffffffffffffff161415151561016757600080fd5b856002819055506101906002546212750061022464010000000002610db1176401000000009004565b60038190555084600560006101000a81548173ffffffffffffffffffffffffffffffffffffffff021916908373ffffffffffffffffffffffffffffffffffffffff16021790555086600660006101000a81548173ffffffffffffffffffffffffffffffffffffffff021916908373ffffffffffffffffffffffffffffffffffffffff16021790555050505050505050610242565b600080828401905083811015151561023857fe5b8091505092915050565b610e2e806102516000396000f3006060604052600436106100f1576000357c0100000000000000000000000000000000000000000000000000000000900463ffffffff1680630d2806ad146100fc5780631d545d091461012557806321e6b53d1461014e57806338a5e0161461018757806338af3eed1461019c57806345cfad3e146101f15780636a72a4d71461021a57806379ba5097146102435780638da5cb5b14610258578063ad3c0b9d146102ad578063b591fc69146102d6578063d4ee1d90146102ff578063e2fc421d14610354578063e3bbb4f11461037d578063ec4ddce3146103a6578063f2fde38b146103dd578063fc0c546a14610416575b6100f961046b565b50005b341561010757600080fd5b61010f610769565b6040518082815260200191505060405180910390f35b341561013057600080fd5b61013861076e565b6040518082815260200191505060405180910390f35b341561015957600080fd5b610185600480803573ffffffffffffffffffffffffffffffffffffffff16906020019091905050610774565b005b341561019257600080fd5b61019a61089f565b005b34156101a757600080fd5b6101af610992565b604051808273ffffffffffffffffffffffffffffffffffffffff1673ffffffffffffffffffffffffffffffffffffffff16815260200191505060405180910390f35b34156101fc57600080fd5b6102046109b8565b6040518082815260200191505060405180910390f35b341561022557600080fd5b61022d6109bd565b6040518082815260200191505060405180910390f35b341561024e57600080fd5b6102566109cb565b005b341561026357600080fd5b61026b610ba7565b604051808273ffffffffffffffffffffffffffffffffffffffff1673ffffffffffffffffffffffffffffffffffffffff16815260200191505060405180910390f35b34156102b857600080fd5b6102c0610bcc565b6040518082815260200191505060405180910390f35b34156102e157600080fd5b6102e9610bd3565b6040518082815260200191505060405180910390f35b341561030a57600080fd5b610312610bd9565b604051808273ffffffffffffffffffffffffffffffffffffffff1673ffffffffffffffffffffffffffffffffffffffff16815260200191505060405180910390f35b341561035f57600080fd5b610367610bff565b6040518082815260200191505060405180910390f35b341561038857600080fd5b610390610c05565b6040518082815260200191505060405180910390f35b34156103b157600080fd5b6103c76004808035906020019091905050610c0e565b6040518082815260200191505060405180910390f35b34156103e857600080fd5b610414600480803573ffffffffffffffffffffffffffffffffffffffff16906020019091905050610c2e565b005b341561042157600080fd5b610429610d8b565b604051808273ffffffffffffffffffffffffffffffffffffffff1673ffffffffffffffffffffffffffffffffffffffff16815260200191505060405180910390f35b600080640ba43b74003a1115151561047f57fe5b6002544210158015610492575060035442105b151561049a57fe5b69d3c21bcecceda10000006104b160045434610db1565b111515156104bb57fe5b6104c434610c0e565b9050600560009054906101000a900473ffffffffffffffffffffffffffffffffffffffff1673ffffffffffffffffffffffffffffffffffffffff166108fc349081150290604051600060405180830381858888f19350505050151561052857600080fd5b61053460045434610db1565b600481905550600660009054906101000a900473ffffffffffffffffffffffffffffffffffffffff1673ffffffffffffffffffffffffffffffffffffffff1663867904b433836040518363ffffffff167c0100000000000000000000000000000000000000000000000000000000028152600401808373ffffffffffffffffffffffffffffffffffffffff1673ffffffffffffffffffffffffffffffffffffffff16815260200182815260200192505050600060405180830381600087803b15156105fe57600080fd5b6102c65a03f1151561060f57600080fd5b505050600660009054906101000a900473ffffffffffffffffffffffffffffffffffffffff1673ffffffffffffffffffffffffffffffffffffffff1663867904b4600560009054906101000a900473ffffffffffffffffffffffffffffffffffffffff16836040518363ffffffff167c0100000000000000000000000000000000000000000000000000000000028152600401808373ffffffffffffffffffffffffffffffffffffffff1673ffffffffffffffffffffffffffffffffffffffff16815260200182815260200192505050600060405180830381600087803b15156106f857600080fd5b6102c65a03f1151561070957600080fd5b5050503373ffffffffffffffffffffffffffffffffffffffff167fb975907a1b40ddf25784959946563732fd064d1deb3b4a003ef5d88690c4ee723483604051808381526020018281526020019250505060405180910390a28091505090565b606481565b60035481565b6000809054906101000a900473ffffffffffffffffffffffffffffffffffffffff1673ffffffffffffffffffffffffffffffffffffffff163373ffffffffffffffffffffffffffffffffffffffff161415156107cc57fe5b600660009054906101000a900473ffffffffffffffffffffffffffffffffffffffff1673ffffffffffffffffffffffffffffffffffffffff1663f2fde38b826040518263ffffffff167c0100000000000000000000000000000000000000000000000000000000028152600401808273ffffffffffffffffffffffffffffffffffffffff1673ffffffffffffffffffffffffffffffffffffffff168152602001915050600060405180830381600087803b151561088857600080fd5b6102c65a03f1151561089957600080fd5b50505050565b6000809054906101000a900473ffffffffffffffffffffffffffffffffffffffff1673ffffffffffffffffffffffffffffffffffffffff163373ffffffffffffffffffffffffffffffffffffffff161415156108f757fe5b600660009054906101000a900473ffffffffffffffffffffffffffffffffffffffff1673ffffffffffffffffffffffffffffffffffffffff166379ba50976040518163ffffffff167c0100000000000000000000000000000000000000000000000000000000028152600401600060405180830381600087803b151561097c57600080fd5b6102c65a03f1151561098d57600080fd5b505050565b600560009054906101000a900473ffffffffffffffffffffffffffffffffffffffff1681565b600181565b69d3c21bcecceda100000081565b600160009054906101000a900473ffffffffffffffffffffffffffffffffffffffff1673ffffffffffffffffffffffffffffffffffffffff163373ffffffffffffffffffffffffffffffffffffffff16141515610a2757600080fd5b7f343765429aea5a34b3ff6a3785a98a5abb2597aca87bfbb58632c173d585373a6000809054906101000a900473ffffffffffffffffffffffffffffffffffffffff16600160009054906101000a900473ffffffffffffffffffffffffffffffffffffffff16604051808373ffffffffffffffffffffffffffffffffffffffff1673ffffffffffffffffffffffffffffffffffffffff1681526020018273ffffffffffffffffffffffffffffffffffffffff1673ffffffffffffffffffffffffffffffffffffffff1681526020019250505060405180910390a1600160009054906101000a900473ffffffffffffffffffffffffffffffffffffffff166000806101000a81548173ffffffffffffffffffffffffffffffffffffffff021916908373ffffffffffffffffffffffffffffffffffffffff1602179055506000600160006101000a81548173ffffffffffffffffffffffffffffffffffffffff021916908373ffffffffffffffffffffffffffffffffffffffff160217905550565b6000809054906101000a900473ffffffffffffffffffffffffffffffffffffffff1681565b6212750081565b60045481565b600160009054906101000a900473ffffffffffffffffffffffffffffffffffffffff1681565b60025481565b640ba43b740081565b60006001610c1d836064610dcf565b811515610c2657fe5b049050919050565b6000809054906101000a900473ffffffffffffffffffffffffffffffffffffffff1673ffffffffffffffffffffffffffffffffffffffff163373ffffffffffffffffffffffffffffffffffffffff16141515610c8657fe5b8060008173ffffffffffffffffffffffffffffffffffffffff1614151515610cad57600080fd5b813073ffffffffffffffffffffffffffffffffffffffff168173ffffffffffffffffffffffffffffffffffffffff1614151515610ce957600080fd5b6000809054906101000a900473ffffffffffffffffffffffffffffffffffffffff1673ffffffffffffffffffffffffffffffffffffffff168373ffffffffffffffffffffffffffffffffffffffff1614151515610d4557600080fd5b82600160006101000a81548173ffffffffffffffffffffffffffffffffffffffff021916908373ffffffffffffffffffffffffffffffffffffffff160217905550505050565b600660009054906101000a900473ffffffffffffffffffffffffffffffffffffffff1681565b6000808284019050838110151515610dc557fe5b8091505092915050565b60008082840290506000841480610df05750828482811515610ded57fe5b04145b1515610df857fe5b80915050929150505600a165627a7a7230582011eea80cfc2bfc3def127505c2ff27bc6ab27113a3b8fd1317381a97328b373a0029",
  "source": "pragma solidity ^0.4.11;\n\nimport \"./util/Utils.sol\";\nimport \"./util/Owned.sol\";\nimport \"./interfaces/ISmartToken.sol\";\n\ncontract CrowdsaleContract is Utils, Owned {\n\n    uint256 public constant CROWDSALE_DURATION = 14 days;       // crowdsale duration\n    uint256 public constant TOKEN_PRICE_N = 1;                  // price numerator\n    uint256 public constant TOKEN_PRICE_D = 100;                // price denominator\n    uint256 public constant MAX_GAS_PRICE = 50000000000 wei;    // maximum gas price for contribution transactions\n    uint256 public constant TOTAL_ETHER_CAP = 1000000 ether;    // ether contribution cap\n\n    uint256 public crowdsaleStartTime = 0;                      // crowdsale start timestamp\n    uint256 public crowdsaleEndTime = 0;                        // crowdsale end timestamp\n    uint256 public totalEtherContributed = 0;                   // ether contributed so far\n    address public beneficiary = 0x0;                           // address to receive all ether contributions\n\n    ISmartToken public token;\n\n    event ContributionEvent(address indexed _contributor, uint256 contributedAmount, uint256 tokenAmount);\n\n    function CrowdsaleContract(ISmartToken _token, uint256 _crowdsaleStartTime, address _beneficiary) public \n        notNow(_crowdsaleStartTime)\n        validAddress(_token)\n        validAddress(_beneficiary)\n        notThis(_beneficiary)\n    {\n        crowdsaleStartTime = _crowdsaleStartTime;\n        crowdsaleEndTime = safeAdd(crowdsaleStartTime, CROWDSALE_DURATION);\n        beneficiary = _beneficiary;\n        token = _token;\n    }\n\n    function () public payable {\n        receiveETH();\n    }\n\n    function receiveETH() private\n        returns(uint256)\n    {\n        assert(tx.gasprice <= MAX_GAS_PRICE);\n        assert(now >= crowdsaleStartTime && now < crowdsaleEndTime);\n        assert(safeAdd(totalEtherContributed, msg.value) <= TOTAL_ETHER_CAP);\n\n        uint256 tokenAmount = calculateOutcome(msg.value);\n\n        beneficiary.transfer(msg.value);\n        totalEtherContributed = safeAdd(totalEtherContributed, msg.value);\n        token.issue(msg.sender, tokenAmount);\n        token.issue(beneficiary, tokenAmount);\n\n        ContributionEvent(msg.sender, msg.value, tokenAmount);\n        return tokenAmount;\n    }\n\n    function calculateOutcome(uint256 _contribution) public pure returns (uint256) {\n        return safeMul(_contribution, TOKEN_PRICE_D) / TOKEN_PRICE_N;\n    }\n\n    function transferTokenOwnership(address _newOwner) public ownerOnly {\n        token.transferOwnership(_newOwner);\n    }\n\n    function acceptTokenOwnership() public ownerOnly {\n        token.acceptOwnership();\n    }\n\n}",
  "sourcePath": "/home/therasymchuk/Workspace/github/CDM-Token-Contracts/solidity/contracts/CrowdsaleContract.sol",
  "compiler": {
    "name": "solc",
    "version": "0.4.18+commit.9cf6e910.Emscripten.clang"
  },
  "schemaVersion": "1.0.1",
  "updatedAt": "2018-02-06T13:27:08.960Z"
}