{
  "contractName": "MultisigWalletAdapter",
  "abi": [
    {
      "constant": false,
      "inputs": [],
      "name": "acceptOwnership",
      "outputs": [],
      "payable": false,
      "stateMutability": "nonpayable",
      "type": "function"
    },
    {
      "constant": true,
      "inputs": [],
      "name": "owner",
      "outputs": [
        {
          "name": "",
          "type": "address"
        }
      ],
      "payable": false,
      "stateMutability": "view",
      "type": "function"
    },
    {
      "constant": true,
      "inputs": [],
      "name": "multisigWallet",
      "outputs": [
        {
          "name": "",
          "type": "address"
        }
      ],
      "payable": false,
      "stateMutability": "view",
      "type": "function"
    },
    {
      "constant": true,
      "inputs": [],
      "name": "newOwner",
      "outputs": [
        {
          "name": "",
          "type": "address"
        }
      ],
      "payable": false,
      "stateMutability": "view",
      "type": "function"
    },
    {
      "constant": false,
      "inputs": [
        {
          "name": "_newOwner",
          "type": "address"
        }
      ],
      "name": "transferOwnership",
      "outputs": [],
      "payable": false,
      "stateMutability": "nonpayable",
      "type": "function"
    },
    {
      "inputs": [
        {
          "name": "_multisigWallet",
          "type": "address"
        }
      ],
      "payable": false,
      "stateMutability": "nonpayable",
      "type": "constructor"
    },
    {
      "anonymous": false,
      "inputs": [
        {
          "indexed": true,
          "name": "_token",
          "type": "address"
        },
        {
          "indexed": true,
          "name": "_recipient",
          "type": "address"
        },
        {
          "indexed": false,
          "name": "_amount",
          "type": "uint256"
        },
        {
          "indexed": false,
          "name": "_transactionId",
          "type": "uint256"
        }
      ],
      "name": "SendMultisigTransaction",
      "type": "event"
    },
    {
      "anonymous": false,
      "inputs": [
        {
          "indexed": false,
          "name": "_transactionId",
          "type": "uint256"
        }
      ],
      "name": "ConfirmMultisigTransaction",
      "type": "event"
    },
    {
      "anonymous": false,
      "inputs": [
        {
          "indexed": false,
          "name": "_transactionId",
          "type": "uint256"
        }
      ],
      "name": "RevokeMultisigTransaction",
      "type": "event"
    },
    {
      "anonymous": false,
      "inputs": [
        {
          "indexed": false,
          "name": "_prevOwner",
          "type": "address"
        },
        {
          "indexed": false,
          "name": "_newOwner",
          "type": "address"
        }
      ],
      "name": "OwnerUpdate",
      "type": "event"
    },
    {
      "constant": false,
      "inputs": [
        {
          "name": "_token",
          "type": "address"
        },
        {
          "name": "_recipient",
          "type": "address"
        },
        {
          "name": "_amount",
          "type": "uint256"
        }
      ],
      "name": "delegateTransfer",
      "outputs": [
        {
          "name": "",
          "type": "uint256"
        }
      ],
      "payable": false,
      "stateMutability": "nonpayable",
      "type": "function"
    },
    {
      "constant": false,
      "inputs": [
        {
          "name": "_transactionId",
          "type": "uint256"
        }
      ],
      "name": "confirmMultisigTransaction",
      "outputs": [],
      "payable": false,
      "stateMutability": "nonpayable",
      "type": "function"
    },
    {
      "constant": false,
      "inputs": [
        {
          "name": "_transactionId",
          "type": "uint256"
        }
      ],
      "name": "revokeMultisigConfirmation",
      "outputs": [],
      "payable": false,
      "stateMutability": "nonpayable",
      "type": "function"
    }
  ],
  "bytecode": "0x6060604052341561000f57600080fd5b604051602080610fc683398101604052808051906020019091905050336000806101000a81548173ffffffffffffffffffffffffffffffffffffffff021916908373ffffffffffffffffffffffffffffffffffffffff16021790555080600260006101000a81548173ffffffffffffffffffffffffffffffffffffffff021916908373ffffffffffffffffffffffffffffffffffffffff16021790555050610f0a806100bc6000396000f30060606040526004361061008e576000357c0100000000000000000000000000000000000000000000000000000000900463ffffffff1680632b2593ba1461009357806379ba5097146100b65780637a6a6539146100cb5780638da5cb5b146100ee5780639075becf14610143578063d4ee1d9014610198578063f2fde38b146101ed578063f4b79da514610226575b600080fd5b341561009e57600080fd5b6100b4600480803590602001909190505061029b565b005b34156100c157600080fd5b6100c96103d1565b005b34156100d657600080fd5b6100ec60048080359060200190919050506105ad565b005b34156100f957600080fd5b6101016106e3565b604051808273ffffffffffffffffffffffffffffffffffffffff1673ffffffffffffffffffffffffffffffffffffffff16815260200191505060405180910390f35b341561014e57600080fd5b610156610708565b604051808273ffffffffffffffffffffffffffffffffffffffff1673ffffffffffffffffffffffffffffffffffffffff16815260200191505060405180910390f35b34156101a357600080fd5b6101ab61072e565b604051808273ffffffffffffffffffffffffffffffffffffffff1673ffffffffffffffffffffffffffffffffffffffff16815260200191505060405180910390f35b34156101f857600080fd5b610224600480803573ffffffffffffffffffffffffffffffffffffffff16906020019091905050610754565b005b341561023157600080fd5b610285600480803573ffffffffffffffffffffffffffffffffffffffff1690602001909190803573ffffffffffffffffffffffffffffffffffffffff169060200190919080359060200190919050506108b1565b6040518082815260200191505060405180910390f35b6000809054906101000a900473ffffffffffffffffffffffffffffffffffffffff1673ffffffffffffffffffffffffffffffffffffffff163373ffffffffffffffffffffffffffffffffffffffff161415156102f357fe5b600260009054906101000a900473ffffffffffffffffffffffffffffffffffffffff1673ffffffffffffffffffffffffffffffffffffffff1663c01a8c84826040518263ffffffff167c010000000000000000000000000000000000000000000000000000000002815260040180828152602001915050600060405180830381600087803b151561038357600080fd5b6102c65a03f1151561039457600080fd5b5050507fb29045bb3a98699559cf1045ab75a38ffd8711c8749453bb7fb5f37436523b66816040518082815260200191505060405180910390a150565b600160009054906101000a900473ffffffffffffffffffffffffffffffffffffffff1673ffffffffffffffffffffffffffffffffffffffff163373ffffffffffffffffffffffffffffffffffffffff1614151561042d57600080fd5b7f343765429aea5a34b3ff6a3785a98a5abb2597aca87bfbb58632c173d585373a6000809054906101000a900473ffffffffffffffffffffffffffffffffffffffff16600160009054906101000a900473ffffffffffffffffffffffffffffffffffffffff16604051808373ffffffffffffffffffffffffffffffffffffffff1673ffffffffffffffffffffffffffffffffffffffff1681526020018273ffffffffffffffffffffffffffffffffffffffff1673ffffffffffffffffffffffffffffffffffffffff1681526020019250505060405180910390a1600160009054906101000a900473ffffffffffffffffffffffffffffffffffffffff166000806101000a81548173ffffffffffffffffffffffffffffffffffffffff021916908373ffffffffffffffffffffffffffffffffffffffff1602179055506000600160006101000a81548173ffffffffffffffffffffffffffffffffffffffff021916908373ffffffffffffffffffffffffffffffffffffffff160217905550565b6000809054906101000a900473ffffffffffffffffffffffffffffffffffffffff1673ffffffffffffffffffffffffffffffffffffffff163373ffffffffffffffffffffffffffffffffffffffff1614151561060557fe5b600260009054906101000a900473ffffffffffffffffffffffffffffffffffffffff1673ffffffffffffffffffffffffffffffffffffffff166320ea8d86826040518263ffffffff167c010000000000000000000000000000000000000000000000000000000002815260040180828152602001915050600060405180830381600087803b151561069557600080fd5b6102c65a03f115156106a657600080fd5b5050507fc9f8c35b8c64c1e12c8c491cd261a85858962f67e5f51718ceca5fa40cc651df816040518082815260200191505060405180910390a150565b6000809054906101000a900473ffffffffffffffffffffffffffffffffffffffff1681565b600260009054906101000a900473ffffffffffffffffffffffffffffffffffffffff1681565b600160009054906101000a900473ffffffffffffffffffffffffffffffffffffffff1681565b6000809054906101000a900473ffffffffffffffffffffffffffffffffffffffff1673ffffffffffffffffffffffffffffffffffffffff163373ffffffffffffffffffffffffffffffffffffffff161415156107ac57fe5b8060008173ffffffffffffffffffffffffffffffffffffffff16141515156107d357600080fd5b813073ffffffffffffffffffffffffffffffffffffffff168173ffffffffffffffffffffffffffffffffffffffff161415151561080f57600080fd5b6000809054906101000a900473ffffffffffffffffffffffffffffffffffffffff1673ffffffffffffffffffffffffffffffffffffffff168373ffffffffffffffffffffffffffffffffffffffff161415151561086b57600080fd5b82600160006101000a81548173ffffffffffffffffffffffffffffffffffffffff021916908373ffffffffffffffffffffffffffffffffffffffff160217905550505050565b6000806108bc610eca565b60008060009054906101000a900473ffffffffffffffffffffffffffffffffffffffff1673ffffffffffffffffffffffffffffffffffffffff163373ffffffffffffffffffffffffffffffffffffffff1614151561091657fe5b8673ffffffffffffffffffffffffffffffffffffffff1663313ce5676000604051602001526040518163ffffffff167c0100000000000000000000000000000000000000000000000000000000028152600401602060405180830381600087803b151561098257600080fd5b6102c65a03f1151561099357600080fd5b50505060405180519050600a0a60ff16850292506109b18684610b85565b9150600260009054906101000a900473ffffffffffffffffffffffffffffffffffffffff1673ffffffffffffffffffffffffffffffffffffffff1663c6427474886000856000604051602001526040518463ffffffff167c0100000000000000000000000000000000000000000000000000000000028152600401808473ffffffffffffffffffffffffffffffffffffffff1673ffffffffffffffffffffffffffffffffffffffff16815260200183815260200180602001828103825283818151815260200191508051906020019080838360005b83811015610aa1578082015181840152602081019050610a86565b50505050905090810190601f168015610ace5780820380516001836020036101000a031916815260200191505b50945050505050602060405180830381600087803b1515610aee57600080fd5b6102c65a03f11515610aff57600080fd5b5050506040518051905090508573ffffffffffffffffffffffffffffffffffffffff168773ffffffffffffffffffffffffffffffffffffffff167ff1598bc08ef3b45aafae44a7873ced35c1b8f78f1a63311e1330b99d2754c9f38784604051808381526020018281526020019250505060405180910390a38093505050509392505050565b610b8d610eca565b600080610b98610eca565b6000806000610ba5610eca565b60008060008060405180807f7472616e7366657228616464726573732c75696e743235362900000000000000815250601901905060405180910390209a50600460ff169950610bf38e610e92565b9850600c89510197508c6001029650602060ff16955085888b0101604051805910610c1b5750595b9080825280601f01601f19166020018201604052509450600093505b6004841015610cbc578a84600481101515610c4e57fe5b1a7f0100000000000000000000000000000000000000000000000000000000000000028585815181101515610c7f57fe5b9060200101907effffffffffffffffffffffffffffffffffffffffffffffffffffffffffffff1916908160001a9053508380600101945050610c37565b600092505b600c831015610d3c5760007f0100000000000000000000000000000000000000000000000000000000000000028584600401815181101515610cff57fe5b9060200101907effffffffffffffffffffffffffffffffffffffffffffffffffffffffffffff1916908160001a9053508280600101935050610cc1565b600091505b6014821015610df1578882815181101515610d5857fe5b9060200101517f010000000000000000000000000000000000000000000000000000000000000090047f0100000000000000000000000000000000000000000000000000000000000000028583601001815181101515610db457fe5b9060200101907effffffffffffffffffffffffffffffffffffffffffffffffffffffffffffff1916908160001a9053508180600101925050610d41565b600090505b6020811015610e7e578681602081101515610e0d57fe5b1a7f0100000000000000000000000000000000000000000000000000000000000000028582602401815181101515610e4157fe5b9060200101907effffffffffffffffffffffffffffffffffffffffffffffffffffffffffffff1916908160001a9053508080600101915050610df6565b849b50505050505050505050505092915050565b610e9a610eca565b60405182741400000000000000000000000000000000000000001860148201526034810160405280915050919050565b6020604051908101604052806000815250905600a165627a7a72305820ac10632eb99fef8b710ae0b152cd7dfeb6c1a9f56db59f2e0114150e05f2abc60029",
  "source": "pragma solidity ^0.4.11;\n\nimport \"./interfaces/IMultisigWallet.sol\";\nimport \"./util/Misc.sol\";\nimport \"./util/Owned.sol\";\nimport \"./interfaces/IERC20Token.sol\";\n\ncontract MultisigWalletAdapter is Misc, Owned {\n\n    IMultisigWallet public multisigWallet;\n\n    event SendMultisigTransaction(IERC20Token indexed _token, address indexed _recipient, uint256 _amount, uint _transactionId);\n    event ConfirmMultisigTransaction(uint _transactionId);\n    event RevokeMultisigTransaction(uint _transactionId);\n\n    function MultisigWalletAdapter(address _multisigWallet) public {\n        multisigWallet = IMultisigWallet(_multisigWallet);\n    }\n\n    /**\n     *  Delegates a call of `transfer` function to a multisig wallet\n     */\n    function delegateTransfer(IERC20Token _token, address _recipient, uint256 _amount) public \n        ownerOnly\n        returns(uint) \n    {\n        uint256 test = _amount * 10**_token.decimals();\n        bytes memory data = super.buildTransferPayloadData(_recipient, test);\n\n        // `value` is 0 because we send only tokens, not ether\n        uint transactionId = multisigWallet.submitTransaction(_token, 0, data);\n\n        SendMultisigTransaction(_token, _recipient, _amount, transactionId);\n        return transactionId;\n    }\n\n    function confirmMultisigTransaction(uint _transactionId) public ownerOnly {\n        multisigWallet.confirmTransaction(_transactionId);\n        ConfirmMultisigTransaction(_transactionId);\n    }\n\n    function revokeMultisigConfirmation(uint _transactionId) public ownerOnly {\n        multisigWallet.revokeConfirmation(_transactionId);\n        RevokeMultisigTransaction(_transactionId);\n    }\n\n}",
  "sourcePath": "/home/taras/Workspace/vscode/CDM-Token-Contracts/solidity/contracts/MultisigWalletAdapter.sol",
  "compiler": {
    "name": "solc",
    "version": "0.4.19+commit.c4cbbb05.Emscripten.clang"
  },
  "schemaVersion": "1.0.1",
  "updatedAt": "2018-02-15T18:24:09.149Z"
}