{
  "contractName": "MultisigWalletAdapter",
  "abi": [
    {
      "constant": false,
      "inputs": [],
      "name": "acceptOwnership",
      "outputs": [],
      "payable": false,
      "stateMutability": "nonpayable",
      "type": "function"
    },
    {
      "constant": true,
      "inputs": [],
      "name": "owner",
      "outputs": [
        {
          "name": "",
          "type": "address"
        }
      ],
      "payable": false,
      "stateMutability": "view",
      "type": "function"
    },
    {
      "constant": true,
      "inputs": [],
      "name": "multisigWallet",
      "outputs": [
        {
          "name": "",
          "type": "address"
        }
      ],
      "payable": false,
      "stateMutability": "view",
      "type": "function"
    },
    {
      "constant": true,
      "inputs": [],
      "name": "newOwner",
      "outputs": [
        {
          "name": "",
          "type": "address"
        }
      ],
      "payable": false,
      "stateMutability": "view",
      "type": "function"
    },
    {
      "constant": false,
      "inputs": [
        {
          "name": "_newOwner",
          "type": "address"
        }
      ],
      "name": "transferOwnership",
      "outputs": [],
      "payable": false,
      "stateMutability": "nonpayable",
      "type": "function"
    },
    {
      "inputs": [],
      "payable": false,
      "stateMutability": "nonpayable",
      "type": "constructor"
    },
    {
      "anonymous": false,
      "inputs": [
        {
          "indexed": true,
          "name": "_token",
          "type": "address"
        },
        {
          "indexed": true,
          "name": "_recipient",
          "type": "address"
        },
        {
          "indexed": false,
          "name": "_amount",
          "type": "uint256"
        },
        {
          "indexed": false,
          "name": "_transactionId",
          "type": "uint256"
        }
      ],
      "name": "SendMultisigTransaction",
      "type": "event"
    },
    {
      "anonymous": false,
      "inputs": [
        {
          "indexed": false,
          "name": "_transactionId",
          "type": "uint256"
        }
      ],
      "name": "ConfirmMultisigTransaction",
      "type": "event"
    },
    {
      "anonymous": false,
      "inputs": [
        {
          "indexed": false,
          "name": "_transactionId",
          "type": "uint256"
        }
      ],
      "name": "RevokeMultisigTransaction",
      "type": "event"
    },
    {
      "anonymous": false,
      "inputs": [
        {
          "indexed": false,
          "name": "_prevOwner",
          "type": "address"
        },
        {
          "indexed": false,
          "name": "_newOwner",
          "type": "address"
        }
      ],
      "name": "OwnerUpdate",
      "type": "event"
    },
    {
      "constant": false,
      "inputs": [
        {
          "name": "_multisigWallet",
          "type": "address"
        }
      ],
      "name": "setMultisigWalletAddress",
      "outputs": [],
      "payable": false,
      "stateMutability": "nonpayable",
      "type": "function"
    },
    {
      "constant": false,
      "inputs": [
        {
          "name": "_token",
          "type": "address"
        },
        {
          "name": "_recipient",
          "type": "address"
        },
        {
          "name": "_amount",
          "type": "uint256"
        }
      ],
      "name": "delegateTransfer",
      "outputs": [
        {
          "name": "",
          "type": "uint256"
        }
      ],
      "payable": false,
      "stateMutability": "nonpayable",
      "type": "function"
    },
    {
      "constant": false,
      "inputs": [
        {
          "name": "_transactionId",
          "type": "uint256"
        }
      ],
      "name": "confirmMultisigTransaction",
      "outputs": [],
      "payable": false,
      "stateMutability": "nonpayable",
      "type": "function"
    },
    {
      "constant": false,
      "inputs": [
        {
          "name": "_transactionId",
          "type": "uint256"
        }
      ],
      "name": "revokeMultisigConfirmation",
      "outputs": [],
      "payable": false,
      "stateMutability": "nonpayable",
      "type": "function"
    }
  ],
  "bytecode": "0x6060604052341561000f57600080fd5b336000806101000a81548173ffffffffffffffffffffffffffffffffffffffff021916908373ffffffffffffffffffffffffffffffffffffffff160217905550610eff8061005e6000396000f300606060405260043610610099576000357c0100000000000000000000000000000000000000000000000000000000900463ffffffff1680632b2593ba1461009e57806360d50da3146100c157806379ba5097146100fa5780637a6a65391461010f5780638da5cb5b146101325780639075becf14610187578063d4ee1d90146101dc578063f2fde38b14610231578063f4b79da51461026a575b600080fd5b34156100a957600080fd5b6100bf60048080359060200190919050506102df565b005b34156100cc57600080fd5b6100f8600480803573ffffffffffffffffffffffffffffffffffffffff16906020019091905050610415565b005b341561010557600080fd5b61010d610459565b005b341561011a57600080fd5b6101306004808035906020019091905050610635565b005b341561013d57600080fd5b61014561076b565b604051808273ffffffffffffffffffffffffffffffffffffffff1673ffffffffffffffffffffffffffffffffffffffff16815260200191505060405180910390f35b341561019257600080fd5b61019a610790565b604051808273ffffffffffffffffffffffffffffffffffffffff1673ffffffffffffffffffffffffffffffffffffffff16815260200191505060405180910390f35b34156101e757600080fd5b6101ef6107b6565b604051808273ffffffffffffffffffffffffffffffffffffffff1673ffffffffffffffffffffffffffffffffffffffff16815260200191505060405180910390f35b341561023c57600080fd5b610268600480803573ffffffffffffffffffffffffffffffffffffffff169060200190919050506107dc565b005b341561027557600080fd5b6102c9600480803573ffffffffffffffffffffffffffffffffffffffff1690602001909190803573ffffffffffffffffffffffffffffffffffffffff16906020019091908035906020019091905050610939565b6040518082815260200191505060405180910390f35b6000809054906101000a900473ffffffffffffffffffffffffffffffffffffffff1673ffffffffffffffffffffffffffffffffffffffff163373ffffffffffffffffffffffffffffffffffffffff1614151561033757fe5b600260009054906101000a900473ffffffffffffffffffffffffffffffffffffffff1673ffffffffffffffffffffffffffffffffffffffff1663c01a8c84826040518263ffffffff167c010000000000000000000000000000000000000000000000000000000002815260040180828152602001915050600060405180830381600087803b15156103c757600080fd5b6102c65a03f115156103d857600080fd5b5050507fb29045bb3a98699559cf1045ab75a38ffd8711c8749453bb7fb5f37436523b66816040518082815260200191505060405180910390a150565b80600260006101000a81548173ffffffffffffffffffffffffffffffffffffffff021916908373ffffffffffffffffffffffffffffffffffffffff16021790555050565b600160009054906101000a900473ffffffffffffffffffffffffffffffffffffffff1673ffffffffffffffffffffffffffffffffffffffff163373ffffffffffffffffffffffffffffffffffffffff161415156104b557600080fd5b7f343765429aea5a34b3ff6a3785a98a5abb2597aca87bfbb58632c173d585373a6000809054906101000a900473ffffffffffffffffffffffffffffffffffffffff16600160009054906101000a900473ffffffffffffffffffffffffffffffffffffffff16604051808373ffffffffffffffffffffffffffffffffffffffff1673ffffffffffffffffffffffffffffffffffffffff1681526020018273ffffffffffffffffffffffffffffffffffffffff1673ffffffffffffffffffffffffffffffffffffffff1681526020019250505060405180910390a1600160009054906101000a900473ffffffffffffffffffffffffffffffffffffffff166000806101000a81548173ffffffffffffffffffffffffffffffffffffffff021916908373ffffffffffffffffffffffffffffffffffffffff1602179055506000600160006101000a81548173ffffffffffffffffffffffffffffffffffffffff021916908373ffffffffffffffffffffffffffffffffffffffff160217905550565b6000809054906101000a900473ffffffffffffffffffffffffffffffffffffffff1673ffffffffffffffffffffffffffffffffffffffff163373ffffffffffffffffffffffffffffffffffffffff1614151561068d57fe5b600260009054906101000a900473ffffffffffffffffffffffffffffffffffffffff1673ffffffffffffffffffffffffffffffffffffffff166320ea8d86826040518263ffffffff167c010000000000000000000000000000000000000000000000000000000002815260040180828152602001915050600060405180830381600087803b151561071d57600080fd5b6102c65a03f1151561072e57600080fd5b5050507fc9f8c35b8c64c1e12c8c491cd261a85858962f67e5f51718ceca5fa40cc651df816040518082815260200191505060405180910390a150565b6000809054906101000a900473ffffffffffffffffffffffffffffffffffffffff1681565b600260009054906101000a900473ffffffffffffffffffffffffffffffffffffffff1681565b600160009054906101000a900473ffffffffffffffffffffffffffffffffffffffff1681565b6000809054906101000a900473ffffffffffffffffffffffffffffffffffffffff1673ffffffffffffffffffffffffffffffffffffffff163373ffffffffffffffffffffffffffffffffffffffff1614151561083457fe5b8060008173ffffffffffffffffffffffffffffffffffffffff161415151561085b57600080fd5b813073ffffffffffffffffffffffffffffffffffffffff168173ffffffffffffffffffffffffffffffffffffffff161415151561089757600080fd5b6000809054906101000a900473ffffffffffffffffffffffffffffffffffffffff1673ffffffffffffffffffffffffffffffffffffffff168373ffffffffffffffffffffffffffffffffffffffff16141515156108f357600080fd5b82600160006101000a81548173ffffffffffffffffffffffffffffffffffffffff021916908373ffffffffffffffffffffffffffffffffffffffff160217905550505050565b6000610943610ebf565b60008060009054906101000a900473ffffffffffffffffffffffffffffffffffffffff1673ffffffffffffffffffffffffffffffffffffffff163373ffffffffffffffffffffffffffffffffffffffff1614151561099d57fe5b6109a78585610b7a565b9150600260009054906101000a900473ffffffffffffffffffffffffffffffffffffffff1673ffffffffffffffffffffffffffffffffffffffff1663c6427474876000856000604051602001526040518463ffffffff167c0100000000000000000000000000000000000000000000000000000000028152600401808473ffffffffffffffffffffffffffffffffffffffff1673ffffffffffffffffffffffffffffffffffffffff16815260200183815260200180602001828103825283818151815260200191508051906020019080838360005b83811015610a97578082015181840152602081019050610a7c565b50505050905090810190601f168015610ac45780820380516001836020036101000a031916815260200191505b50945050505050602060405180830381600087803b1515610ae457600080fd5b6102c65a03f11515610af557600080fd5b5050506040518051905090508473ffffffffffffffffffffffffffffffffffffffff168673ffffffffffffffffffffffffffffffffffffffff167ff1598bc08ef3b45aafae44a7873ced35c1b8f78f1a63311e1330b99d2754c9f38684604051808381526020018281526020019250505060405180910390a380925050509392505050565b610b82610ebf565b600080610b8d610ebf565b6000806000610b9a610ebf565b60008060008060405180807f7472616e7366657228616464726573732c75696e743235362900000000000000815250601901905060405180910390209a50600460ff169950610be88e610e87565b9850600c89510197508c6001029650602060ff16955085888b0101604051805910610c105750595b9080825280601f01601f19166020018201604052509450600093505b6004841015610cb1578a84600481101515610c4357fe5b1a7f0100000000000000000000000000000000000000000000000000000000000000028585815181101515610c7457fe5b9060200101907effffffffffffffffffffffffffffffffffffffffffffffffffffffffffffff1916908160001a9053508380600101945050610c2c565b600092505b600c831015610d315760007f0100000000000000000000000000000000000000000000000000000000000000028584600401815181101515610cf457fe5b9060200101907effffffffffffffffffffffffffffffffffffffffffffffffffffffffffffff1916908160001a9053508280600101935050610cb6565b600091505b6014821015610de6578882815181101515610d4d57fe5b9060200101517f010000000000000000000000000000000000000000000000000000000000000090047f0100000000000000000000000000000000000000000000000000000000000000028583601001815181101515610da957fe5b9060200101907effffffffffffffffffffffffffffffffffffffffffffffffffffffffffffff1916908160001a9053508180600101925050610d36565b600090505b6020811015610e73578681602081101515610e0257fe5b1a7f0100000000000000000000000000000000000000000000000000000000000000028582602401815181101515610e3657fe5b9060200101907effffffffffffffffffffffffffffffffffffffffffffffffffffffffffffff1916908160001a9053508080600101915050610deb565b849b50505050505050505050505092915050565b610e8f610ebf565b60405182741400000000000000000000000000000000000000001860148201526034810160405280915050919050565b6020604051908101604052806000815250905600a165627a7a7230582081e6cfe74a89e2be1ae4c53b61bdd41a5eebc79d6ce94d511054ae4499166fdc0029",
  "source": "pragma solidity ^0.4.11;\n\nimport \"./interfaces/IMultisigWallet.sol\";\nimport \"./util/Misc.sol\";\nimport \"./util/Owned.sol\";\nimport \"./interfaces/IERC20Token.sol\";\n\ncontract MultisigWalletAdapter is Misc, Owned {\n\n    IMultisigWallet public multisigWallet;\n\n    event SendMultisigTransaction(IERC20Token indexed _token, address indexed _recipient, uint256 _amount, uint _transactionId);\n    event ConfirmMultisigTransaction(uint _transactionId);\n    event RevokeMultisigTransaction(uint _transactionId);\n\n    function MultisigWalletAdapter() public {}\n\n    function setMultisigWalletAddress(address _multisigWallet) public {\n        multisigWallet = IMultisigWallet(_multisigWallet);\n    }\n\n    /**\n     *  Delegates a call of `transfer` function to a multisig wallet\n     */\n    function delegateTransfer(IERC20Token _token, address _recipient, uint256 _amount) public \n        ownerOnly\n        returns(uint) \n    {\n        bytes memory data = super.buildTransferPayloadData(_recipient, _amount);\n\n        // `value` is 0 because we send only tokens, not ether\n        uint transactionId = multisigWallet.submitTransaction(_token, 0, data);\n\n        SendMultisigTransaction(_token, _recipient, _amount, transactionId);\n        return transactionId;\n    }\n\n    function confirmMultisigTransaction(uint _transactionId) public ownerOnly {\n        multisigWallet.confirmTransaction(_transactionId);\n        ConfirmMultisigTransaction(_transactionId);\n    }\n\n    function revokeMultisigConfirmation(uint _transactionId) public ownerOnly {\n        multisigWallet.revokeConfirmation(_transactionId);\n        RevokeMultisigTransaction(_transactionId);\n    }\n\n}",
  "sourcePath": "/home/therasymchuk/Workspace/github/CDM-Token-Contracts/solidity/contracts/MultisigWalletAdapter.sol",
  "compiler": {
    "name": "solc",
    "version": "0.4.19+commit.c4cbbb05.Emscripten.clang"
  },
  "schemaVersion": "1.0.1",
  "updatedAt": "2018-02-16T11:58:59.156Z"
}