{
  "contractName": "Owned",
  "abi": [
    {
      "constant": true,
      "inputs": [],
      "name": "owner",
      "outputs": [
        {
          "name": "",
          "type": "address"
        }
      ],
      "payable": false,
      "stateMutability": "view",
      "type": "function"
    },
    {
      "constant": true,
      "inputs": [],
      "name": "newOwner",
      "outputs": [
        {
          "name": "",
          "type": "address"
        }
      ],
      "payable": false,
      "stateMutability": "view",
      "type": "function"
    },
    {
      "inputs": [],
      "payable": false,
      "stateMutability": "nonpayable",
      "type": "constructor"
    },
    {
      "anonymous": false,
      "inputs": [
        {
          "indexed": false,
          "name": "_prevOwner",
          "type": "address"
        },
        {
          "indexed": false,
          "name": "_newOwner",
          "type": "address"
        }
      ],
      "name": "OwnerUpdate",
      "type": "event"
    },
    {
      "constant": false,
      "inputs": [
        {
          "name": "_newOwner",
          "type": "address"
        }
      ],
      "name": "transferOwnership",
      "outputs": [],
      "payable": false,
      "stateMutability": "nonpayable",
      "type": "function"
    },
    {
      "constant": false,
      "inputs": [],
      "name": "acceptOwnership",
      "outputs": [],
      "payable": false,
      "stateMutability": "nonpayable",
      "type": "function"
    }
  ],
  "bytecode": "0x6060604052341561000f57600080fd5b336000806101000a81548173ffffffffffffffffffffffffffffffffffffffff021916908373ffffffffffffffffffffffffffffffffffffffff16021790555061050f8061005e6000396000f300606060405260043610610062576000357c0100000000000000000000000000000000000000000000000000000000900463ffffffff16806379ba5097146100675780638da5cb5b1461007c578063d4ee1d90146100d1578063f2fde38b14610126575b600080fd5b341561007257600080fd5b61007a61015f565b005b341561008757600080fd5b61008f61033b565b604051808273ffffffffffffffffffffffffffffffffffffffff1673ffffffffffffffffffffffffffffffffffffffff16815260200191505060405180910390f35b34156100dc57600080fd5b6100e4610360565b604051808273ffffffffffffffffffffffffffffffffffffffff1673ffffffffffffffffffffffffffffffffffffffff16815260200191505060405180910390f35b341561013157600080fd5b61015d600480803573ffffffffffffffffffffffffffffffffffffffff16906020019091905050610386565b005b600160009054906101000a900473ffffffffffffffffffffffffffffffffffffffff1673ffffffffffffffffffffffffffffffffffffffff163373ffffffffffffffffffffffffffffffffffffffff161415156101bb57600080fd5b7f343765429aea5a34b3ff6a3785a98a5abb2597aca87bfbb58632c173d585373a6000809054906101000a900473ffffffffffffffffffffffffffffffffffffffff16600160009054906101000a900473ffffffffffffffffffffffffffffffffffffffff16604051808373ffffffffffffffffffffffffffffffffffffffff1673ffffffffffffffffffffffffffffffffffffffff1681526020018273ffffffffffffffffffffffffffffffffffffffff1673ffffffffffffffffffffffffffffffffffffffff1681526020019250505060405180910390a1600160009054906101000a900473ffffffffffffffffffffffffffffffffffffffff166000806101000a81548173ffffffffffffffffffffffffffffffffffffffff021916908373ffffffffffffffffffffffffffffffffffffffff1602179055506000600160006101000a81548173ffffffffffffffffffffffffffffffffffffffff021916908373ffffffffffffffffffffffffffffffffffffffff160217905550565b6000809054906101000a900473ffffffffffffffffffffffffffffffffffffffff1681565b600160009054906101000a900473ffffffffffffffffffffffffffffffffffffffff1681565b6000809054906101000a900473ffffffffffffffffffffffffffffffffffffffff1673ffffffffffffffffffffffffffffffffffffffff163373ffffffffffffffffffffffffffffffffffffffff161415156103de57fe5b8060008173ffffffffffffffffffffffffffffffffffffffff161415151561040557600080fd5b813073ffffffffffffffffffffffffffffffffffffffff168173ffffffffffffffffffffffffffffffffffffffff161415151561044157600080fd5b6000809054906101000a900473ffffffffffffffffffffffffffffffffffffffff1673ffffffffffffffffffffffffffffffffffffffff168373ffffffffffffffffffffffffffffffffffffffff161415151561049d57600080fd5b82600160006101000a81548173ffffffffffffffffffffffffffffffffffffffff021916908373ffffffffffffffffffffffffffffffffffffffff1602179055505050505600a165627a7a7230582055e74d71580c51dc9d09f8d520e5b93cdd7edffbde0525b146934e6b6f7c7be40029",
  "source": "pragma solidity ^0.4.11;\n\n// forked from https://github.com/bancorprotocol/contracts\n\nimport \"../interfaces/IOwned.sol\";\nimport \"./Utils.sol\";\n\ncontract Owned is IOwned, Utils {\n    address public owner;\n    address public newOwner;\n\n    event OwnerUpdate(address _prevOwner, address _newOwner);\n\n    function Owned() public {\n        owner = msg.sender;\n    }\n\n    modifier ownerOnly {\n        assert(msg.sender == owner);\n        _;\n    }\n\n    /**\n    *    Transfers ownership to a new address\n    *\n    *    @param _newOwner    new contract owner\n    */\n    function transferOwnership(address _newOwner) public \n        ownerOnly\n        validAddress(_newOwner)\n        notThis(_newOwner) \n    {\n        require(_newOwner != owner);\n        newOwner = _newOwner;\n    }\n\n    /**\n    *    @dev used by a new owner to accept an ownership transfer\n    */\n    function acceptOwnership() public {\n        require(msg.sender == newOwner);\n        OwnerUpdate(owner, newOwner);\n        owner = newOwner;\n        newOwner = 0x0;\n    }\n}\n",
  "sourcePath": "/home/taras/Workspace/vscode/CDM-Token-Contracts/solidity/contracts/util/Owned.sol",
  "compiler": {
    "name": "solc",
    "version": "0.4.19+commit.c4cbbb05.Emscripten.clang"
  },
  "schemaVersion": "1.0.1",
  "updatedAt": "2018-02-15T18:24:09.148Z"
}