{
  "contractName": "TestUtils",
  "abi": [
    {
      "inputs": [],
      "payable": false,
      "stateMutability": "nonpayable",
      "type": "constructor"
    },
    {
      "constant": true,
      "inputs": [
        {
          "name": "_x",
          "type": "uint256"
        },
        {
          "name": "_y",
          "type": "uint256"
        }
      ],
      "name": "add",
      "outputs": [
        {
          "name": "",
          "type": "uint256"
        }
      ],
      "payable": false,
      "stateMutability": "pure",
      "type": "function"
    },
    {
      "constant": true,
      "inputs": [
        {
          "name": "_x",
          "type": "uint256"
        },
        {
          "name": "_y",
          "type": "uint256"
        }
      ],
      "name": "sub",
      "outputs": [
        {
          "name": "",
          "type": "uint256"
        }
      ],
      "payable": false,
      "stateMutability": "pure",
      "type": "function"
    },
    {
      "constant": true,
      "inputs": [
        {
          "name": "_x",
          "type": "uint256"
        },
        {
          "name": "_y",
          "type": "uint256"
        }
      ],
      "name": "mul",
      "outputs": [
        {
          "name": "",
          "type": "uint256"
        }
      ],
      "payable": false,
      "stateMutability": "pure",
      "type": "function"
    }
  ],
  "bytecode": "0x6060604052341561000f57600080fd5b6101ee8061001e6000396000f300606060405260043610610057576000357c0100000000000000000000000000000000000000000000000000000000900463ffffffff168063771602f71461005c578063b67d77c51461009c578063c8a4ac9c146100dc575b600080fd5b341561006757600080fd5b610086600480803590602001909190803590602001909190505061011c565b6040518082815260200191505060405180910390f35b34156100a757600080fd5b6100c66004808035906020019091908035906020019091905050610130565b6040518082815260200191505060405180910390f35b34156100e757600080fd5b6101066004808035906020019091908035906020019091905050610144565b6040518082815260200191505060405180910390f35b60006101288383610158565b905092915050565b600061013c8383610176565b905092915050565b6000610150838361018f565b905092915050565b600080828401905083811015151561016c57fe5b8091505092915050565b600081831015151561018457fe5b818303905092915050565b600080828402905060008414806101b057508284828115156101ad57fe5b04145b15156101b857fe5b80915050929150505600a165627a7a72305820811d19d4c1de278f2bb1497c243f529dcddeb4744d0f001507e2fac8dd59873f0029",
  "source": "pragma solidity ^0.4.11;\n\nimport \"../Utils.sol\";\n\ncontract TestUtils is Utils {\n\n    function TestUtils() public {\n    }\n\n    function add(uint256 _x, uint256 _y) public pure returns (uint256) {\n        return super.safeAdd(_x, _y);\n    }\n\n    function sub(uint256 _x, uint256 _y) public pure returns (uint256) {\n        return super.safeSub(_x, _y);\n    }\n\n    function mul(uint256 _x, uint256 _y) public pure returns (uint256) {\n        return super.safeMul(_x, _y);\n    }\n}\n",
  "sourcePath": "/home/therasymchuk/Workspace/github/CDM-Token-Contracts/solidity/contracts/util/test/TestUtils.sol",
  "compiler": {
    "name": "solc",
    "version": "0.4.19+commit.c4cbbb05.Emscripten.clang"
  },
  "schemaVersion": "1.0.1",
  "updatedAt": "2018-02-20T16:07:06.955Z"
}