{
  "contractName": "TokenLocker",
  "abi": [
    {
      "constant": false,
      "inputs": [
        {
          "name": "_targetToken",
          "type": "address"
        }
      ],
      "name": "collect",
      "outputs": [
        {
          "name": "",
          "type": "bool"
        }
      ],
      "payable": false,
      "stateMutability": "nonpayable",
      "type": "function"
    },
    {
      "constant": true,
      "inputs": [
        {
          "name": "_recipient",
          "type": "address"
        },
        {
          "name": "_targetToken",
          "type": "address"
        }
      ],
      "name": "isCollected",
      "outputs": [
        {
          "name": "",
          "type": "bool"
        }
      ],
      "payable": false,
      "stateMutability": "view",
      "type": "function"
    },
    {
      "constant": true,
      "inputs": [
        {
          "name": "_recipient",
          "type": "address"
        },
        {
          "name": "_targetToken",
          "type": "address"
        }
      ],
      "name": "hasValue",
      "outputs": [
        {
          "name": "",
          "type": "bool"
        }
      ],
      "payable": false,
      "stateMutability": "view",
      "type": "function"
    },
    {
      "constant": true,
      "inputs": [],
      "name": "pendingLocked",
      "outputs": [
        {
          "name": "",
          "type": "uint256"
        }
      ],
      "payable": false,
      "stateMutability": "view",
      "type": "function"
    },
    {
      "constant": true,
      "inputs": [
        {
          "name": "_recipient",
          "type": "address"
        },
        {
          "name": "_targetToken",
          "type": "address"
        }
      ],
      "name": "isConfirmed",
      "outputs": [
        {
          "name": "",
          "type": "bool"
        }
      ],
      "payable": false,
      "stateMutability": "view",
      "type": "function"
    },
    {
      "constant": false,
      "inputs": [],
      "name": "acceptOwnership",
      "outputs": [],
      "payable": false,
      "stateMutability": "nonpayable",
      "type": "function"
    },
    {
      "constant": true,
      "inputs": [
        {
          "name": "_recipient",
          "type": "address"
        },
        {
          "name": "_targetToken",
          "type": "address"
        }
      ],
      "name": "getLockupReleaseTimestamp",
      "outputs": [
        {
          "name": "",
          "type": "uint256"
        }
      ],
      "payable": false,
      "stateMutability": "view",
      "type": "function"
    },
    {
      "constant": false,
      "inputs": [
        {
          "name": "_recipient",
          "type": "address"
        },
        {
          "name": "_targetToken",
          "type": "address"
        }
      ],
      "name": "cancel",
      "outputs": [
        {
          "name": "",
          "type": "bool"
        }
      ],
      "payable": false,
      "stateMutability": "nonpayable",
      "type": "function"
    },
    {
      "constant": true,
      "inputs": [
        {
          "name": "_recipient",
          "type": "address"
        },
        {
          "name": "_targetToken",
          "type": "address"
        }
      ],
      "name": "isReleaseTime",
      "outputs": [
        {
          "name": "",
          "type": "bool"
        }
      ],
      "payable": false,
      "stateMutability": "view",
      "type": "function"
    },
    {
      "constant": true,
      "inputs": [],
      "name": "owner",
      "outputs": [
        {
          "name": "",
          "type": "address"
        }
      ],
      "payable": false,
      "stateMutability": "view",
      "type": "function"
    },
    {
      "constant": false,
      "inputs": [
        {
          "name": "_targetToken",
          "type": "address"
        }
      ],
      "name": "redeem",
      "outputs": [
        {
          "name": "",
          "type": "bool"
        }
      ],
      "payable": false,
      "stateMutability": "nonpayable",
      "type": "function"
    },
    {
      "constant": true,
      "inputs": [
        {
          "name": "",
          "type": "address"
        }
      ],
      "name": "tokenOwners",
      "outputs": [
        {
          "name": "",
          "type": "address"
        }
      ],
      "payable": false,
      "stateMutability": "view",
      "type": "function"
    },
    {
      "constant": true,
      "inputs": [
        {
          "name": "",
          "type": "address"
        },
        {
          "name": "",
          "type": "address"
        }
      ],
      "name": "accountLockedAmount",
      "outputs": [
        {
          "name": "releaseTimestamp",
          "type": "uint256"
        },
        {
          "name": "amount",
          "type": "uint256"
        },
        {
          "name": "confirmed",
          "type": "bool"
        },
        {
          "name": "collected",
          "type": "bool"
        },
        {
          "name": "hasValue",
          "type": "bool"
        }
      ],
      "payable": false,
      "stateMutability": "view",
      "type": "function"
    },
    {
      "constant": false,
      "inputs": [
        {
          "name": "_recipient",
          "type": "address"
        },
        {
          "name": "_targetToken",
          "type": "address"
        },
        {
          "name": "_amount",
          "type": "uint256"
        },
        {
          "name": "_releaseTimestamp",
          "type": "uint256"
        }
      ],
      "name": "lockup",
      "outputs": [
        {
          "name": "",
          "type": "bool"
        }
      ],
      "payable": false,
      "stateMutability": "nonpayable",
      "type": "function"
    },
    {
      "constant": false,
      "inputs": [
        {
          "name": "enable",
          "type": "bool"
        }
      ],
      "name": "setLockupEnabled",
      "outputs": [],
      "payable": false,
      "stateMutability": "nonpayable",
      "type": "function"
    },
    {
      "constant": true,
      "inputs": [
        {
          "name": "_targetToken",
          "type": "address"
        },
        {
          "name": "_owner",
          "type": "address"
        },
        {
          "name": "_spender",
          "type": "address"
        },
        {
          "name": "_amount",
          "type": "uint256"
        }
      ],
      "name": "checkAllowance",
      "outputs": [
        {
          "name": "",
          "type": "bool"
        }
      ],
      "payable": false,
      "stateMutability": "view",
      "type": "function"
    },
    {
      "constant": true,
      "inputs": [],
      "name": "lockupEnabled",
      "outputs": [
        {
          "name": "",
          "type": "bool"
        }
      ],
      "payable": false,
      "stateMutability": "view",
      "type": "function"
    },
    {
      "constant": true,
      "inputs": [],
      "name": "newOwner",
      "outputs": [
        {
          "name": "",
          "type": "address"
        }
      ],
      "payable": false,
      "stateMutability": "view",
      "type": "function"
    },
    {
      "constant": true,
      "inputs": [
        {
          "name": "_recipient",
          "type": "address"
        },
        {
          "name": "_targetToken",
          "type": "address"
        }
      ],
      "name": "getLockupAmount",
      "outputs": [
        {
          "name": "",
          "type": "uint256"
        }
      ],
      "payable": false,
      "stateMutability": "view",
      "type": "function"
    },
    {
      "constant": false,
      "inputs": [
        {
          "name": "_targetToken",
          "type": "address"
        }
      ],
      "name": "confirm",
      "outputs": [
        {
          "name": "",
          "type": "bool"
        }
      ],
      "payable": false,
      "stateMutability": "nonpayable",
      "type": "function"
    },
    {
      "constant": false,
      "inputs": [
        {
          "name": "_newOwner",
          "type": "address"
        }
      ],
      "name": "transferOwnership",
      "outputs": [],
      "payable": false,
      "stateMutability": "nonpayable",
      "type": "function"
    },
    {
      "constant": true,
      "inputs": [],
      "name": "confirmedLocked",
      "outputs": [
        {
          "name": "",
          "type": "uint256"
        }
      ],
      "payable": false,
      "stateMutability": "view",
      "type": "function"
    },
    {
      "inputs": [],
      "payable": false,
      "stateMutability": "nonpayable",
      "type": "constructor"
    },
    {
      "anonymous": false,
      "inputs": [
        {
          "indexed": true,
          "name": "_recipient",
          "type": "address"
        },
        {
          "indexed": true,
          "name": "_targetToken",
          "type": "address"
        },
        {
          "indexed": false,
          "name": "_amount",
          "type": "uint256"
        },
        {
          "indexed": false,
          "name": "_releaseTimestamp",
          "type": "uint256"
        }
      ],
      "name": "PendingLockup",
      "type": "event"
    },
    {
      "anonymous": false,
      "inputs": [
        {
          "indexed": true,
          "name": "_owner",
          "type": "address"
        },
        {
          "indexed": true,
          "name": "_recipient",
          "type": "address"
        },
        {
          "indexed": true,
          "name": "_targetToken",
          "type": "address"
        }
      ],
      "name": "CancelLockup",
      "type": "event"
    },
    {
      "anonymous": false,
      "inputs": [
        {
          "indexed": true,
          "name": "_recipient",
          "type": "address"
        },
        {
          "indexed": true,
          "name": "_targetToken",
          "type": "address"
        }
      ],
      "name": "ConfirmLockup",
      "type": "event"
    },
    {
      "anonymous": false,
      "inputs": [
        {
          "indexed": true,
          "name": "_recipient",
          "type": "address"
        },
        {
          "indexed": true,
          "name": "_targetToken",
          "type": "address"
        }
      ],
      "name": "Collect",
      "type": "event"
    },
    {
      "anonymous": false,
      "inputs": [
        {
          "indexed": true,
          "name": "_targetToken",
          "type": "address"
        },
        {
          "indexed": false,
          "name": "_amount",
          "type": "uint256"
        }
      ],
      "name": "Redeem",
      "type": "event"
    },
    {
      "anonymous": false,
      "inputs": [
        {
          "indexed": false,
          "name": "_prevOwner",
          "type": "address"
        },
        {
          "indexed": false,
          "name": "_newOwner",
          "type": "address"
        }
      ],
      "name": "OwnerUpdate",
      "type": "event"
    }
  ],
  "bytecode": "0x606060405260006002556000600355341561001957600080fd5b336000806101000a81548173ffffffffffffffffffffffffffffffffffffffff021916908373ffffffffffffffffffffffffffffffffffffffff1602179055506001600560006101000a81548160ff021916908315150217905550612343806100836000396000f300606060405260043610610128576000357c0100000000000000000000000000000000000000000000000000000000900463ffffffff16806306ec16f81461012d578063079381651461017e57806318a0fc0d146101ee57806327f482b61461025e578063777d76741461028757806379ba5097146102f75780638073cf041461030c578063824c1db51461037857806387e5f518146103e85780638da5cb5b1461045857806395a2251f146104ad578063ad79e94b146104fe578063b2c4ad2314610577578063b3843f491461060b578063bb42ba171461068d578063bd0d151f146106b2578063d29ea5831461074a578063d4ee1d9014610777578063e94ecdb4146107cc578063eb4dd8f214610838578063f2fde38b14610889578063fd33922f146108c2575b600080fd5b341561013857600080fd5b610164600480803573ffffffffffffffffffffffffffffffffffffffff169060200190919050506108eb565b604051808215151515815260200191505060405180910390f35b341561018957600080fd5b6101d4600480803573ffffffffffffffffffffffffffffffffffffffff1690602001909190803573ffffffffffffffffffffffffffffffffffffffff16906020019091905050610b3a565b604051808215151515815260200191505060405180910390f35b34156101f957600080fd5b610244600480803573ffffffffffffffffffffffffffffffffffffffff1690602001909190803573ffffffffffffffffffffffffffffffffffffffff16906020019091905050610bd1565b604051808215151515815260200191505060405180910390f35b341561026957600080fd5b610271610c68565b6040518082815260200191505060405180910390f35b341561029257600080fd5b6102dd600480803573ffffffffffffffffffffffffffffffffffffffff1690602001909190803573ffffffffffffffffffffffffffffffffffffffff16906020019091905050610c6e565b604051808215151515815260200191505060405180910390f35b341561030257600080fd5b61030a610d05565b005b341561031757600080fd5b610362600480803573ffffffffffffffffffffffffffffffffffffffff1690602001909190803573ffffffffffffffffffffffffffffffffffffffff16906020019091905050610ee1565b6040518082815260200191505060405180910390f35b341561038357600080fd5b6103ce600480803573ffffffffffffffffffffffffffffffffffffffff1690602001909190803573ffffffffffffffffffffffffffffffffffffffff16906020019091905050610f6b565b604051808215151515815260200191505060405180910390f35b34156103f357600080fd5b61043e600480803573ffffffffffffffffffffffffffffffffffffffff1690602001909190803573ffffffffffffffffffffffffffffffffffffffff16906020019091905050611207565b604051808215151515815260200191505060405180910390f35b341561046357600080fd5b61046b611294565b604051808273ffffffffffffffffffffffffffffffffffffffff1673ffffffffffffffffffffffffffffffffffffffff16815260200191505060405180910390f35b34156104b857600080fd5b6104e4600480803573ffffffffffffffffffffffffffffffffffffffff169060200190919050506112b9565b604051808215151515815260200191505060405180910390f35b341561050957600080fd5b610535600480803573ffffffffffffffffffffffffffffffffffffffff16906020019091905050611582565b604051808273ffffffffffffffffffffffffffffffffffffffff1673ffffffffffffffffffffffffffffffffffffffff16815260200191505060405180910390f35b341561058257600080fd5b6105cd600480803573ffffffffffffffffffffffffffffffffffffffff1690602001909190803573ffffffffffffffffffffffffffffffffffffffff169060200190919050506115b5565b604051808681526020018581526020018415151515815260200183151515158152602001821515151581526020019550505050505060405180910390f35b341561061657600080fd5b610673600480803573ffffffffffffffffffffffffffffffffffffffff1690602001909190803573ffffffffffffffffffffffffffffffffffffffff1690602001909190803590602001909190803590602001909190505061161f565b604051808215151515815260200191505060405180910390f35b341561069857600080fd5b6106b060048080351515906020019091905050611db3565b005b34156106bd57600080fd5b610730600480803573ffffffffffffffffffffffffffffffffffffffff1690602001909190803573ffffffffffffffffffffffffffffffffffffffff1690602001909190803573ffffffffffffffffffffffffffffffffffffffff16906020019091908035906020019091905050611e28565b604051808215151515815260200191505060405180910390f35b341561075557600080fd5b61075d611f3f565b604051808215151515815260200191505060405180910390f35b341561078257600080fd5b61078a611f52565b604051808273ffffffffffffffffffffffffffffffffffffffff1673ffffffffffffffffffffffffffffffffffffffff16815260200191505060405180910390f35b34156107d757600080fd5b610822600480803573ffffffffffffffffffffffffffffffffffffffff1690602001909190803573ffffffffffffffffffffffffffffffffffffffff16906020019091905050611f78565b6040518082815260200191505060405180910390f35b341561084357600080fd5b61086f600480803573ffffffffffffffffffffffffffffffffffffffff16906020019091905050612002565b604051808215151515815260200191505060405180910390f35b341561089457600080fd5b6108c0600480803573ffffffffffffffffffffffffffffffffffffffff1690602001909190505061217d565b005b34156108cd57600080fd5b6108d56122da565b6040518082815260200191505060405180910390f35b60008033836108fa8282610bd1565b151561090557600080fd5b33856109118282610b3a565b15151561091d57600080fd5b600460003373ffffffffffffffffffffffffffffffffffffffff1673ffffffffffffffffffffffffffffffffffffffff16815260200190815260200160002060008873ffffffffffffffffffffffffffffffffffffffff1673ffffffffffffffffffffffffffffffffffffffff16815260200190815260200160002094508460020160009054906101000a900460ff1615156109b857600080fd5b6109c23388611207565b15156109cd57600080fd5b8673ffffffffffffffffffffffffffffffffffffffff1663a9059cbb3387600101546000604051602001526040518363ffffffff167c0100000000000000000000000000000000000000000000000000000000028152600401808373ffffffffffffffffffffffffffffffffffffffff1673ffffffffffffffffffffffffffffffffffffffff16815260200182815260200192505050602060405180830381600087803b1515610a7c57600080fd5b6102c65a03f11515610a8d57600080fd5b505050604051805190501515610a9f57fe5b60018560020160016101000a81548160ff021916908315150217905550610acc60035486600101546122e0565b6003819055508673ffffffffffffffffffffffffffffffffffffffff163373ffffffffffffffffffffffffffffffffffffffff167f1a53d47e55e281dce8c868385a5949469563879e7b9e14a82913f0474975213460405160405180910390a3600195505050505050919050565b6000600460008473ffffffffffffffffffffffffffffffffffffffff1673ffffffffffffffffffffffffffffffffffffffff16815260200190815260200160002060008373ffffffffffffffffffffffffffffffffffffffff1673ffffffffffffffffffffffffffffffffffffffff16815260200190815260200160002060020160019054906101000a900460ff16905092915050565b6000600460008473ffffffffffffffffffffffffffffffffffffffff1673ffffffffffffffffffffffffffffffffffffffff16815260200190815260200160002060008373ffffffffffffffffffffffffffffffffffffffff1673ffffffffffffffffffffffffffffffffffffffff16815260200190815260200160002060020160029054906101000a900460ff16905092915050565b60025481565b6000600460008473ffffffffffffffffffffffffffffffffffffffff1673ffffffffffffffffffffffffffffffffffffffff16815260200190815260200160002060008373ffffffffffffffffffffffffffffffffffffffff1673ffffffffffffffffffffffffffffffffffffffff16815260200190815260200160002060020160009054906101000a900460ff16905092915050565b600160009054906101000a900473ffffffffffffffffffffffffffffffffffffffff1673ffffffffffffffffffffffffffffffffffffffff163373ffffffffffffffffffffffffffffffffffffffff16141515610d6157600080fd5b7f343765429aea5a34b3ff6a3785a98a5abb2597aca87bfbb58632c173d585373a6000809054906101000a900473ffffffffffffffffffffffffffffffffffffffff16600160009054906101000a900473ffffffffffffffffffffffffffffffffffffffff16604051808373ffffffffffffffffffffffffffffffffffffffff1673ffffffffffffffffffffffffffffffffffffffff1681526020018273ffffffffffffffffffffffffffffffffffffffff1673ffffffffffffffffffffffffffffffffffffffff1681526020019250505060405180910390a1600160009054906101000a900473ffffffffffffffffffffffffffffffffffffffff166000806101000a81548173ffffffffffffffffffffffffffffffffffffffff021916908373ffffffffffffffffffffffffffffffffffffffff1602179055506000600160006101000a81548173ffffffffffffffffffffffffffffffffffffffff021916908373ffffffffffffffffffffffffffffffffffffffff160217905550565b6000600460008473ffffffffffffffffffffffffffffffffffffffff1673ffffffffffffffffffffffffffffffffffffffff16815260200190815260200160002060008373ffffffffffffffffffffffffffffffffffffffff1673ffffffffffffffffffffffffffffffffffffffff16815260200190815260200160002060000154905092915050565b6000806000809054906101000a900473ffffffffffffffffffffffffffffffffffffffff1673ffffffffffffffffffffffffffffffffffffffff163373ffffffffffffffffffffffffffffffffffffffff16141515610fc657fe5b8383610fd28282610bd1565b1515610fdd57600080fd5b8585610fe98282610b3a565b151515610ff557600080fd5b600460008973ffffffffffffffffffffffffffffffffffffffff1673ffffffffffffffffffffffffffffffffffffffff16815260200190815260200160002060008873ffffffffffffffffffffffffffffffffffffffff1673ffffffffffffffffffffffffffffffffffffffff16815260200190815260200160002094508460020160009054906101000a900460ff16156110a55761109a60035486600101546122e0565b6003819055506110bc565b6110b560025486600101546122e0565b6002819055505b600460008973ffffffffffffffffffffffffffffffffffffffff1673ffffffffffffffffffffffffffffffffffffffff16815260200190815260200160002060008873ffffffffffffffffffffffffffffffffffffffff1673ffffffffffffffffffffffffffffffffffffffff16815260200190815260200160002060008082016000905560018201600090556002820160006101000a81549060ff02191690556002820160016101000a81549060ff02191690556002820160026101000a81549060ff021916905550508673ffffffffffffffffffffffffffffffffffffffff168873ffffffffffffffffffffffffffffffffffffffff163373ffffffffffffffffffffffffffffffffffffffff167f263f16854af18d38f502ef36d88d858dc6c11c4da66adb0c421b2b16b3431e2e60405160405180910390a460019550505050505092915050565b600042600460008573ffffffffffffffffffffffffffffffffffffffff1673ffffffffffffffffffffffffffffffffffffffff16815260200190815260200160002060008473ffffffffffffffffffffffffffffffffffffffff1673ffffffffffffffffffffffffffffffffffffffff168152602001908152602001600020600001541115905092915050565b6000809054906101000a900473ffffffffffffffffffffffffffffffffffffffff1681565b6000806000809054906101000a900473ffffffffffffffffffffffffffffffffffffffff1673ffffffffffffffffffffffffffffffffffffffff163373ffffffffffffffffffffffffffffffffffffffff1614151561131457fe5b600060025414801561132857506000600354145b151561133357600080fd5b8273ffffffffffffffffffffffffffffffffffffffff166370a08231306000604051602001526040518263ffffffff167c0100000000000000000000000000000000000000000000000000000000028152600401808273ffffffffffffffffffffffffffffffffffffffff1673ffffffffffffffffffffffffffffffffffffffff168152602001915050602060405180830381600087803b15156113d657600080fd5b6102c65a03f115156113e757600080fd5b5050506040518051905090508273ffffffffffffffffffffffffffffffffffffffff1663a9059cbb600660008673ffffffffffffffffffffffffffffffffffffffff1673ffffffffffffffffffffffffffffffffffffffff16815260200190815260200160002060009054906101000a900473ffffffffffffffffffffffffffffffffffffffff16836000604051602001526040518363ffffffff167c0100000000000000000000000000000000000000000000000000000000028152600401808373ffffffffffffffffffffffffffffffffffffffff1673ffffffffffffffffffffffffffffffffffffffff16815260200182815260200192505050602060405180830381600087803b15156114fd57600080fd5b6102c65a03f1151561150e57600080fd5b50505060405180519050151561152057fe5b61152a6000611db3565b8273ffffffffffffffffffffffffffffffffffffffff167f222838db2794d11532d940e8dec38ae307ed0b63cd97c233322e221f998767a6826040518082815260200191505060405180910390a26001915050919050565b60066020528060005260406000206000915054906101000a900473ffffffffffffffffffffffffffffffffffffffff1681565b6004602052816000526040600020602052806000526040600020600091509150508060000154908060010154908060020160009054906101000a900460ff16908060020160019054906101000a900460ff16908060020160029054906101000a900460ff16905085565b60008060008060009054906101000a900473ffffffffffffffffffffffffffffffffffffffff1673ffffffffffffffffffffffffffffffffffffffff163373ffffffffffffffffffffffffffffffffffffffff1614151561167c57fe5b600560009054906101000a900460ff16151561169757600080fd5b853073ffffffffffffffffffffffffffffffffffffffff168173ffffffffffffffffffffffffffffffffffffffff16141515156116d357600080fd5b873073ffffffffffffffffffffffffffffffffffffffff168173ffffffffffffffffffffffffffffffffffffffff161415151561170f57600080fd5b8760008173ffffffffffffffffffffffffffffffffffffffff161415151561173657600080fd5b8960008173ffffffffffffffffffffffffffffffffffffffff161415151561175d57600080fd5b60008911151561176c57600080fd5b600460008c73ffffffffffffffffffffffffffffffffffffffff1673ffffffffffffffffffffffffffffffffffffffff16815260200190815260200160002060008b73ffffffffffffffffffffffffffffffffffffffff1673ffffffffffffffffffffffffffffffffffffffff16815260200190815260200160002060020160029054906101000a900460ff16156119d957600460008c73ffffffffffffffffffffffffffffffffffffffff1673ffffffffffffffffffffffffffffffffffffffff16815260200190815260200160002060008b73ffffffffffffffffffffffffffffffffffffffff1673ffffffffffffffffffffffffffffffffffffffff168152602001908152602001600020955061188a86600101548a6122f9565b94506118988a333088611e28565b15156118a357600080fd5b4286600001541180156118ba575085600001548810155b15156118c557600080fd5b8973ffffffffffffffffffffffffffffffffffffffff166323b872dd333089600101546000604051602001526040518463ffffffff167c0100000000000000000000000000000000000000000000000000000000028152600401808473ffffffffffffffffffffffffffffffffffffffff1673ffffffffffffffffffffffffffffffffffffffff1681526020018373ffffffffffffffffffffffffffffffffffffffff1673ffffffffffffffffffffffffffffffffffffffff1681526020018281526020019350505050602060405180830381600087803b15156119a857600080fd5b6102c65a03f115156119b957600080fd5b5050506040518051905015156119cb57fe5b848660010181905550611c25565b42881115156119e757600080fd5b6119f38a33308c611e28565b15156119fe57600080fd5b8973ffffffffffffffffffffffffffffffffffffffff166323b872dd33308c6000604051602001526040518463ffffffff167c0100000000000000000000000000000000000000000000000000000000028152600401808473ffffffffffffffffffffffffffffffffffffffff1673ffffffffffffffffffffffffffffffffffffffff1681526020018373ffffffffffffffffffffffffffffffffffffffff1673ffffffffffffffffffffffffffffffffffffffff1681526020018281526020019350505050602060405180830381600087803b1515611add57600080fd5b6102c65a03f11515611aee57600080fd5b505050604051805190501515611b0057fe5b60a0604051908101604052808981526020018a815260200160001515815260200160001515815260200160011515815250600460008d73ffffffffffffffffffffffffffffffffffffffff1673ffffffffffffffffffffffffffffffffffffffff16815260200190815260200160002060008c73ffffffffffffffffffffffffffffffffffffffff1673ffffffffffffffffffffffffffffffffffffffff168152602001908152602001600020600082015181600001556020820151816001015560408201518160020160006101000a81548160ff02191690831515021790555060608201518160020160016101000a81548160ff02191690831515021790555060808201518160020160026101000a81548160ff0219169083151502179055509050505b6000600660008c73ffffffffffffffffffffffffffffffffffffffff1673ffffffffffffffffffffffffffffffffffffffff16815260200190815260200160002060009054906101000a900473ffffffffffffffffffffffffffffffffffffffff1673ffffffffffffffffffffffffffffffffffffffff161415611d225733600660008c73ffffffffffffffffffffffffffffffffffffffff1673ffffffffffffffffffffffffffffffffffffffff16815260200190815260200160002060006101000a81548173ffffffffffffffffffffffffffffffffffffffff021916908373ffffffffffffffffffffffffffffffffffffffff1602179055505b611d2e6002548a6122f9565b6002819055508973ffffffffffffffffffffffffffffffffffffffff168b73ffffffffffffffffffffffffffffffffffffffff167fa0f9c53feda32412802c316436a66cdafc4cbefe41cd678bb60214e6212a98998b8b604051808381526020018281526020019250505060405180910390a360019650505050505050949350505050565b6000809054906101000a900473ffffffffffffffffffffffffffffffffffffffff1673ffffffffffffffffffffffffffffffffffffffff163373ffffffffffffffffffffffffffffffffffffffff16141515611e0b57fe5b80600560006101000a81548160ff02191690831515021790555050565b6000611e4182611e3c6002546003546122f9565b6122f9565b8573ffffffffffffffffffffffffffffffffffffffff1663dd62ed3e86866000604051602001526040518363ffffffff167c0100000000000000000000000000000000000000000000000000000000028152600401808373ffffffffffffffffffffffffffffffffffffffff1673ffffffffffffffffffffffffffffffffffffffff1681526020018273ffffffffffffffffffffffffffffffffffffffff1673ffffffffffffffffffffffffffffffffffffffff16815260200192505050602060405180830381600087803b1515611f1857600080fd5b6102c65a03f11515611f2957600080fd5b5050506040518051905010159050949350505050565b600560009054906101000a900460ff1681565b600160009054906101000a900473ffffffffffffffffffffffffffffffffffffffff1681565b6000600460008473ffffffffffffffffffffffffffffffffffffffff1673ffffffffffffffffffffffffffffffffffffffff16815260200190815260200160002060008373ffffffffffffffffffffffffffffffffffffffff1673ffffffffffffffffffffffffffffffffffffffff16815260200190815260200160002060010154905092915050565b60008033836120118282610bd1565b151561201c57600080fd5b33856120288282610c6e565b15151561203457600080fd5b33876120408282610b3a565b15151561204c57600080fd5b600460003373ffffffffffffffffffffffffffffffffffffffff1673ffffffffffffffffffffffffffffffffffffffff16815260200190815260200160002060008a73ffffffffffffffffffffffffffffffffffffffff1673ffffffffffffffffffffffffffffffffffffffff168152602001908152602001600020965060018760020160006101000a81548160ff0219169083151502179055506120f760025488600101546122e0565b60028190555061210d60035488600101546122f9565b6003819055508873ffffffffffffffffffffffffffffffffffffffff163373ffffffffffffffffffffffffffffffffffffffff167f1e3f15731d632b71ee0daf35db51dfd1baa7ff691a7dc3061c167acef87713b460405160405180910390a36001975050505050505050919050565b6000809054906101000a900473ffffffffffffffffffffffffffffffffffffffff1673ffffffffffffffffffffffffffffffffffffffff163373ffffffffffffffffffffffffffffffffffffffff161415156121d557fe5b8060008173ffffffffffffffffffffffffffffffffffffffff16141515156121fc57600080fd5b813073ffffffffffffffffffffffffffffffffffffffff168173ffffffffffffffffffffffffffffffffffffffff161415151561223857600080fd5b6000809054906101000a900473ffffffffffffffffffffffffffffffffffffffff1673ffffffffffffffffffffffffffffffffffffffff168373ffffffffffffffffffffffffffffffffffffffff161415151561229457600080fd5b82600160006101000a81548173ffffffffffffffffffffffffffffffffffffffff021916908373ffffffffffffffffffffffffffffffffffffffff160217905550505050565b60035481565b60008183101515156122ee57fe5b818303905092915050565b600080828401905083811015151561230d57fe5b80915050929150505600a165627a7a723058204b9356bd7e47fb5ad6d8ebe7fc98f34b3f1e64f328dacc2f3d00c6f3250facda0029",
  "source": "pragma solidity ^0.4.11;\n\nimport \"./interfaces/ITokenLocker.sol\";\nimport \"./interfaces/IERC20Token.sol\";\nimport \"./util/Owned.sol\";\n\n/**\n*   TokenLocker contract allows to keep a promise \n*   that a specified amount of tokens will be locked upon a release date.     \n*/\ncontract TokenLocker is ITokenLocker {\n\n    mapping(address => address) public tokenOwners;\n\n    function TokenLocker() public {\n        lockupEnabled = true;\n    }\n\n    function lockup(address _recipient, IERC20Token _targetToken, uint256 _amount, uint256 _releaseTimestamp) public \n        ownerOnly\n        isLockupEnabled\n        notThis(_targetToken)\n        notThis(_recipient)\n        validAddress(_targetToken)\n        validAddress(_recipient)\n        returns(bool) \n    {\n        require(_amount > 0);\n        if (accountLockedAmount[_recipient][_targetToken].hasValue) {\n            Lock storage lock = accountLockedAmount[_recipient][_targetToken];\n            uint256 sum = safeAdd(lock.amount, _amount);\n            require(super.checkAllowance(_targetToken, msg.sender, address(this), sum));\n            require(lock.releaseTimestamp > now && _releaseTimestamp >= lock.releaseTimestamp);\n\n            assert(_targetToken.transferFrom(msg.sender, address(this), lock.amount));\n\n            lock.amount = sum;\n        } else {\n            require(_releaseTimestamp > now);\n            require(super.checkAllowance(_targetToken, msg.sender, address(this), _amount));\n\n            assert(_targetToken.transferFrom(msg.sender, address(this), _amount));\n\n            accountLockedAmount[_recipient][_targetToken] = Lock(_releaseTimestamp, _amount, false, false, true);\n        }\n\n        if (tokenOwners[_targetToken] == 0x0) {\n            tokenOwners[_targetToken] = msg.sender;\n        }\n\n        pendingLocked = safeAdd(pendingLocked, _amount);\n\n        PendingLockup(_recipient, _targetToken, _amount, _releaseTimestamp);\n        return true;\n    }\n\n    function cancel(address _recipient, IERC20Token _targetToken) public \n        ownerOnly\n        containsRecipient(_recipient, _targetToken) \n        notCollected(_recipient, _targetToken)\n        returns(bool) \n    {\n        Lock storage lock = accountLockedAmount[_recipient][_targetToken];\n\n        if (lock.confirmed) {\n            confirmedLocked = safeSub(confirmedLocked, lock.amount);\n        } else {\n            pendingLocked = safeSub(pendingLocked, lock.amount);\n        }\n\n        delete accountLockedAmount[_recipient][_targetToken];\n\n        CancelLockup(msg.sender, _recipient, _targetToken);\n        return true;\n    }    \n\n    function confirm(IERC20Token _targetToken) public \n        containsRecipient(msg.sender, _targetToken) \n        notConfirmed(msg.sender, _targetToken) \n        notCollected(msg.sender, _targetToken)\n        returns(bool) \n    {\n        Lock storage lock = accountLockedAmount[msg.sender][_targetToken];\n        lock.confirmed = true;\n        pendingLocked = safeSub(pendingLocked, lock.amount);\n        confirmedLocked = safeAdd(confirmedLocked, lock.amount);\n\n        ConfirmLockup(msg.sender, _targetToken);\n        return true;\n    }\n\n    function collect(IERC20Token _targetToken) public \n        containsRecipient(msg.sender, _targetToken) \n        notCollected(msg.sender, _targetToken) \n        returns(bool) \n    {\n        Lock storage lock = accountLockedAmount[msg.sender][_targetToken];\n        require(lock.confirmed);\n        require(super.isReleaseTime(msg.sender, _targetToken));\n        \n        assert(_targetToken.transfer(msg.sender, lock.amount));\n        lock.collected = true;\n        confirmedLocked = safeSub(confirmedLocked, lock.amount);\n\n        Collect(msg.sender, _targetToken);\n        return true;\n    }\n\n    function redeem(IERC20Token _targetToken) public\n        ownerOnly\n        returns(bool)\n    {\n        require(pendingLocked == 0 && confirmedLocked == 0);\n\n        uint256 tokenAmount = _targetToken.balanceOf(address(this));\n        assert(_targetToken.transfer(tokenOwners[_targetToken], tokenAmount));\n        super.setLockupEnabled(false);\n\n        Redeem(_targetToken, tokenAmount);\n        return true;\n    }\n\n}",
  "sourcePath": "/home/therasymchuk/Workspace/github/CDM-Token-Contracts/solidity/contracts/TokenLocker.sol",
  "compiler": {
    "name": "solc",
    "version": "0.4.18+commit.9cf6e910.Emscripten.clang"
  },
  "schemaVersion": "1.0.1",
  "updatedAt": "2018-02-06T13:27:08.978Z"
}