{
  "contractName": "TokenLocker",
  "abi": [
    {
      "constant": false,
      "inputs": [],
      "name": "acceptMultisigWalletAdapterOwnership",
      "outputs": [],
      "payable": false,
      "stateMutability": "nonpayable",
      "type": "function"
    },
    {
      "constant": true,
      "inputs": [
        {
          "name": "_recipient",
          "type": "address"
        },
        {
          "name": "_targetToken",
          "type": "address"
        }
      ],
      "name": "isCollected",
      "outputs": [
        {
          "name": "",
          "type": "bool"
        }
      ],
      "payable": false,
      "stateMutability": "view",
      "type": "function"
    },
    {
      "constant": true,
      "inputs": [
        {
          "name": "_recipient",
          "type": "address"
        },
        {
          "name": "_targetToken",
          "type": "address"
        }
      ],
      "name": "hasValue",
      "outputs": [
        {
          "name": "",
          "type": "bool"
        }
      ],
      "payable": false,
      "stateMutability": "view",
      "type": "function"
    },
    {
      "constant": false,
      "inputs": [
        {
          "name": "_newOwner",
          "type": "address"
        }
      ],
      "name": "transferTokenOwnership",
      "outputs": [],
      "payable": false,
      "stateMutability": "nonpayable",
      "type": "function"
    },
    {
      "constant": true,
      "inputs": [],
      "name": "pendingLocked",
      "outputs": [
        {
          "name": "",
          "type": "uint256"
        }
      ],
      "payable": false,
      "stateMutability": "view",
      "type": "function"
    },
    {
      "constant": true,
      "inputs": [],
      "name": "multisigWalletAdapter",
      "outputs": [
        {
          "name": "",
          "type": "address"
        }
      ],
      "payable": false,
      "stateMutability": "view",
      "type": "function"
    },
    {
      "constant": true,
      "inputs": [
        {
          "name": "_recipient",
          "type": "address"
        },
        {
          "name": "_targetToken",
          "type": "address"
        }
      ],
      "name": "isConfirmed",
      "outputs": [
        {
          "name": "",
          "type": "bool"
        }
      ],
      "payable": false,
      "stateMutability": "view",
      "type": "function"
    },
    {
      "constant": false,
      "inputs": [],
      "name": "acceptOwnership",
      "outputs": [],
      "payable": false,
      "stateMutability": "nonpayable",
      "type": "function"
    },
    {
      "constant": true,
      "inputs": [
        {
          "name": "_recipient",
          "type": "address"
        },
        {
          "name": "_targetToken",
          "type": "address"
        }
      ],
      "name": "getLockupReleaseTimestamp",
      "outputs": [
        {
          "name": "",
          "type": "uint256"
        }
      ],
      "payable": false,
      "stateMutability": "view",
      "type": "function"
    },
    {
      "constant": true,
      "inputs": [
        {
          "name": "_recipient",
          "type": "address"
        },
        {
          "name": "_targetToken",
          "type": "address"
        }
      ],
      "name": "isReleaseTime",
      "outputs": [
        {
          "name": "",
          "type": "bool"
        }
      ],
      "payable": false,
      "stateMutability": "view",
      "type": "function"
    },
    {
      "constant": true,
      "inputs": [],
      "name": "owner",
      "outputs": [
        {
          "name": "",
          "type": "address"
        }
      ],
      "payable": false,
      "stateMutability": "view",
      "type": "function"
    },
    {
      "constant": true,
      "inputs": [
        {
          "name": "",
          "type": "address"
        }
      ],
      "name": "tokenOwners",
      "outputs": [
        {
          "name": "",
          "type": "address"
        }
      ],
      "payable": false,
      "stateMutability": "view",
      "type": "function"
    },
    {
      "constant": true,
      "inputs": [
        {
          "name": "",
          "type": "address"
        },
        {
          "name": "",
          "type": "address"
        }
      ],
      "name": "accountLockedAmount",
      "outputs": [
        {
          "name": "releaseTimestamp",
          "type": "uint256"
        },
        {
          "name": "amount",
          "type": "uint256"
        },
        {
          "name": "confirmed",
          "type": "bool"
        },
        {
          "name": "collected",
          "type": "bool"
        },
        {
          "name": "hasValue",
          "type": "bool"
        }
      ],
      "payable": false,
      "stateMutability": "view",
      "type": "function"
    },
    {
      "constant": false,
      "inputs": [
        {
          "name": "enable",
          "type": "bool"
        }
      ],
      "name": "setLockupEnabled",
      "outputs": [],
      "payable": false,
      "stateMutability": "nonpayable",
      "type": "function"
    },
    {
      "constant": true,
      "inputs": [
        {
          "name": "_targetToken",
          "type": "address"
        },
        {
          "name": "_owner",
          "type": "address"
        },
        {
          "name": "_spender",
          "type": "address"
        },
        {
          "name": "_amount",
          "type": "uint256"
        }
      ],
      "name": "checkAllowance",
      "outputs": [
        {
          "name": "",
          "type": "bool"
        }
      ],
      "payable": false,
      "stateMutability": "view",
      "type": "function"
    },
    {
      "constant": true,
      "inputs": [],
      "name": "lockupEnabled",
      "outputs": [
        {
          "name": "",
          "type": "bool"
        }
      ],
      "payable": false,
      "stateMutability": "view",
      "type": "function"
    },
    {
      "constant": true,
      "inputs": [],
      "name": "newOwner",
      "outputs": [
        {
          "name": "",
          "type": "address"
        }
      ],
      "payable": false,
      "stateMutability": "view",
      "type": "function"
    },
    {
      "constant": true,
      "inputs": [
        {
          "name": "_recipient",
          "type": "address"
        },
        {
          "name": "_targetToken",
          "type": "address"
        }
      ],
      "name": "getLockupAmount",
      "outputs": [
        {
          "name": "",
          "type": "uint256"
        }
      ],
      "payable": false,
      "stateMutability": "view",
      "type": "function"
    },
    {
      "constant": false,
      "inputs": [
        {
          "name": "_newOwner",
          "type": "address"
        }
      ],
      "name": "transferOwnership",
      "outputs": [],
      "payable": false,
      "stateMutability": "nonpayable",
      "type": "function"
    },
    {
      "constant": true,
      "inputs": [],
      "name": "confirmedLocked",
      "outputs": [
        {
          "name": "",
          "type": "uint256"
        }
      ],
      "payable": false,
      "stateMutability": "view",
      "type": "function"
    },
    {
      "inputs": [
        {
          "name": "_multisigWalletAdapter",
          "type": "address"
        }
      ],
      "payable": false,
      "stateMutability": "nonpayable",
      "type": "constructor"
    },
    {
      "anonymous": false,
      "inputs": [
        {
          "indexed": true,
          "name": "_recipient",
          "type": "address"
        },
        {
          "indexed": true,
          "name": "_targetToken",
          "type": "address"
        },
        {
          "indexed": false,
          "name": "_amount",
          "type": "uint256"
        },
        {
          "indexed": false,
          "name": "_releaseTimestamp",
          "type": "uint256"
        }
      ],
      "name": "PendingLockup",
      "type": "event"
    },
    {
      "anonymous": false,
      "inputs": [
        {
          "indexed": true,
          "name": "_owner",
          "type": "address"
        },
        {
          "indexed": true,
          "name": "_recipient",
          "type": "address"
        },
        {
          "indexed": true,
          "name": "_targetToken",
          "type": "address"
        }
      ],
      "name": "CancelLockup",
      "type": "event"
    },
    {
      "anonymous": false,
      "inputs": [
        {
          "indexed": true,
          "name": "_recipient",
          "type": "address"
        },
        {
          "indexed": true,
          "name": "_targetToken",
          "type": "address"
        }
      ],
      "name": "ConfirmLockup",
      "type": "event"
    },
    {
      "anonymous": false,
      "inputs": [
        {
          "indexed": true,
          "name": "_recipient",
          "type": "address"
        },
        {
          "indexed": true,
          "name": "_targetToken",
          "type": "address"
        }
      ],
      "name": "Collect",
      "type": "event"
    },
    {
      "anonymous": false,
      "inputs": [
        {
          "indexed": true,
          "name": "_targetToken",
          "type": "address"
        },
        {
          "indexed": false,
          "name": "_amount",
          "type": "uint256"
        }
      ],
      "name": "Redeem",
      "type": "event"
    },
    {
      "anonymous": false,
      "inputs": [
        {
          "indexed": false,
          "name": "_prevOwner",
          "type": "address"
        },
        {
          "indexed": false,
          "name": "_newOwner",
          "type": "address"
        }
      ],
      "name": "OwnerUpdate",
      "type": "event"
    },
    {
      "constant": false,
      "inputs": [
        {
          "name": "_recipient",
          "type": "address"
        },
        {
          "name": "_targetToken",
          "type": "address"
        },
        {
          "name": "_amount",
          "type": "uint256"
        },
        {
          "name": "_releaseTimestamp",
          "type": "uint256"
        }
      ],
      "name": "lockup",
      "outputs": [
        {
          "name": "",
          "type": "bool"
        }
      ],
      "payable": false,
      "stateMutability": "nonpayable",
      "type": "function"
    },
    {
      "constant": false,
      "inputs": [
        {
          "name": "_recipient",
          "type": "address"
        },
        {
          "name": "_targetToken",
          "type": "address"
        }
      ],
      "name": "cancel",
      "outputs": [
        {
          "name": "",
          "type": "bool"
        }
      ],
      "payable": false,
      "stateMutability": "nonpayable",
      "type": "function"
    },
    {
      "constant": false,
      "inputs": [
        {
          "name": "_targetToken",
          "type": "address"
        }
      ],
      "name": "confirm",
      "outputs": [
        {
          "name": "",
          "type": "bool"
        }
      ],
      "payable": false,
      "stateMutability": "nonpayable",
      "type": "function"
    },
    {
      "constant": false,
      "inputs": [
        {
          "name": "_targetToken",
          "type": "address"
        }
      ],
      "name": "collect",
      "outputs": [
        {
          "name": "",
          "type": "bool"
        }
      ],
      "payable": false,
      "stateMutability": "nonpayable",
      "type": "function"
    },
    {
      "constant": false,
      "inputs": [
        {
          "name": "_targetToken",
          "type": "address"
        }
      ],
      "name": "redeem",
      "outputs": [
        {
          "name": "",
          "type": "bool"
        }
      ],
      "payable": false,
      "stateMutability": "nonpayable",
      "type": "function"
    }
  ],
  "bytecode": "0x606060405260006003556000600455341561001957600080fd5b60405160208061271383398101604052808051906020019091905050336000806101000a81548173ffffffffffffffffffffffffffffffffffffffff021916908373ffffffffffffffffffffffffffffffffffffffff1602179055506001600660006101000a81548160ff02191690831515021790555080600260006101000a81548173ffffffffffffffffffffffffffffffffffffffff021916908373ffffffffffffffffffffffffffffffffffffffff16021790555050612632806100e16000396000f300606060405260043610610149576000357c0100000000000000000000000000000000000000000000000000000000900463ffffffff168063021423821461014e57806306ec16f81461016357806307938165146101b457806318a0fc0d1461022457806321e6b53d1461029457806327f482b6146102cd5780633542499c146102f6578063777d76741461034b57806379ba5097146103bb5780638073cf04146103d0578063824c1db51461043c57806387e5f518146104ac5780638da5cb5b1461051c57806395a2251f14610571578063ad79e94b146105c2578063b2c4ad231461063b578063b3843f49146106cf578063bb42ba1714610751578063bd0d151f14610776578063d29ea5831461080e578063d4ee1d901461083b578063e94ecdb414610890578063eb4dd8f2146108fc578063f2fde38b1461094d578063fd33922f14610986575b600080fd5b341561015957600080fd5b6101616109af565b005b341561016e57600080fd5b61019a600480803573ffffffffffffffffffffffffffffffffffffffff16906020019091905050610aa2565b604051808215151515815260200191505060405180910390f35b34156101bf57600080fd5b61020a600480803573ffffffffffffffffffffffffffffffffffffffff1690602001909190803573ffffffffffffffffffffffffffffffffffffffff16906020019091905050610cf1565b604051808215151515815260200191505060405180910390f35b341561022f57600080fd5b61027a600480803573ffffffffffffffffffffffffffffffffffffffff1690602001909190803573ffffffffffffffffffffffffffffffffffffffff16906020019091905050610d88565b604051808215151515815260200191505060405180910390f35b341561029f57600080fd5b6102cb600480803573ffffffffffffffffffffffffffffffffffffffff16906020019091905050610e1f565b005b34156102d857600080fd5b6102e0610f4a565b6040518082815260200191505060405180910390f35b341561030157600080fd5b610309610f50565b604051808273ffffffffffffffffffffffffffffffffffffffff1673ffffffffffffffffffffffffffffffffffffffff16815260200191505060405180910390f35b341561035657600080fd5b6103a1600480803573ffffffffffffffffffffffffffffffffffffffff1690602001909190803573ffffffffffffffffffffffffffffffffffffffff16906020019091905050610f76565b604051808215151515815260200191505060405180910390f35b34156103c657600080fd5b6103ce61100d565b005b34156103db57600080fd5b610426600480803573ffffffffffffffffffffffffffffffffffffffff1690602001909190803573ffffffffffffffffffffffffffffffffffffffff169060200190919050506111e9565b6040518082815260200191505060405180910390f35b341561044757600080fd5b610492600480803573ffffffffffffffffffffffffffffffffffffffff1690602001909190803573ffffffffffffffffffffffffffffffffffffffff16906020019091905050611273565b604051808215151515815260200191505060405180910390f35b34156104b757600080fd5b610502600480803573ffffffffffffffffffffffffffffffffffffffff1690602001909190803573ffffffffffffffffffffffffffffffffffffffff1690602001909190505061150f565b604051808215151515815260200191505060405180910390f35b341561052757600080fd5b61052f61159c565b604051808273ffffffffffffffffffffffffffffffffffffffff1673ffffffffffffffffffffffffffffffffffffffff16815260200191505060405180910390f35b341561057c57600080fd5b6105a8600480803573ffffffffffffffffffffffffffffffffffffffff169060200190919050506115c1565b604051808215151515815260200191505060405180910390f35b34156105cd57600080fd5b6105f9600480803573ffffffffffffffffffffffffffffffffffffffff1690602001909190505061188a565b604051808273ffffffffffffffffffffffffffffffffffffffff1673ffffffffffffffffffffffffffffffffffffffff16815260200191505060405180910390f35b341561064657600080fd5b610691600480803573ffffffffffffffffffffffffffffffffffffffff1690602001909190803573ffffffffffffffffffffffffffffffffffffffff169060200190919050506118bd565b604051808681526020018581526020018415151515815260200183151515158152602001821515151581526020019550505050505060405180910390f35b34156106da57600080fd5b610737600480803573ffffffffffffffffffffffffffffffffffffffff1690602001909190803573ffffffffffffffffffffffffffffffffffffffff16906020019091908035906020019091908035906020019091905050611927565b604051808215151515815260200191505060405180910390f35b341561075c57600080fd5b610774600480803515159060200190919050506120a2565b005b341561078157600080fd5b6107f4600480803573ffffffffffffffffffffffffffffffffffffffff1690602001909190803573ffffffffffffffffffffffffffffffffffffffff1690602001909190803573ffffffffffffffffffffffffffffffffffffffff16906020019091908035906020019091905050612117565b604051808215151515815260200191505060405180910390f35b341561081957600080fd5b61082161222e565b604051808215151515815260200191505060405180910390f35b341561084657600080fd5b61084e612241565b604051808273ffffffffffffffffffffffffffffffffffffffff1673ffffffffffffffffffffffffffffffffffffffff16815260200191505060405180910390f35b341561089b57600080fd5b6108e6600480803573ffffffffffffffffffffffffffffffffffffffff1690602001909190803573ffffffffffffffffffffffffffffffffffffffff16906020019091905050612267565b6040518082815260200191505060405180910390f35b341561090757600080fd5b610933600480803573ffffffffffffffffffffffffffffffffffffffff169060200190919050506122f1565b604051808215151515815260200191505060405180910390f35b341561095857600080fd5b610984600480803573ffffffffffffffffffffffffffffffffffffffff1690602001909190505061246c565b005b341561099157600080fd5b6109996125c9565b6040518082815260200191505060405180910390f35b6000809054906101000a900473ffffffffffffffffffffffffffffffffffffffff1673ffffffffffffffffffffffffffffffffffffffff163373ffffffffffffffffffffffffffffffffffffffff16141515610a0757fe5b600260009054906101000a900473ffffffffffffffffffffffffffffffffffffffff1673ffffffffffffffffffffffffffffffffffffffff166379ba50976040518163ffffffff167c0100000000000000000000000000000000000000000000000000000000028152600401600060405180830381600087803b1515610a8c57600080fd5b6102c65a03f11515610a9d57600080fd5b505050565b6000803383610ab18282610d88565b1515610abc57600080fd5b3385610ac88282610cf1565b151515610ad457600080fd5b600560003373ffffffffffffffffffffffffffffffffffffffff1673ffffffffffffffffffffffffffffffffffffffff16815260200190815260200160002060008873ffffffffffffffffffffffffffffffffffffffff1673ffffffffffffffffffffffffffffffffffffffff16815260200190815260200160002094508460020160009054906101000a900460ff161515610b6f57600080fd5b610b79338861150f565b1515610b8457600080fd5b8673ffffffffffffffffffffffffffffffffffffffff1663a9059cbb3387600101546000604051602001526040518363ffffffff167c0100000000000000000000000000000000000000000000000000000000028152600401808373ffffffffffffffffffffffffffffffffffffffff1673ffffffffffffffffffffffffffffffffffffffff16815260200182815260200192505050602060405180830381600087803b1515610c3357600080fd5b6102c65a03f11515610c4457600080fd5b505050604051805190501515610c5657fe5b60018560020160016101000a81548160ff021916908315150217905550610c8360045486600101546125cf565b6004819055508673ffffffffffffffffffffffffffffffffffffffff163373ffffffffffffffffffffffffffffffffffffffff167f1a53d47e55e281dce8c868385a5949469563879e7b9e14a82913f0474975213460405160405180910390a3600195505050505050919050565b6000600560008473ffffffffffffffffffffffffffffffffffffffff1673ffffffffffffffffffffffffffffffffffffffff16815260200190815260200160002060008373ffffffffffffffffffffffffffffffffffffffff1673ffffffffffffffffffffffffffffffffffffffff16815260200190815260200160002060020160019054906101000a900460ff16905092915050565b6000600560008473ffffffffffffffffffffffffffffffffffffffff1673ffffffffffffffffffffffffffffffffffffffff16815260200190815260200160002060008373ffffffffffffffffffffffffffffffffffffffff1673ffffffffffffffffffffffffffffffffffffffff16815260200190815260200160002060020160029054906101000a900460ff16905092915050565b6000809054906101000a900473ffffffffffffffffffffffffffffffffffffffff1673ffffffffffffffffffffffffffffffffffffffff163373ffffffffffffffffffffffffffffffffffffffff16141515610e7757fe5b600260009054906101000a900473ffffffffffffffffffffffffffffffffffffffff1673ffffffffffffffffffffffffffffffffffffffff1663f2fde38b826040518263ffffffff167c0100000000000000000000000000000000000000000000000000000000028152600401808273ffffffffffffffffffffffffffffffffffffffff1673ffffffffffffffffffffffffffffffffffffffff168152602001915050600060405180830381600087803b1515610f3357600080fd5b6102c65a03f11515610f4457600080fd5b50505050565b60035481565b600260009054906101000a900473ffffffffffffffffffffffffffffffffffffffff1681565b6000600560008473ffffffffffffffffffffffffffffffffffffffff1673ffffffffffffffffffffffffffffffffffffffff16815260200190815260200160002060008373ffffffffffffffffffffffffffffffffffffffff1673ffffffffffffffffffffffffffffffffffffffff16815260200190815260200160002060020160009054906101000a900460ff16905092915050565b600160009054906101000a900473ffffffffffffffffffffffffffffffffffffffff1673ffffffffffffffffffffffffffffffffffffffff163373ffffffffffffffffffffffffffffffffffffffff1614151561106957600080fd5b7f343765429aea5a34b3ff6a3785a98a5abb2597aca87bfbb58632c173d585373a6000809054906101000a900473ffffffffffffffffffffffffffffffffffffffff16600160009054906101000a900473ffffffffffffffffffffffffffffffffffffffff16604051808373ffffffffffffffffffffffffffffffffffffffff1673ffffffffffffffffffffffffffffffffffffffff1681526020018273ffffffffffffffffffffffffffffffffffffffff1673ffffffffffffffffffffffffffffffffffffffff1681526020019250505060405180910390a1600160009054906101000a900473ffffffffffffffffffffffffffffffffffffffff166000806101000a81548173ffffffffffffffffffffffffffffffffffffffff021916908373ffffffffffffffffffffffffffffffffffffffff1602179055506000600160006101000a81548173ffffffffffffffffffffffffffffffffffffffff021916908373ffffffffffffffffffffffffffffffffffffffff160217905550565b6000600560008473ffffffffffffffffffffffffffffffffffffffff1673ffffffffffffffffffffffffffffffffffffffff16815260200190815260200160002060008373ffffffffffffffffffffffffffffffffffffffff1673ffffffffffffffffffffffffffffffffffffffff16815260200190815260200160002060000154905092915050565b6000806000809054906101000a900473ffffffffffffffffffffffffffffffffffffffff1673ffffffffffffffffffffffffffffffffffffffff163373ffffffffffffffffffffffffffffffffffffffff161415156112ce57fe5b83836112da8282610d88565b15156112e557600080fd5b85856112f18282610cf1565b1515156112fd57600080fd5b600560008973ffffffffffffffffffffffffffffffffffffffff1673ffffffffffffffffffffffffffffffffffffffff16815260200190815260200160002060008873ffffffffffffffffffffffffffffffffffffffff1673ffffffffffffffffffffffffffffffffffffffff16815260200190815260200160002094508460020160009054906101000a900460ff16156113ad576113a260045486600101546125cf565b6004819055506113c4565b6113bd60035486600101546125cf565b6003819055505b600560008973ffffffffffffffffffffffffffffffffffffffff1673ffffffffffffffffffffffffffffffffffffffff16815260200190815260200160002060008873ffffffffffffffffffffffffffffffffffffffff1673ffffffffffffffffffffffffffffffffffffffff16815260200190815260200160002060008082016000905560018201600090556002820160006101000a81549060ff02191690556002820160016101000a81549060ff02191690556002820160026101000a81549060ff021916905550508673ffffffffffffffffffffffffffffffffffffffff168873ffffffffffffffffffffffffffffffffffffffff163373ffffffffffffffffffffffffffffffffffffffff167f263f16854af18d38f502ef36d88d858dc6c11c4da66adb0c421b2b16b3431e2e60405160405180910390a460019550505050505092915050565b600042600560008573ffffffffffffffffffffffffffffffffffffffff1673ffffffffffffffffffffffffffffffffffffffff16815260200190815260200160002060008473ffffffffffffffffffffffffffffffffffffffff1673ffffffffffffffffffffffffffffffffffffffff168152602001908152602001600020600001541115905092915050565b6000809054906101000a900473ffffffffffffffffffffffffffffffffffffffff1681565b6000806000809054906101000a900473ffffffffffffffffffffffffffffffffffffffff1673ffffffffffffffffffffffffffffffffffffffff163373ffffffffffffffffffffffffffffffffffffffff1614151561161c57fe5b600060035414801561163057506000600454145b151561163b57600080fd5b8273ffffffffffffffffffffffffffffffffffffffff166370a08231306000604051602001526040518263ffffffff167c0100000000000000000000000000000000000000000000000000000000028152600401808273ffffffffffffffffffffffffffffffffffffffff1673ffffffffffffffffffffffffffffffffffffffff168152602001915050602060405180830381600087803b15156116de57600080fd5b6102c65a03f115156116ef57600080fd5b5050506040518051905090508273ffffffffffffffffffffffffffffffffffffffff1663a9059cbb600760008673ffffffffffffffffffffffffffffffffffffffff1673ffffffffffffffffffffffffffffffffffffffff16815260200190815260200160002060009054906101000a900473ffffffffffffffffffffffffffffffffffffffff16836000604051602001526040518363ffffffff167c0100000000000000000000000000000000000000000000000000000000028152600401808373ffffffffffffffffffffffffffffffffffffffff1673ffffffffffffffffffffffffffffffffffffffff16815260200182815260200192505050602060405180830381600087803b151561180557600080fd5b6102c65a03f1151561181657600080fd5b50505060405180519050151561182857fe5b61183260006120a2565b8273ffffffffffffffffffffffffffffffffffffffff167f222838db2794d11532d940e8dec38ae307ed0b63cd97c233322e221f998767a6826040518082815260200191505060405180910390a26001915050919050565b60076020528060005260406000206000915054906101000a900473ffffffffffffffffffffffffffffffffffffffff1681565b6005602052816000526040600020602052806000526040600020600091509150508060000154908060010154908060020160009054906101000a900460ff16908060020160019054906101000a900460ff16908060020160029054906101000a900460ff16905085565b60008060008060009054906101000a900473ffffffffffffffffffffffffffffffffffffffff1673ffffffffffffffffffffffffffffffffffffffff163373ffffffffffffffffffffffffffffffffffffffff1614151561198457fe5b600660009054906101000a900460ff16151561199f57600080fd5b853073ffffffffffffffffffffffffffffffffffffffff168173ffffffffffffffffffffffffffffffffffffffff16141515156119db57600080fd5b873073ffffffffffffffffffffffffffffffffffffffff168173ffffffffffffffffffffffffffffffffffffffff1614151515611a1757600080fd5b8760008173ffffffffffffffffffffffffffffffffffffffff1614151515611a3e57600080fd5b8960008173ffffffffffffffffffffffffffffffffffffffff1614151515611a6557600080fd5b600560008c73ffffffffffffffffffffffffffffffffffffffff1673ffffffffffffffffffffffffffffffffffffffff16815260200190815260200160002060008b73ffffffffffffffffffffffffffffffffffffffff1673ffffffffffffffffffffffffffffffffffffffff16815260200190815260200160002060020160029054906101000a900460ff1615611cd257600560008c73ffffffffffffffffffffffffffffffffffffffff1673ffffffffffffffffffffffffffffffffffffffff16815260200190815260200160002060008b73ffffffffffffffffffffffffffffffffffffffff1673ffffffffffffffffffffffffffffffffffffffff1681526020019081526020016000209550611b8386600101548a6125e8565b9450611b918a333088612117565b1515611b9c57600080fd5b428660000154118015611bb3575085600001548810155b1515611bbe57600080fd5b8973ffffffffffffffffffffffffffffffffffffffff166323b872dd333089600101546000604051602001526040518463ffffffff167c0100000000000000000000000000000000000000000000000000000000028152600401808473ffffffffffffffffffffffffffffffffffffffff1673ffffffffffffffffffffffffffffffffffffffff1681526020018373ffffffffffffffffffffffffffffffffffffffff1673ffffffffffffffffffffffffffffffffffffffff1681526020018281526020019350505050602060405180830381600087803b1515611ca157600080fd5b6102c65a03f11515611cb257600080fd5b505050604051805190501515611cc457fe5b848660010181905550611f14565b600260009054906101000a900473ffffffffffffffffffffffffffffffffffffffff1673ffffffffffffffffffffffffffffffffffffffff1663f4b79da58b8d8c6000604051602001526040518463ffffffff167c0100000000000000000000000000000000000000000000000000000000028152600401808473ffffffffffffffffffffffffffffffffffffffff1673ffffffffffffffffffffffffffffffffffffffff1681526020018373ffffffffffffffffffffffffffffffffffffffff1673ffffffffffffffffffffffffffffffffffffffff1681526020018281526020019350505050602060405180830381600087803b1515611dd357600080fd5b6102c65a03f11515611de457600080fd5b505050604051805190505060a0604051908101604052808981526020018a815260200160001515815260200160001515815260200160011515815250600560008d73ffffffffffffffffffffffffffffffffffffffff1673ffffffffffffffffffffffffffffffffffffffff16815260200190815260200160002060008c73ffffffffffffffffffffffffffffffffffffffff1673ffffffffffffffffffffffffffffffffffffffff168152602001908152602001600020600082015181600001556020820151816001015560408201518160020160006101000a81548160ff02191690831515021790555060608201518160020160016101000a81548160ff02191690831515021790555060808201518160020160026101000a81548160ff0219169083151502179055509050505b6000600760008c73ffffffffffffffffffffffffffffffffffffffff1673ffffffffffffffffffffffffffffffffffffffff16815260200190815260200160002060009054906101000a900473ffffffffffffffffffffffffffffffffffffffff1673ffffffffffffffffffffffffffffffffffffffff1614156120115733600760008c73ffffffffffffffffffffffffffffffffffffffff1673ffffffffffffffffffffffffffffffffffffffff16815260200190815260200160002060006101000a81548173ffffffffffffffffffffffffffffffffffffffff021916908373ffffffffffffffffffffffffffffffffffffffff1602179055505b61201d6003548a6125e8565b6003819055508973ffffffffffffffffffffffffffffffffffffffff168b73ffffffffffffffffffffffffffffffffffffffff167fa0f9c53feda32412802c316436a66cdafc4cbefe41cd678bb60214e6212a98998b8b604051808381526020018281526020019250505060405180910390a360019650505050505050949350505050565b6000809054906101000a900473ffffffffffffffffffffffffffffffffffffffff1673ffffffffffffffffffffffffffffffffffffffff163373ffffffffffffffffffffffffffffffffffffffff161415156120fa57fe5b80600660006101000a81548160ff02191690831515021790555050565b60006121308261212b6003546004546125e8565b6125e8565b8573ffffffffffffffffffffffffffffffffffffffff1663dd62ed3e86866000604051602001526040518363ffffffff167c0100000000000000000000000000000000000000000000000000000000028152600401808373ffffffffffffffffffffffffffffffffffffffff1673ffffffffffffffffffffffffffffffffffffffff1681526020018273ffffffffffffffffffffffffffffffffffffffff1673ffffffffffffffffffffffffffffffffffffffff16815260200192505050602060405180830381600087803b151561220757600080fd5b6102c65a03f1151561221857600080fd5b5050506040518051905010159050949350505050565b600660009054906101000a900460ff1681565b600160009054906101000a900473ffffffffffffffffffffffffffffffffffffffff1681565b6000600560008473ffffffffffffffffffffffffffffffffffffffff1673ffffffffffffffffffffffffffffffffffffffff16815260200190815260200160002060008373ffffffffffffffffffffffffffffffffffffffff1673ffffffffffffffffffffffffffffffffffffffff16815260200190815260200160002060010154905092915050565b60008033836123008282610d88565b151561230b57600080fd5b33856123178282610f76565b15151561232357600080fd5b338761232f8282610cf1565b15151561233b57600080fd5b600560003373ffffffffffffffffffffffffffffffffffffffff1673ffffffffffffffffffffffffffffffffffffffff16815260200190815260200160002060008a73ffffffffffffffffffffffffffffffffffffffff1673ffffffffffffffffffffffffffffffffffffffff168152602001908152602001600020965060018760020160006101000a81548160ff0219169083151502179055506123e660035488600101546125cf565b6003819055506123fc60045488600101546125e8565b6004819055508873ffffffffffffffffffffffffffffffffffffffff163373ffffffffffffffffffffffffffffffffffffffff167f1e3f15731d632b71ee0daf35db51dfd1baa7ff691a7dc3061c167acef87713b460405160405180910390a36001975050505050505050919050565b6000809054906101000a900473ffffffffffffffffffffffffffffffffffffffff1673ffffffffffffffffffffffffffffffffffffffff163373ffffffffffffffffffffffffffffffffffffffff161415156124c457fe5b8060008173ffffffffffffffffffffffffffffffffffffffff16141515156124eb57600080fd5b813073ffffffffffffffffffffffffffffffffffffffff168173ffffffffffffffffffffffffffffffffffffffff161415151561252757600080fd5b6000809054906101000a900473ffffffffffffffffffffffffffffffffffffffff1673ffffffffffffffffffffffffffffffffffffffff168373ffffffffffffffffffffffffffffffffffffffff161415151561258357600080fd5b82600160006101000a81548173ffffffffffffffffffffffffffffffffffffffff021916908373ffffffffffffffffffffffffffffffffffffffff160217905550505050565b60045481565b60008183101515156125dd57fe5b818303905092915050565b60008082840190508381101515156125fc57fe5b80915050929150505600a165627a7a72305820644f89ede1097606a049884a7c36586016b747a6b2a1259d48b19e13508f50450029",
  "source": "pragma solidity ^0.4.11;\n\nimport \"./interfaces/ITokenLocker.sol\";\nimport \"./interfaces/IERC20Token.sol\";\nimport \"./util/Owned.sol\";\nimport \"./MultisigWalletAdapter.sol\";\n\n/**\n*   TokenLocker contract allows to keep a promise \n*   that a specified amount of tokens will be locked upon a release date.     \n*/\ncontract TokenLocker is ITokenLocker {\n\n    mapping(address => address) public tokenOwners;\n\n    function TokenLocker(MultisigWalletAdapter _multisigWalletAdapter) public {\n        lockupEnabled = true;\n        multisigWalletAdapter = _multisigWalletAdapter;\n    }\n\n    function lockup(address _recipient, IERC20Token _targetToken, uint256 _amount, uint256 _releaseTimestamp) public \n        ownerOnly\n        isLockupEnabled\n        notThis(_targetToken)\n        notThis(_recipient)\n        validAddress(_targetToken)\n        validAddress(_recipient)\n        returns(bool) \n    {\n        if (accountLockedAmount[_recipient][_targetToken].hasValue) {\n            Lock storage lock = accountLockedAmount[_recipient][_targetToken];\n            uint256 sum = safeAdd(lock.amount, _amount);\n            require(super.checkAllowance(_targetToken, msg.sender, address(this), sum));\n            require(lock.releaseTimestamp > now && _releaseTimestamp >= lock.releaseTimestamp);\n\n            assert(_targetToken.transferFrom(msg.sender, address(this), lock.amount));\n\n            lock.amount = sum;\n        } else {\n            // require(_releaseTimestamp > now);\n            // require(super.checkAllowance(_targetToken, msg.sender, address(this), _amount));\n\n            // assert(_targetToken.transferFrom(msg.sender, address(this), _amount));\n\n            multisigWalletAdapter.delegateTransfer(_targetToken, _recipient, _amount);\n\n            accountLockedAmount[_recipient][_targetToken] = Lock(_releaseTimestamp, _amount, false, false, true);\n        }\n\n        if (tokenOwners[_targetToken] == 0x0) {\n            tokenOwners[_targetToken] = msg.sender;\n        }\n\n        pendingLocked = safeAdd(pendingLocked, _amount);\n\n        PendingLockup(_recipient, _targetToken, _amount, _releaseTimestamp);\n        return true;\n    }\n\n    function cancel(address _recipient, IERC20Token _targetToken) public \n        ownerOnly\n        containsRecipient(_recipient, _targetToken) \n        notCollected(_recipient, _targetToken)\n        returns(bool) \n    {\n        Lock storage lock = accountLockedAmount[_recipient][_targetToken];\n\n        if (lock.confirmed) {\n            confirmedLocked = safeSub(confirmedLocked, lock.amount);\n        } else {\n            pendingLocked = safeSub(pendingLocked, lock.amount);\n        }\n\n        delete accountLockedAmount[_recipient][_targetToken];\n\n        CancelLockup(msg.sender, _recipient, _targetToken);\n        return true;\n    }    \n\n    function confirm(IERC20Token _targetToken) public \n        containsRecipient(msg.sender, _targetToken) \n        notConfirmed(msg.sender, _targetToken) \n        notCollected(msg.sender, _targetToken)\n        returns(bool) \n    {\n        Lock storage lock = accountLockedAmount[msg.sender][_targetToken];\n        lock.confirmed = true;\n        pendingLocked = safeSub(pendingLocked, lock.amount);\n        confirmedLocked = safeAdd(confirmedLocked, lock.amount);\n\n        ConfirmLockup(msg.sender, _targetToken);\n        return true;\n    }\n\n    function collect(IERC20Token _targetToken) public \n        containsRecipient(msg.sender, _targetToken) \n        notCollected(msg.sender, _targetToken) \n        returns(bool) \n    {\n        Lock storage lock = accountLockedAmount[msg.sender][_targetToken];\n        require(lock.confirmed);\n        require(super.isReleaseTime(msg.sender, _targetToken));\n        \n        assert(_targetToken.transfer(msg.sender, lock.amount));\n        lock.collected = true;\n        confirmedLocked = safeSub(confirmedLocked, lock.amount);\n\n        Collect(msg.sender, _targetToken);\n        return true;\n    }\n\n    function redeem(IERC20Token _targetToken) public\n        ownerOnly\n        returns(bool)\n    {\n        require(pendingLocked == 0 && confirmedLocked == 0);\n\n        uint256 tokenAmount = _targetToken.balanceOf(address(this));\n        assert(_targetToken.transfer(tokenOwners[_targetToken], tokenAmount));\n        super.setLockupEnabled(false);\n\n        Redeem(_targetToken, tokenAmount);\n        return true;\n    }\n\n}",
  "sourcePath": "/home/taras/Workspace/vscode/CDM-Token-Contracts/solidity/contracts/TokenLocker.sol",
  "compiler": {
    "name": "solc",
    "version": "0.4.19+commit.c4cbbb05.Emscripten.clang"
  },
  "schemaVersion": "1.0.1",
  "updatedAt": "2018-02-15T18:24:09.152Z"
}