{
  "contractName": "TokenLocker",
  "abi": [
    {
      "constant": true,
      "inputs": [
        {
          "name": "_recipient",
          "type": "address"
        },
        {
          "name": "_targetToken",
          "type": "address"
        }
      ],
      "name": "isCollected",
      "outputs": [
        {
          "name": "",
          "type": "bool"
        }
      ],
      "payable": false,
      "stateMutability": "view",
      "type": "function"
    },
    {
      "constant": true,
      "inputs": [
        {
          "name": "_recipient",
          "type": "address"
        },
        {
          "name": "_targetToken",
          "type": "address"
        }
      ],
      "name": "hasValue",
      "outputs": [
        {
          "name": "",
          "type": "bool"
        }
      ],
      "payable": false,
      "stateMutability": "view",
      "type": "function"
    },
    {
      "constant": true,
      "inputs": [],
      "name": "pendingLocked",
      "outputs": [
        {
          "name": "",
          "type": "uint256"
        }
      ],
      "payable": false,
      "stateMutability": "view",
      "type": "function"
    },
    {
      "constant": true,
      "inputs": [
        {
          "name": "_recipient",
          "type": "address"
        },
        {
          "name": "_targetToken",
          "type": "address"
        }
      ],
      "name": "isConfirmed",
      "outputs": [
        {
          "name": "",
          "type": "bool"
        }
      ],
      "payable": false,
      "stateMutability": "view",
      "type": "function"
    },
    {
      "constant": false,
      "inputs": [],
      "name": "acceptOwnership",
      "outputs": [],
      "payable": false,
      "stateMutability": "nonpayable",
      "type": "function"
    },
    {
      "constant": true,
      "inputs": [
        {
          "name": "_recipient",
          "type": "address"
        },
        {
          "name": "_targetToken",
          "type": "address"
        }
      ],
      "name": "getLockupReleaseTimestamp",
      "outputs": [
        {
          "name": "",
          "type": "uint256"
        }
      ],
      "payable": false,
      "stateMutability": "view",
      "type": "function"
    },
    {
      "constant": true,
      "inputs": [
        {
          "name": "_recipient",
          "type": "address"
        },
        {
          "name": "_targetToken",
          "type": "address"
        }
      ],
      "name": "isReleaseTime",
      "outputs": [
        {
          "name": "",
          "type": "bool"
        }
      ],
      "payable": false,
      "stateMutability": "view",
      "type": "function"
    },
    {
      "constant": true,
      "inputs": [],
      "name": "owner",
      "outputs": [
        {
          "name": "",
          "type": "address"
        }
      ],
      "payable": false,
      "stateMutability": "view",
      "type": "function"
    },
    {
      "constant": true,
      "inputs": [
        {
          "name": "",
          "type": "address"
        },
        {
          "name": "",
          "type": "address"
        }
      ],
      "name": "accountLockedAmount",
      "outputs": [
        {
          "name": "releaseTimestamp",
          "type": "uint256"
        },
        {
          "name": "amount",
          "type": "uint256"
        },
        {
          "name": "confirmed",
          "type": "bool"
        },
        {
          "name": "collected",
          "type": "bool"
        },
        {
          "name": "hasValue",
          "type": "bool"
        }
      ],
      "payable": false,
      "stateMutability": "view",
      "type": "function"
    },
    {
      "constant": true,
      "inputs": [
        {
          "name": "_targetToken",
          "type": "address"
        },
        {
          "name": "_owner",
          "type": "address"
        },
        {
          "name": "_spender",
          "type": "address"
        },
        {
          "name": "_amount",
          "type": "uint256"
        }
      ],
      "name": "checkAllowance",
      "outputs": [
        {
          "name": "",
          "type": "bool"
        }
      ],
      "payable": false,
      "stateMutability": "view",
      "type": "function"
    },
    {
      "constant": true,
      "inputs": [],
      "name": "newOwner",
      "outputs": [
        {
          "name": "",
          "type": "address"
        }
      ],
      "payable": false,
      "stateMutability": "view",
      "type": "function"
    },
    {
      "constant": true,
      "inputs": [
        {
          "name": "_recipient",
          "type": "address"
        },
        {
          "name": "_targetToken",
          "type": "address"
        }
      ],
      "name": "getLockupAmount",
      "outputs": [
        {
          "name": "",
          "type": "uint256"
        }
      ],
      "payable": false,
      "stateMutability": "view",
      "type": "function"
    },
    {
      "constant": false,
      "inputs": [
        {
          "name": "_newOwner",
          "type": "address"
        }
      ],
      "name": "transferOwnership",
      "outputs": [],
      "payable": false,
      "stateMutability": "nonpayable",
      "type": "function"
    },
    {
      "constant": true,
      "inputs": [],
      "name": "confirmedLocked",
      "outputs": [
        {
          "name": "",
          "type": "uint256"
        }
      ],
      "payable": false,
      "stateMutability": "view",
      "type": "function"
    },
    {
      "inputs": [],
      "payable": false,
      "stateMutability": "nonpayable",
      "type": "constructor"
    },
    {
      "anonymous": false,
      "inputs": [
        {
          "indexed": false,
          "name": "_prevOwner",
          "type": "address"
        },
        {
          "indexed": false,
          "name": "_newOwner",
          "type": "address"
        }
      ],
      "name": "OwnerUpdate",
      "type": "event"
    },
    {
      "anonymous": false,
      "inputs": [
        {
          "indexed": true,
          "name": "_recipient",
          "type": "address"
        },
        {
          "indexed": true,
          "name": "_targetToken",
          "type": "address"
        },
        {
          "indexed": false,
          "name": "_amount",
          "type": "uint256"
        },
        {
          "indexed": false,
          "name": "_releaseTimestamp",
          "type": "uint256"
        }
      ],
      "name": "PendingLockup",
      "type": "event"
    },
    {
      "anonymous": false,
      "inputs": [
        {
          "indexed": true,
          "name": "_owner",
          "type": "address"
        },
        {
          "indexed": true,
          "name": "_recipient",
          "type": "address"
        },
        {
          "indexed": true,
          "name": "_targetToken",
          "type": "address"
        }
      ],
      "name": "CancelLockup",
      "type": "event"
    },
    {
      "anonymous": false,
      "inputs": [
        {
          "indexed": true,
          "name": "_recipient",
          "type": "address"
        },
        {
          "indexed": true,
          "name": "_targetToken",
          "type": "address"
        }
      ],
      "name": "ConfirmLockup",
      "type": "event"
    },
    {
      "anonymous": false,
      "inputs": [
        {
          "indexed": true,
          "name": "_recipient",
          "type": "address"
        },
        {
          "indexed": true,
          "name": "_targetToken",
          "type": "address"
        }
      ],
      "name": "Collect",
      "type": "event"
    },
    {
      "constant": false,
      "inputs": [
        {
          "name": "_recipient",
          "type": "address"
        },
        {
          "name": "_targetToken",
          "type": "address"
        },
        {
          "name": "_amount",
          "type": "uint256"
        },
        {
          "name": "_releaseTimestamp",
          "type": "uint256"
        }
      ],
      "name": "lockup",
      "outputs": [
        {
          "name": "",
          "type": "bool"
        }
      ],
      "payable": false,
      "stateMutability": "nonpayable",
      "type": "function"
    },
    {
      "constant": false,
      "inputs": [
        {
          "name": "_recipient",
          "type": "address"
        },
        {
          "name": "_targetToken",
          "type": "address"
        }
      ],
      "name": "cancel",
      "outputs": [
        {
          "name": "",
          "type": "bool"
        }
      ],
      "payable": false,
      "stateMutability": "nonpayable",
      "type": "function"
    },
    {
      "constant": false,
      "inputs": [
        {
          "name": "_targetToken",
          "type": "address"
        }
      ],
      "name": "confirm",
      "outputs": [
        {
          "name": "",
          "type": "bool"
        }
      ],
      "payable": false,
      "stateMutability": "nonpayable",
      "type": "function"
    },
    {
      "constant": false,
      "inputs": [
        {
          "name": "_targetToken",
          "type": "address"
        }
      ],
      "name": "collect",
      "outputs": [
        {
          "name": "",
          "type": "bool"
        }
      ],
      "payable": false,
      "stateMutability": "nonpayable",
      "type": "function"
    }
  ],
  "bytecode": "0x6060604052600080556000600155341561001857600080fd5b33600360006101000a81548173ffffffffffffffffffffffffffffffffffffffff021916908373ffffffffffffffffffffffffffffffffffffffff160217905550611c68806100686000396000f3006060604052600436106100fc576000357c0100000000000000000000000000000000000000000000000000000000900463ffffffff16806306ec16f814610101578063079381651461015257806318a0fc0d146101c257806327f482b614610232578063777d76741461025b57806379ba5097146102cb5780638073cf04146102e0578063824c1db51461034c57806387e5f518146103bc5780638da5cb5b1461042c578063b2c4ad2314610481578063b3843f4914610515578063bd0d151f14610597578063d4ee1d901461062f578063e94ecdb414610684578063eb4dd8f2146106f0578063f2fde38b14610741578063fd33922f1461077a575b600080fd5b341561010c57600080fd5b610138600480803573ffffffffffffffffffffffffffffffffffffffff169060200190919050506107a3565b604051808215151515815260200191505060405180910390f35b341561015d57600080fd5b6101a8600480803573ffffffffffffffffffffffffffffffffffffffff1690602001909190803573ffffffffffffffffffffffffffffffffffffffff16906020019091905050610a85565b604051808215151515815260200191505060405180910390f35b34156101cd57600080fd5b610218600480803573ffffffffffffffffffffffffffffffffffffffff1690602001909190803573ffffffffffffffffffffffffffffffffffffffff16906020019091905050610b1c565b604051808215151515815260200191505060405180910390f35b341561023d57600080fd5b610245610bb3565b6040518082815260200191505060405180910390f35b341561026657600080fd5b6102b1600480803573ffffffffffffffffffffffffffffffffffffffff1690602001909190803573ffffffffffffffffffffffffffffffffffffffff16906020019091905050610bb9565b604051808215151515815260200191505060405180910390f35b34156102d657600080fd5b6102de610c50565b005b34156102eb57600080fd5b610336600480803573ffffffffffffffffffffffffffffffffffffffff1690602001909190803573ffffffffffffffffffffffffffffffffffffffff16906020019091905050610e2e565b6040518082815260200191505060405180910390f35b341561035757600080fd5b6103a2600480803573ffffffffffffffffffffffffffffffffffffffff1690602001909190803573ffffffffffffffffffffffffffffffffffffffff16906020019091905050610eb8565b604051808215151515815260200191505060405180910390f35b34156103c757600080fd5b610412600480803573ffffffffffffffffffffffffffffffffffffffff1690602001909190803573ffffffffffffffffffffffffffffffffffffffff16906020019091905050611134565b604051808215151515815260200191505060405180910390f35b341561043757600080fd5b61043f6111c1565b604051808273ffffffffffffffffffffffffffffffffffffffff1673ffffffffffffffffffffffffffffffffffffffff16815260200191505060405180910390f35b341561048c57600080fd5b6104d7600480803573ffffffffffffffffffffffffffffffffffffffff1690602001909190803573ffffffffffffffffffffffffffffffffffffffff169060200190919050506111e7565b604051808681526020018581526020018415151515815260200183151515158152602001821515151581526020019550505050505060405180910390f35b341561052057600080fd5b61057d600480803573ffffffffffffffffffffffffffffffffffffffff1690602001909190803573ffffffffffffffffffffffffffffffffffffffff16906020019091908035906020019091908035906020019091905050611251565b604051808215151515815260200191505060405180910390f35b34156105a257600080fd5b610615600480803573ffffffffffffffffffffffffffffffffffffffff1690602001909190803573ffffffffffffffffffffffffffffffffffffffff1690602001909190803573ffffffffffffffffffffffffffffffffffffffff169060200190919080359060200190919050506117c3565b604051808215151515815260200191505060405180910390f35b341561063a57600080fd5b6106426118da565b604051808273ffffffffffffffffffffffffffffffffffffffff1673ffffffffffffffffffffffffffffffffffffffff16815260200191505060405180910390f35b341561068f57600080fd5b6106da600480803573ffffffffffffffffffffffffffffffffffffffff1690602001909190803573ffffffffffffffffffffffffffffffffffffffff16906020019091905050611900565b6040518082815260200191505060405180910390f35b34156106fb57600080fd5b610727600480803573ffffffffffffffffffffffffffffffffffffffff1690602001909190505061198a565b604051808215151515815260200191505060405180910390f35b341561074c57600080fd5b610778600480803573ffffffffffffffffffffffffffffffffffffffff16906020019091905050611b05565b005b341561078557600080fd5b61078d611bff565b6040518082815260200191505060405180910390f35b60008033836107b28282610b1c565b15156107bd57600080fd5b33856107c98282610a85565b1515156107d557600080fd5b600260003373ffffffffffffffffffffffffffffffffffffffff1673ffffffffffffffffffffffffffffffffffffffff16815260200190815260200160002060008873ffffffffffffffffffffffffffffffffffffffff1673ffffffffffffffffffffffffffffffffffffffff16815260200190815260200160002094508460020160009054906101000a900460ff16151561087057600080fd5b61087a3388611134565b151561088557600080fd5b8673ffffffffffffffffffffffffffffffffffffffff166323b872dd600560008a73ffffffffffffffffffffffffffffffffffffffff1673ffffffffffffffffffffffffffffffffffffffff16815260200190815260200160002060009054906101000a900473ffffffffffffffffffffffffffffffffffffffff163388600101546000604051602001526040518463ffffffff167c0100000000000000000000000000000000000000000000000000000000028152600401808473ffffffffffffffffffffffffffffffffffffffff1673ffffffffffffffffffffffffffffffffffffffff1681526020018373ffffffffffffffffffffffffffffffffffffffff1673ffffffffffffffffffffffffffffffffffffffff1681526020018281526020019350505050602060405180830381600087803b15156109c757600080fd5b6102c65a03f115156109d857600080fd5b5050506040518051905015156109ea57fe5b60018560020160016101000a81548160ff021916908315150217905550610a176001548660010154611c05565b6001819055508673ffffffffffffffffffffffffffffffffffffffff163373ffffffffffffffffffffffffffffffffffffffff167f1a53d47e55e281dce8c868385a5949469563879e7b9e14a82913f0474975213460405160405180910390a3600195505050505050919050565b6000600260008473ffffffffffffffffffffffffffffffffffffffff1673ffffffffffffffffffffffffffffffffffffffff16815260200190815260200160002060008373ffffffffffffffffffffffffffffffffffffffff1673ffffffffffffffffffffffffffffffffffffffff16815260200190815260200160002060020160019054906101000a900460ff16905092915050565b6000600260008473ffffffffffffffffffffffffffffffffffffffff1673ffffffffffffffffffffffffffffffffffffffff16815260200190815260200160002060008373ffffffffffffffffffffffffffffffffffffffff1673ffffffffffffffffffffffffffffffffffffffff16815260200190815260200160002060020160029054906101000a900460ff16905092915050565b60005481565b6000600260008473ffffffffffffffffffffffffffffffffffffffff1673ffffffffffffffffffffffffffffffffffffffff16815260200190815260200160002060008373ffffffffffffffffffffffffffffffffffffffff1673ffffffffffffffffffffffffffffffffffffffff16815260200190815260200160002060020160009054906101000a900460ff16905092915050565b600460009054906101000a900473ffffffffffffffffffffffffffffffffffffffff1673ffffffffffffffffffffffffffffffffffffffff163373ffffffffffffffffffffffffffffffffffffffff16141515610cac57600080fd5b7f343765429aea5a34b3ff6a3785a98a5abb2597aca87bfbb58632c173d585373a600360009054906101000a900473ffffffffffffffffffffffffffffffffffffffff16600460009054906101000a900473ffffffffffffffffffffffffffffffffffffffff16604051808373ffffffffffffffffffffffffffffffffffffffff1673ffffffffffffffffffffffffffffffffffffffff1681526020018273ffffffffffffffffffffffffffffffffffffffff1673ffffffffffffffffffffffffffffffffffffffff1681526020019250505060405180910390a1600460009054906101000a900473ffffffffffffffffffffffffffffffffffffffff16600360006101000a81548173ffffffffffffffffffffffffffffffffffffffff021916908373ffffffffffffffffffffffffffffffffffffffff1602179055506000600460006101000a81548173ffffffffffffffffffffffffffffffffffffffff021916908373ffffffffffffffffffffffffffffffffffffffff160217905550565b6000600260008473ffffffffffffffffffffffffffffffffffffffff1673ffffffffffffffffffffffffffffffffffffffff16815260200190815260200160002060008373ffffffffffffffffffffffffffffffffffffffff1673ffffffffffffffffffffffffffffffffffffffff16815260200190815260200160002060000154905092915050565b600080600360009054906101000a900473ffffffffffffffffffffffffffffffffffffffff1673ffffffffffffffffffffffffffffffffffffffff163373ffffffffffffffffffffffffffffffffffffffff16141515610f1457fe5b8383610f208282610b1c565b1515610f2b57600080fd5b8585610f378282610a85565b151515610f4357600080fd5b600260008973ffffffffffffffffffffffffffffffffffffffff1673ffffffffffffffffffffffffffffffffffffffff16815260200190815260200160002060008873ffffffffffffffffffffffffffffffffffffffff1673ffffffffffffffffffffffffffffffffffffffff1681526020019081526020016000209450846000015442101515610fd357600080fd5b610fe36000548660010154611c05565b600081905550600260008973ffffffffffffffffffffffffffffffffffffffff1673ffffffffffffffffffffffffffffffffffffffff16815260200190815260200160002060008873ffffffffffffffffffffffffffffffffffffffff1673ffffffffffffffffffffffffffffffffffffffff16815260200190815260200160002060008082016000905560018201600090556002820160006101000a81549060ff02191690556002820160016101000a81549060ff02191690556002820160026101000a81549060ff021916905550508673ffffffffffffffffffffffffffffffffffffffff168873ffffffffffffffffffffffffffffffffffffffff163373ffffffffffffffffffffffffffffffffffffffff167f263f16854af18d38f502ef36d88d858dc6c11c4da66adb0c421b2b16b3431e2e60405160405180910390a460019550505050505092915050565b600042600260008573ffffffffffffffffffffffffffffffffffffffff1673ffffffffffffffffffffffffffffffffffffffff16815260200190815260200160002060008473ffffffffffffffffffffffffffffffffffffffff1673ffffffffffffffffffffffffffffffffffffffff168152602001908152602001600020600001541115905092915050565b600360009054906101000a900473ffffffffffffffffffffffffffffffffffffffff1681565b6002602052816000526040600020602052806000526040600020600091509150508060000154908060010154908060020160009054906101000a900460ff16908060020160019054906101000a900460ff16908060020160029054906101000a900460ff16905085565b6000806000600360009054906101000a900473ffffffffffffffffffffffffffffffffffffffff1673ffffffffffffffffffffffffffffffffffffffff163373ffffffffffffffffffffffffffffffffffffffff161415156112af57fe5b853073ffffffffffffffffffffffffffffffffffffffff168173ffffffffffffffffffffffffffffffffffffffff16141515156112eb57600080fd5b873073ffffffffffffffffffffffffffffffffffffffff168173ffffffffffffffffffffffffffffffffffffffff161415151561132757600080fd5b8760008173ffffffffffffffffffffffffffffffffffffffff161415151561134e57600080fd5b8960008173ffffffffffffffffffffffffffffffffffffffff161415151561137557600080fd5b60008911151561138457600080fd5b600260008c73ffffffffffffffffffffffffffffffffffffffff1673ffffffffffffffffffffffffffffffffffffffff16815260200190815260200160002060008b73ffffffffffffffffffffffffffffffffffffffff1673ffffffffffffffffffffffffffffffffffffffff16815260200190815260200160002060020160029054906101000a900460ff16156114eb57600260008c73ffffffffffffffffffffffffffffffffffffffff1673ffffffffffffffffffffffffffffffffffffffff16815260200190815260200160002060008b73ffffffffffffffffffffffffffffffffffffffff1673ffffffffffffffffffffffffffffffffffffffff16815260200190815260200160002095506114a286600101548a611c1e565b94506114b08a3330886117c3565b15156114bb57600080fd5b4286600001541180156114d2575085600001548810155b15156114dd57600080fd5b848660010181905550611635565b42881115156114f957600080fd5b6115058a33308c6117c3565b151561151057600080fd5b60a0604051908101604052808981526020018a815260200160001515815260200160001515815260200160011515815250600260008d73ffffffffffffffffffffffffffffffffffffffff1673ffffffffffffffffffffffffffffffffffffffff16815260200190815260200160002060008c73ffffffffffffffffffffffffffffffffffffffff1673ffffffffffffffffffffffffffffffffffffffff168152602001908152602001600020600082015181600001556020820151816001015560408201518160020160006101000a81548160ff02191690831515021790555060608201518160020160016101000a81548160ff02191690831515021790555060808201518160020160026101000a81548160ff0219169083151502179055509050505b6000600560008c73ffffffffffffffffffffffffffffffffffffffff1673ffffffffffffffffffffffffffffffffffffffff16815260200190815260200160002060009054906101000a900473ffffffffffffffffffffffffffffffffffffffff1673ffffffffffffffffffffffffffffffffffffffff1614156117325733600560008c73ffffffffffffffffffffffffffffffffffffffff1673ffffffffffffffffffffffffffffffffffffffff16815260200190815260200160002060006101000a81548173ffffffffffffffffffffffffffffffffffffffff021916908373ffffffffffffffffffffffffffffffffffffffff1602179055505b61173e6000548a611c1e565b6000819055508973ffffffffffffffffffffffffffffffffffffffff168b73ffffffffffffffffffffffffffffffffffffffff167fa0f9c53feda32412802c316436a66cdafc4cbefe41cd678bb60214e6212a98998b8b604051808381526020018281526020019250505060405180910390a360019650505050505050949350505050565b60006117dc826117d7600054600154611c1e565b611c1e565b8573ffffffffffffffffffffffffffffffffffffffff1663dd62ed3e86866000604051602001526040518363ffffffff167c0100000000000000000000000000000000000000000000000000000000028152600401808373ffffffffffffffffffffffffffffffffffffffff1673ffffffffffffffffffffffffffffffffffffffff1681526020018273ffffffffffffffffffffffffffffffffffffffff1673ffffffffffffffffffffffffffffffffffffffff16815260200192505050602060405180830381600087803b15156118b357600080fd5b6102c65a03f115156118c457600080fd5b5050506040518051905010159050949350505050565b600460009054906101000a900473ffffffffffffffffffffffffffffffffffffffff1681565b6000600260008473ffffffffffffffffffffffffffffffffffffffff1673ffffffffffffffffffffffffffffffffffffffff16815260200190815260200160002060008373ffffffffffffffffffffffffffffffffffffffff1673ffffffffffffffffffffffffffffffffffffffff16815260200190815260200160002060010154905092915050565b60008033836119998282610b1c565b15156119a457600080fd5b33856119b08282610bb9565b1515156119bc57600080fd5b33876119c88282610a85565b1515156119d457600080fd5b600260003373ffffffffffffffffffffffffffffffffffffffff1673ffffffffffffffffffffffffffffffffffffffff16815260200190815260200160002060008a73ffffffffffffffffffffffffffffffffffffffff1673ffffffffffffffffffffffffffffffffffffffff168152602001908152602001600020965060018760020160006101000a81548160ff021916908315150217905550611a7f6000548860010154611c05565b600081905550611a956001548860010154611c1e565b6001819055508873ffffffffffffffffffffffffffffffffffffffff163373ffffffffffffffffffffffffffffffffffffffff167f1e3f15731d632b71ee0daf35db51dfd1baa7ff691a7dc3061c167acef87713b460405160405180910390a36001975050505050505050919050565b600360009054906101000a900473ffffffffffffffffffffffffffffffffffffffff1673ffffffffffffffffffffffffffffffffffffffff163373ffffffffffffffffffffffffffffffffffffffff16141515611b5e57fe5b600360009054906101000a900473ffffffffffffffffffffffffffffffffffffffff1673ffffffffffffffffffffffffffffffffffffffff168173ffffffffffffffffffffffffffffffffffffffff1614151515611bbb57600080fd5b80600460006101000a81548173ffffffffffffffffffffffffffffffffffffffff021916908373ffffffffffffffffffffffffffffffffffffffff16021790555050565b60015481565b6000818310151515611c1357fe5b818303905092915050565b6000808284019050838110151515611c3257fe5b80915050929150505600a165627a7a72305820422c9e4cccf1f89eafee099a70f4749a9a143d8fd818764bf82cef79a39cfe170029",
  "source": "pragma solidity ^0.4.11;\n\nimport \"./interfaces/ITokenLocker.sol\";\nimport \"./interfaces/IERC20Token.sol\";\nimport \"./util/Owned.sol\";\n\ncontract TokenLocker is ITokenLocker, Owned {\n\n    mapping(address => address) tokenOwners;\n\n    function TokenLocker() public {}\n\n    // should we be able to update lockup amount? if it's possible, should we be able to decrease lockup amount?\n    function lockup(address _recipient, IERC20Token _targetToken, uint256 _amount, uint256 _releaseTimestamp) public \n        ownerOnly\n        notThis(_targetToken)\n        notThis(_recipient)\n        validAddress(_targetToken)\n        validAddress(_recipient)\n        returns(bool) \n    {\n        require(_amount > 0);\n        if (accountLockedAmount[_recipient][_targetToken].hasValue) {\n            Lock storage lock = accountLockedAmount[_recipient][_targetToken];\n            uint256 sum = safeAdd(lock.amount, _amount);\n            require(super.checkAllowance(_targetToken, msg.sender, address(this), sum));\n            require(lock.releaseTimestamp > now && _releaseTimestamp >= lock.releaseTimestamp);\n            lock.amount = sum;\n        } else {\n            require(_releaseTimestamp > now);\n            require(super.checkAllowance(_targetToken, msg.sender, address(this), _amount));\n            accountLockedAmount[_recipient][_targetToken] = Lock(_releaseTimestamp, _amount, false, false, true);\n        }\n\n        if (tokenOwners[_targetToken] == 0x0) {\n            tokenOwners[_targetToken] = msg.sender;\n        }\n\n        pendingLocked = safeAdd(pendingLocked, _amount);\n\n        PendingLockup(_recipient, _targetToken, _amount, _releaseTimestamp);\n        return true;\n    }\n\n    // discuss details about cancelation. should we cancel lockup if releaseTimestamp >= now && lockup isn't confirmed\n    function cancel(address _recipient, IERC20Token _targetToken) public \n        ownerOnly\n        containsRecipient(_recipient, _targetToken) \n        notCollected(_recipient, _targetToken)\n        returns(bool) \n    {\n        Lock storage lock = accountLockedAmount[_recipient][_targetToken];\n        require(now < lock.releaseTimestamp);\n\n        pendingLocked = safeSub(pendingLocked, lock.amount);\n        delete accountLockedAmount[_recipient][_targetToken];\n\n        CancelLockup(msg.sender, _recipient, _targetToken);\n        return true;\n    }    \n\n    function confirm(IERC20Token _targetToken) public \n        containsRecipient(msg.sender, _targetToken) \n        notConfirmed(msg.sender, _targetToken) \n        notCollected(msg.sender, _targetToken)\n        returns(bool) \n    {\n        Lock storage lock = accountLockedAmount[msg.sender][_targetToken];\n        lock.confirmed = true;\n        pendingLocked = safeSub(pendingLocked, lock.amount);\n        confirmedLocked = safeAdd(confirmedLocked, lock.amount);\n\n        ConfirmLockup(msg.sender, _targetToken);\n        return true;\n    }\n\n    // Alowance must be set before lockup\n    function collect(IERC20Token _targetToken) public \n        containsRecipient(msg.sender, _targetToken) \n        notCollected(msg.sender, _targetToken) \n        returns(bool) \n    {\n        Lock storage lock = accountLockedAmount[msg.sender][_targetToken];\n        require(lock.confirmed);\n        require(super.isReleaseTime(msg.sender, _targetToken));\n        \n        assert(_targetToken.transferFrom(tokenOwners[_targetToken], msg.sender, lock.amount));\n\n        lock.collected = true;\n        confirmedLocked = safeSub(confirmedLocked, lock.amount);\n\n        Collect(msg.sender, _targetToken);\n        return true;\n    }\n\n}",
  "sourcePath": "/home/taras/Workspace/vscode/cdm-token/solidity/contracts/TokenLocker.sol",
  "compiler": {
    "name": "solc",
    "version": "0.4.19+commit.c4cbbb05.Emscripten.clang"
  },
  "schemaVersion": "1.0.1",
  "updatedAt": "2018-02-02T11:37:40.354Z"
}